{
  "contractName": "RevShareStaking",
  "abi": [
    {
      "inputs": [
        {
          "internalType": "address",
          "name": "_token",
          "type": "address"
        },
        {
          "internalType": "uint256",
          "name": "_lockTimeInDays",
          "type": "uint256"
        }
      ],
      "stateMutability": "nonpayable",
      "type": "constructor"
    },
    {
      "anonymous": false,
      "inputs": [
        {
          "indexed": true,
          "internalType": "address",
          "name": "account",
          "type": "address"
        },
        {
          "indexed": false,
          "internalType": "uint256",
          "name": "amount",
          "type": "uint256"
        },
        {
          "indexed": true,
          "internalType": "bool",
          "name": "automatic",
          "type": "bool"
        }
      ],
      "name": "Claim",
      "type": "event"
    },
    {
      "anonymous": false,
      "inputs": [
        {
          "indexed": true,
          "internalType": "address",
          "name": "user",
          "type": "address"
        },
        {
          "indexed": false,
          "internalType": "uint256",
          "name": "amount",
          "type": "uint256"
        }
      ],
      "name": "Deposit",
      "type": "event"
    },
    {
      "anonymous": false,
      "inputs": [
        {
          "indexed": true,
          "internalType": "address",
          "name": "to",
          "type": "address"
        },
        {
          "indexed": false,
          "internalType": "uint256",
          "name": "weiAmount",
          "type": "uint256"
        }
      ],
      "name": "DividendWithdrawn",
      "type": "event"
    },
    {
      "anonymous": false,
      "inputs": [
        {
          "indexed": true,
          "internalType": "address",
          "name": "from",
          "type": "address"
        },
        {
          "indexed": false,
          "internalType": "uint256",
          "name": "weiAmount",
          "type": "uint256"
        }
      ],
      "name": "DividendsDistributed",
      "type": "event"
    },
    {
      "anonymous": false,
      "inputs": [
        {
          "indexed": true,
          "internalType": "address",
          "name": "user",
          "type": "address"
        },
        {
          "indexed": false,
          "internalType": "uint256",
          "name": "amount",
          "type": "uint256"
        }
      ],
      "name": "Withdraw",
      "type": "event"
    },
    {
      "inputs": [
        {
          "internalType": "address",
          "name": "_owner",
          "type": "address"
        }
      ],
      "name": "accumulativeDividendOf",
      "outputs": [
        {
          "internalType": "uint256",
          "name": "",
          "type": "uint256"
        }
      ],
      "stateMutability": "view",
      "type": "function"
    },
    {
      "inputs": [],
      "name": "claimTax",
      "outputs": [
        {
          "internalType": "uint8",
          "name": "",
          "type": "uint8"
        }
      ],
      "stateMutability": "view",
      "type": "function"
    },
    {
      "inputs": [],
      "name": "compoundTax",
      "outputs": [
        {
          "internalType": "uint8",
          "name": "",
          "type": "uint8"
        }
      ],
      "stateMutability": "view",
      "type": "function"
    },
    {
      "inputs": [],
      "name": "dexRouter",
      "outputs": [
        {
          "internalType": "contract IDexRouter",
          "name": "",
          "type": "address"
        }
      ],
      "stateMutability": "view",
      "type": "function"
    },
    {
      "inputs": [],
      "name": "distributeDividends",
      "outputs": [],
      "stateMutability": "payable",
      "type": "function"
    },
    {
      "inputs": [
        {
          "internalType": "address",
          "name": "_owner",
          "type": "address"
        }
      ],
      "name": "dividendOf",
      "outputs": [
        {
          "internalType": "uint256",
          "name": "",
          "type": "uint256"
        }
      ],
      "stateMutability": "view",
      "type": "function"
    },
    {
      "inputs": [
        {
          "internalType": "address",
          "name": "account",
          "type": "address"
        }
      ],
      "name": "dividendTokenBalanceOf",
      "outputs": [
        {
          "internalType": "uint256",
          "name": "",
          "type": "uint256"
        }
      ],
      "stateMutability": "view",
      "type": "function"
    },
    {
      "inputs": [
        {
          "internalType": "address",
          "name": "_account",
          "type": "address"
        }
      ],
      "name": "getAccount",
      "outputs": [
        {
          "internalType": "address",
          "name": "account",
          "type": "address"
        },
        {
          "internalType": "uint256",
          "name": "withdrawableDividends",
          "type": "uint256"
        },
        {
          "internalType": "uint256",
          "name": "totalDividends",
          "type": "uint256"
        },
        {
          "internalType": "uint256",
          "name": "balance",
          "type": "uint256"
        }
      ],
      "stateMutability": "view",
      "type": "function"
    },
    {
      "inputs": [],
      "name": "getNumberOfDividends",
      "outputs": [
        {
          "internalType": "uint256",
          "name": "",
          "type": "uint256"
        }
      ],
      "stateMutability": "view",
      "type": "function"
    },
    {
      "inputs": [],
      "name": "getTotalDividendsDistributed",
      "outputs": [
        {
          "internalType": "uint256",
          "name": "",
          "type": "uint256"
        }
      ],
      "stateMutability": "view",
      "type": "function"
    },
    {
      "inputs": [
        {
          "internalType": "address",
          "name": "",
          "type": "address"
        }
      ],
      "name": "holderBalance",
      "outputs": [
        {
          "internalType": "uint256",
          "name": "",
          "type": "uint256"
        }
      ],
      "stateMutability": "view",
      "type": "function"
    },
    {
      "inputs": [
        {
          "internalType": "address",
          "name": "",
          "type": "address"
        }
      ],
      "name": "holderUnlockTime",
      "outputs": [
        {
          "internalType": "uint256",
          "name": "",
          "type": "uint256"
        }
      ],
      "stateMutability": "view",
      "type": "function"
    },
    {
      "inputs": [],
      "name": "lockDuration",
      "outputs": [
        {
          "internalType": "uint256",
          "name": "",
          "type": "uint256"
        }
      ],
      "stateMutability": "view",
      "type": "function"
    },
    {
      "inputs": [],
      "name": "rewardsWallet",
      "outputs": [
        {
          "internalType": "address",
          "name": "",
          "type": "address"
        }
      ],
      "stateMutability": "view",
      "type": "function"
    },
    {
      "inputs": [],
      "name": "stakeTax",
      "outputs": [
        {
          "internalType": "uint8",
          "name": "",
          "type": "uint8"
        }
      ],
      "stateMutability": "view",
      "type": "function"
    },
    {
      "inputs": [],
      "name": "token",
      "outputs": [
        {
          "internalType": "contract IERC20",
          "name": "",
          "type": "address"
        }
      ],
      "stateMutability": "view",
      "type": "function"
    },
    {
      "inputs": [],
      "name": "totalBalance",
      "outputs": [
        {
          "internalType": "uint256",
          "name": "",
          "type": "uint256"
        }
      ],
      "stateMutability": "view",
      "type": "function"
    },
    {
      "inputs": [],
      "name": "totalDividendsDistributed",
      "outputs": [
        {
          "internalType": "uint256",
          "name": "",
          "type": "uint256"
        }
      ],
      "stateMutability": "view",
      "type": "function"
    },
    {
      "inputs": [],
      "name": "uniswapV2Router",
      "outputs": [
        {
          "internalType": "contract IUniswapV2Router02",
          "name": "",
          "type": "address"
        }
      ],
      "stateMutability": "view",
      "type": "function"
    },
    {
      "inputs": [],
      "name": "withdrawDividend",
      "outputs": [],
      "stateMutability": "nonpayable",
      "type": "function"
    },
    {
      "inputs": [
        {
          "internalType": "address",
          "name": "_owner",
          "type": "address"
        }
      ],
      "name": "withdrawableDividendOf",
      "outputs": [
        {
          "internalType": "uint256",
          "name": "",
          "type": "uint256"
        }
      ],
      "stateMutability": "view",
      "type": "function"
    },
    {
      "inputs": [
        {
          "internalType": "address",
          "name": "_owner",
          "type": "address"
        }
      ],
      "name": "withdrawnDividendOf",
      "outputs": [
        {
          "internalType": "uint256",
          "name": "",
          "type": "uint256"
        }
      ],
      "stateMutability": "view",
      "type": "function"
    },
    {
      "stateMutability": "payable",
      "type": "receive"
    },
    {
      "inputs": [
        {
          "internalType": "uint256",
          "name": "_amount",
          "type": "uint256"
        }
      ],
      "name": "deposit",
      "outputs": [],
      "stateMutability": "nonpayable",
      "type": "function"
    },
    {
      "inputs": [
        {
          "internalType": "uint256",
          "name": "_amount",
          "type": "uint256"
        }
      ],
      "name": "withdraw",
      "outputs": [],
      "stateMutability": "nonpayable",
      "type": "function"
    },
    {
      "inputs": [],
      "name": "withdrawAll",
      "outputs": [],
      "stateMutability": "nonpayable",
      "type": "function"
    },
    {
      "inputs": [],
      "name": "claim",
      "outputs": [],
      "stateMutability": "nonpayable",
      "type": "function"
    },
    {
      "inputs": [
        {
          "internalType": "uint256",
          "name": "minOutput",
          "type": "uint256"
        }
      ],
      "name": "compound",
      "outputs": [],
      "stateMutability": "nonpayable",
      "type": "function"
    },
    {
      "inputs": [
        {
          "internalType": "uint256",
          "name": "rewardAmount",
          "type": "uint256"
        }
      ],
      "name": "getExpectedCompoundOutputByEthAmount",
      "outputs": [
        {
          "internalType": "uint256",
          "name": "",
          "type": "uint256"
        }
      ],
      "stateMutability": "view",
      "type": "function"
    },
    {
      "inputs": [
        {
          "internalType": "address",
          "name": "wallet",
          "type": "address"
        }
      ],
      "name": "getExpectedCompoundOutputByWallet",
      "outputs": [
        {
          "internalType": "uint256",
          "name": "",
          "type": "uint256"
        }
      ],
      "stateMutability": "view",
      "type": "function"
    }
  ],
  "bytecode": "0x60c0604052600a600960146101000a81548160ff021916908360ff160217905550600a600960156101000a81548160ff021916908360ff1602179055506005600960166101000a81548160ff021916908360ff16021790555034801562000064575f80fd5b506040516200407f3803806200407f83398181016040528101906200008a9190620002f2565b60015f819055505f73ffffffffffffffffffffffffffffffffffffffff168273ffffffffffffffffffffffffffffffffffffffff160362000102576040517f08c379a0000000000000000000000000000000000000000000000000000000008152600401620000f990620003bb565b60405180910390fd5b8173ffffffffffffffffffffffffffffffffffffffff1660808173ffffffffffffffffffffffffffffffffffffffff1681525050620151808162000147919062000408565b6008819055505f600146036200017457737a250d5630b4cf539739df2c5dacb4c659f2488d9050620001d8565b600546036200019a57737a250d5630b4cf539739df2c5dacb4c659f2488d9050620001d7565b6040517f08c379a0000000000000000000000000000000000000000000000000000000008152600401620001ce90620004a0565b60405180910390fd5b5b8073ffffffffffffffffffffffffffffffffffffffff1660a08173ffffffffffffffffffffffffffffffffffffffff16815250503360095f6101000a81548173ffffffffffffffffffffffffffffffffffffffff021916908373ffffffffffffffffffffffffffffffffffffffff160217905550505050620004c0565b5f80fd5b5f73ffffffffffffffffffffffffffffffffffffffff82169050919050565b5f620002848262000259565b9050919050565b620002968162000278565b8114620002a1575f80fd5b50565b5f81519050620002b4816200028b565b92915050565b5f819050919050565b620002ce81620002ba565b8114620002d9575f80fd5b50565b5f81519050620002ec81620002c3565b92915050565b5f80604083850312156200030b576200030a62000255565b5b5f6200031a85828601620002a4565b92505060206200032d85828601620002dc565b9150509250929050565b5f82825260208201905092915050565b7f746f6b656e20616464726573732063616e6e6f742062652030206164647265735f8201527f7300000000000000000000000000000000000000000000000000000000000000602082015250565b5f620003a360218362000337565b9150620003b08262000347565b604082019050919050565b5f6020820190508181035f830152620003d48162000395565b9050919050565b7f4e487b71000000000000000000000000000000000000000000000000000000005f52601160045260245ffd5b5f6200041482620002ba565b91506200042183620002ba565b92508282026200043181620002ba565b915082820484148315176200044b576200044a620003db565b5b5092915050565b7f436861696e206e6f7420636f6e666967757265640000000000000000000000005f82015250565b5f6200048860148362000337565b9150620004958262000452565b602082019050919050565b5f6020820190508181035f830152620004b9816200047a565b9050919050565b60805160a051613b1f620005605f395f81816107c3015281816108410152818161098b015281816113020152818161144c01528181612445015261258e01525f818161091b01528181610cee015281816113dc0152818161165e015281816118cb0152818161197101528181611c6a01528181611d0401528181611dac01528181611f250152818161251f0152818161266e01526127fa0152613b1f5ff3fe6080604052600436106101c5575f3560e01c80636a474002116100f6578063a913a5f711610094578063ad7a672f11610063578063ad7a672f14610634578063b6b55f251461065e578063fbcbc0f114610686578063fc0c546a146106c5576101d4565b8063a913a5f714610558578063aa5f7e2614610594578063aafd847a146105bc578063ab6ddfa8146105f8576101d4565b8063853828b6116100d0578063853828b6146104a057806385a6b3ae146104b657806391b89fba146104e0578063a8b9d2401461051c576101d4565b80636a4740021461042457806371778e7d1461043a5780637c174e8714610464576101d4565b80632e1a7d4d11610163578063448883d71161013d578063448883d71461037e5780634e71d92d146103a85780635b35f9c9146103be5780636843cd84146103e8576101d4565b80632e1a7d4d1461030257806330bb4cff1461032a5780633e3f552714610354576101d4565b806308f2f2331161019f57806308f2f2331461023657806309bc773f146102725780631694505e1461029c57806327ce0147146102c6576101d4565b806303c83302146101d857806304554443146101e25780630758d9241461020c576101d4565b366101d4576101d26106ef565b005b5f80fd5b6101e06106ef565b005b3480156101ed575f80fd5b506101f66107bb565b6040516102039190612d18565b60405180910390f35b348015610217575f80fd5b506102206107c1565b60405161022d9190612dab565b60405180910390f35b348015610241575f80fd5b5061025c60048036038101906102579190612e10565b6107e5565b6040516102699190612d18565b60405180910390f35b34801561027d575f80fd5b50610286610a4e565b6040516102939190612e56565b60405180910390f35b3480156102a7575f80fd5b506102b0610a61565b6040516102bd9190612e8f565b60405180910390f35b3480156102d1575f80fd5b506102ec60048036038101906102e79190612e10565b610a86565b6040516102f99190612d18565b60405180910390f35b34801561030d575f80fd5b5061032860048036038101906103239190612ed2565b610b5b565b005b348015610335575f80fd5b5061033e610e95565b60405161034b9190612d18565b60405180910390f35b34801561035f575f80fd5b50610368610e9e565b6040516103759190612e56565b60405180910390f35b348015610389575f80fd5b50610392610eb1565b60405161039f9190612e56565b60405180910390f35b3480156103b3575f80fd5b506103bc610ec4565b005b3480156103c9575f80fd5b506103d2611232565b6040516103df9190612f0c565b60405180910390f35b3480156103f3575f80fd5b5061040e60048036038101906104099190612e10565b611257565b60405161041b9190612d18565b60405180910390f35b34801561042f575f80fd5b5061043861129d565b005b348015610445575f80fd5b5061044e6112a9565b60405161045b9190612d18565b60405180910390f35b34801561046f575f80fd5b5061048a60048036038101906104859190612ed2565b6112b2565b6040516104979190612d18565b60405180910390f35b3480156104ab575f80fd5b506104b461150e565b005b3480156104c1575f80fd5b506104ca61179c565b6040516104d79190612d18565b60405180910390f35b3480156104eb575f80fd5b5061050660048036038101906105019190612e10565b6117a2565b6040516105139190612d18565b60405180910390f35b348015610527575f80fd5b50610542600480360381019061053d9190612e10565b6117b3565b60405161054f9190612d18565b60405180910390f35b348015610563575f80fd5b5061057e60048036038101906105799190612e10565b611813565b60405161058b9190612d18565b60405180910390f35b34801561059f575f80fd5b506105ba60048036038101906105b59190612ed2565b611828565b005b3480156105c7575f80fd5b506105e260048036038101906105dd9190612e10565b611a76565b6040516105ef9190612d18565b60405180910390f35b348015610603575f80fd5b5061061e60048036038101906106199190612e10565b611abc565b60405161062b9190612d18565b60405180910390f35b34801561063f575f80fd5b50610648611ad1565b6040516106559190612d18565b60405180910390f35b348015610669575f80fd5b50610684600480360381019061067f9190612ed2565b611ad7565b005b348015610691575f80fd5b506106ac60048036038101906106a79190612e10565b611ebf565b6040516106bc9493929190612f25565b60405180910390f35b3480156106d0575f80fd5b506106d9611f23565b6040516106e69190612f88565b60405180910390f35b5f6005541180156106ff57505f34115b156107b95761074960055461072e70010000000000000000000000000000000034611f4790919063ffffffff16565b6107389190612ffb565b600154611fbe90919063ffffffff16565b6001819055503373ffffffffffffffffffffffffffffffffffffffff167fa493a9229478c3fcd73f66d2cdeb7f94fd0f341da924d1054236d78454116511346040516107959190612d18565b60405180910390a26107b234600654611fbe90919063ffffffff16565b6006819055505b565b60085481565b7f000000000000000000000000000000000000000000000000000000000000000081565b5f806107f0836117b3565b90505f600267ffffffffffffffff81111561080e5761080d61302b565b5b60405190808252806020026020018201604052801561083c5781602001602082028036833780820191505090505b5090507f000000000000000000000000000000000000000000000000000000000000000073ffffffffffffffffffffffffffffffffffffffff1663ad5c46486040518163ffffffff1660e01b8152600401602060405180830381865afa1580156108a8573d5f803e3d5ffd5b505050506040513d601f19601f820116820180604052508101906108cc919061306c565b815f815181106108df576108de613097565b5b602002602001019073ffffffffffffffffffffffffffffffffffffffff16908173ffffffffffffffffffffffffffffffffffffffff16815250507f00000000000000000000000000000000000000000000000000000000000000008160018151811061094e5761094d613097565b5b602002602001019073ffffffffffffffffffffffffffffffffffffffff16908173ffffffffffffffffffffffffffffffffffffffff16815250505f7f000000000000000000000000000000000000000000000000000000000000000073ffffffffffffffffffffffffffffffffffffffff1663d06ca61f84846040518363ffffffff1660e01b81526004016109e492919061317b565b5f60405180830381865afa1580156109fe573d5f803e3d5ffd5b505050506040513d5f823e3d601f19601f82011682018060405250810190610a2691906132e0565b905080600181518110610a3c57610a3b613097565b5b60200260200101519350505050919050565b600960149054906101000a900460ff1681565b600a5f9054906101000a900473ffffffffffffffffffffffffffffffffffffffff1681565b5f700100000000000000000000000000000000610b4a610b4560025f8673ffffffffffffffffffffffffffffffffffffffff1673ffffffffffffffffffffffffffffffffffffffff1681526020019081526020015f2054610b37610b3260045f8973ffffffffffffffffffffffffffffffffffffffff1673ffffffffffffffffffffffffffffffffffffffff1681526020019081526020015f2054600154611f4790919063ffffffff16565b61201b565b61203590919063ffffffff16565b61207c565b610b549190612ffb565b9050919050565b60025f5403610b9f576040517f08c379a0000000000000000000000000000000000000000000000000000000008152600401610b9690613381565b60405180910390fd5b60025f819055505f8111610be8576040517f08c379a0000000000000000000000000000000000000000000000000000000008152600401610bdf906133e9565b60405180910390fd5b5f60045f3373ffffffffffffffffffffffffffffffffffffffff1673ffffffffffffffffffffffffffffffffffffffff1681526020019081526020015f2054905080821115610c6c576040517f08c379a0000000000000000000000000000000000000000000000000000000008152600401610c6390613451565b60405180910390fd5b4260075f3373ffffffffffffffffffffffffffffffffffffffff1673ffffffffffffffffffffffffffffffffffffffff1681526020019081526020015f20541115610cec576040517f08c379a0000000000000000000000000000000000000000000000000000000008152600401610ce3906134b9565b60405180910390fd5b7f000000000000000000000000000000000000000000000000000000000000000073ffffffffffffffffffffffffffffffffffffffff1663a9059cbb33846040518363ffffffff1660e01b8152600401610d479291906134d7565b6020604051808303815f875af1158015610d63573d5f803e3d5ffd5b505050506040513d601f19601f82011682018060405250810190610d879190613533565b50610d9d338383610d98919061355e565b612091565b5f811115610df95760085442610db39190613591565b60075f3373ffffffffffffffffffffffffffffffffffffffff1673ffffffffffffffffffffffffffffffffffffffff1681526020019081526020015f2081905550610e3c565b5f60075f3373ffffffffffffffffffffffffffffffffffffffff1673ffffffffffffffffffffffffffffffffffffffff1681526020019081526020015f20819055505b3373ffffffffffffffffffffffffffffffffffffffff167f884edad9ce6fa2440d8a54cc123490eb96d2768479d49ff9c7366125a942436483604051610e829190612d18565b60405180910390a25060015f8190555050565b5f600654905090565b600960169054906101000a900460ff1681565b600960159054906101000a900460ff1681565b60025f5403610f08576040517f08c379a0000000000000000000000000000000000000000000000000000000008152600401610eff90613381565b60405180910390fd5b60025f819055505f80610f1a336117b3565b90505f8111156111cd57610f748160035f3373ffffffffffffffffffffffffffffffffffffffff1673ffffffffffffffffffffffffffffffffffffffff1681526020019081526020015f2054611fbe90919063ffffffff16565b60035f3373ffffffffffffffffffffffffffffffffffffffff1673ffffffffffffffffffffffffffffffffffffffff1681526020019081526020015f20819055503373ffffffffffffffffffffffffffffffffffffffff167fee503bee2bb6a87e57bc57db795f98137327401a0e7b7ce42e37926cc1a9ca4d82604051610ffb9190612d18565b60405180910390a25f6064600960149054906101000a900460ff1660ff168361102491906135c4565b61102e9190612ffb565b90505f3373ffffffffffffffffffffffffffffffffffffffff168284611054919061355e565b60405161106090613632565b5f6040518083038185875af1925050503d805f811461109a576040519150601f19603f3d011682016040523d82523d5f602084013e61109f565b606091505b505090505f60095f9054906101000a900473ffffffffffffffffffffffffffffffffffffffff1673ffffffffffffffffffffffffffffffffffffffff16836040516110e990613632565b5f6040518083038185875af1925050503d805f8114611123576040519150601f19603f3d011682016040523d82523d5f602084013e611128565b606091505b50509050816111c6576111818460035f3373ffffffffffffffffffffffffffffffffffffffff1673ffffffffffffffffffffffffffffffffffffffff1681526020019081526020015f20546120ab90919063ffffffff16565b60035f3373ffffffffffffffffffffffffffffffffffffffff1673ffffffffffffffffffffffffffffffffffffffff1681526020019081526020015f20819055505f94505b8394505050505b5f821115611227575f15153373ffffffffffffffffffffffffffffffffffffffff167fa2c38e2d2fb7e3e1912d937fd1ca11ed6d51864dee4cfa7a7bf02becd7acf0928460405161121e9190612d18565b60405180910390a35b505060015f81905550565b60095f9054906101000a900473ffffffffffffffffffffffffffffffffffffffff1681565b5f60045f8373ffffffffffffffffffffffffffffffffffffffff1673ffffffffffffffffffffffffffffffffffffffff1681526020019081526020015f20549050919050565b6112a6336120f4565b50565b5f600554905090565b5f80600267ffffffffffffffff8111156112cf576112ce61302b565b5b6040519080825280602002602001820160405280156112fd5781602001602082028036833780820191505090505b5090507f000000000000000000000000000000000000000000000000000000000000000073ffffffffffffffffffffffffffffffffffffffff1663ad5c46486040518163ffffffff1660e01b8152600401602060405180830381865afa158015611369573d5f803e3d5ffd5b505050506040513d601f19601f8201168201806040525081019061138d919061306c565b815f815181106113a05761139f613097565b5b602002602001019073ffffffffffffffffffffffffffffffffffffffff16908173ffffffffffffffffffffffffffffffffffffffff16815250507f00000000000000000000000000000000000000000000000000000000000000008160018151811061140f5761140e613097565b5b602002602001019073ffffffffffffffffffffffffffffffffffffffff16908173ffffffffffffffffffffffffffffffffffffffff16815250505f7f000000000000000000000000000000000000000000000000000000000000000073ffffffffffffffffffffffffffffffffffffffff1663d06ca61f85846040518363ffffffff1660e01b81526004016114a592919061317b565b5f60405180830381865afa1580156114bf573d5f803e3d5ffd5b505050506040513d5f823e3d601f19601f820116820180604052508101906114e791906132e0565b9050806001815181106114fd576114fc613097565b5b602002602001015192505050919050565b60025f5403611552576040517f08c379a000000000000000000000000000000000000000000000000000000000815260040161154990613381565b60405180910390fd5b60025f819055505f60045f3373ffffffffffffffffffffffffffffffffffffffff1673ffffffffffffffffffffffffffffffffffffffff1681526020019081526020015f205490505f81116115dc576040517f08c379a00000000000000000000000000000000000000000000000000000000081526004016115d390613690565b60405180910390fd5b4260075f3373ffffffffffffffffffffffffffffffffffffffff1673ffffffffffffffffffffffffffffffffffffffff1681526020019081526020015f2054111561165c576040517f08c379a0000000000000000000000000000000000000000000000000000000008152600401611653906134b9565b60405180910390fd5b7f000000000000000000000000000000000000000000000000000000000000000073ffffffffffffffffffffffffffffffffffffffff1663a9059cbb33836040518363ffffffff1660e01b81526004016116b79291906134d7565b6020604051808303815f875af11580156116d3573d5f803e3d5ffd5b505050506040513d601f19601f820116820180604052508101906116f79190613533565b50611702335f612091565b5f60075f3373ffffffffffffffffffffffffffffffffffffffff1673ffffffffffffffffffffffffffffffffffffffff1681526020019081526020015f20819055503373ffffffffffffffffffffffffffffffffffffffff167f884edad9ce6fa2440d8a54cc123490eb96d2768479d49ff9c7366125a94243648260405161178a9190612d18565b60405180910390a25060015f81905550565b60065481565b5f6117ac826117b3565b9050919050565b5f61180c60035f8473ffffffffffffffffffffffffffffffffffffffff1673ffffffffffffffffffffffffffffffffffffffff1681526020019081526020015f20546117fe84610a86565b6120ab90919063ffffffff16565b9050919050565b6007602052805f5260405f205f915090505481565b60025f540361186c576040517f08c379a000000000000000000000000000000000000000000000000000000000815260040161186390613381565b60405180910390fd5b60025f819055505f60045f3373ffffffffffffffffffffffffffffffffffffffff1673ffffffffffffffffffffffffffffffffffffffff1681526020019081526020015f205490505f6118be33612304565b90505f811115611a2f575f7f000000000000000000000000000000000000000000000000000000000000000073ffffffffffffffffffffffffffffffffffffffff166370a08231306040518263ffffffff1660e01b81526004016119229190612f0c565b602060405180830381865afa15801561193d573d5f803e3d5ffd5b505050506040513d601f19601f8201168201806040525081019061196191906136ae565b905061196d82856123f6565b5f817f000000000000000000000000000000000000000000000000000000000000000073ffffffffffffffffffffffffffffffffffffffff166370a08231306040518263ffffffff1660e01b81526004016119c89190612f0c565b602060405180830381865afa1580156119e3573d5f803e3d5ffd5b505050506040513d601f19601f82011682018060405250810190611a0791906136ae565b611a11919061355e565b9050611a28338286611a239190613591565b612091565b5050611a6a565b6040517f08c379a0000000000000000000000000000000000000000000000000000000008152600401611a6190613723565b60405180910390fd5b505060015f8190555050565b5f60035f8373ffffffffffffffffffffffffffffffffffffffff1673ffffffffffffffffffffffffffffffffffffffff1681526020019081526020015f20549050919050565b6004602052805f5260405f205f915090505481565b60055481565b60025f5403611b1b576040517f08c379a0000000000000000000000000000000000000000000000000000000008152600401611b1290613381565b60405180910390fd5b60025f819055505f8111611b64576040517f08c379a0000000000000000000000000000000000000000000000000000000008152600401611b5b906133e9565b60405180910390fd5b5f60075f3373ffffffffffffffffffffffffffffffffffffffff1673ffffffffffffffffffffffffffffffffffffffff1681526020019081526020015f205403611bf85760085442611bb69190613591565b60075f3373ffffffffffffffffffffffffffffffffffffffff1673ffffffffffffffffffffffffffffffffffffffff1681526020019081526020015f20819055505b5f60045f3373ffffffffffffffffffffffffffffffffffffffff1673ffffffffffffffffffffffffffffffffffffffff1681526020019081526020015f205490505f806064600960149054906101000a900460ff1660ff1685611c5b91906135c4565b611c659190612ffb565b90505f7f000000000000000000000000000000000000000000000000000000000000000073ffffffffffffffffffffffffffffffffffffffff166370a08231306040518263ffffffff1660e01b8152600401611cc19190612f0c565b602060405180830381865afa158015611cdc573d5f803e3d5ffd5b505050506040513d601f19601f82011682018060405250810190611d0091906136ae565b90507f000000000000000000000000000000000000000000000000000000000000000073ffffffffffffffffffffffffffffffffffffffff166323b872dd3330886040518463ffffffff1660e01b8152600401611d5f93929190613741565b6020604051808303815f875af1158015611d7b573d5f803e3d5ffd5b505050506040513d601f19601f82011682018060405250810190611d9f9190613533565b50611da98261261f565b807f000000000000000000000000000000000000000000000000000000000000000073ffffffffffffffffffffffffffffffffffffffff166370a08231306040518263ffffffff1660e01b8152600401611e039190612f0c565b602060405180830381865afa158015611e1e573d5f803e3d5ffd5b505050506040513d601f19601f82011682018060405250810190611e4291906136ae565b611e4c919061355e565b9250611e63338486611e5e9190613591565b612091565b3373ffffffffffffffffffffffffffffffffffffffff167fe1fffcc4923d04b559f4d29a8bfc6cda04eb5b0d3c460751c2402c5c5cc9109c86604051611ea99190612d18565b60405180910390a25050505060015f8190555050565b5f805f80849350611ecf846117b3565b9250611eda84610a86565b915060045f8573ffffffffffffffffffffffffffffffffffffffff1673ffffffffffffffffffffffffffffffffffffffff1681526020019081526020015f205490509193509193565b7f000000000000000000000000000000000000000000000000000000000000000081565b5f808303611f57575f9050611fb8565b5f8284611f6491906135c4565b9050828482611f739190612ffb565b14611fb3576040517f08c379a0000000000000000000000000000000000000000000000000000000008152600401611faa906137e6565b60405180910390fd5b809150505b92915050565b5f808284611fcc9190613591565b905083811015612011576040517f08c379a00000000000000000000000000000000000000000000000000000000081526004016120089061384e565b60405180910390fd5b8091505092915050565b5f808290505f81121561202c575f80fd5b80915050919050565b5f8082846120439190613875565b90505f83121580156120555750838112155b8061206a57505f8312801561206957508381125b5b612072575f80fd5b8091505092915050565b5f80821215612089575f80fd5b819050919050565b61209b8282612969565b6120a6826001612a7a565b505050565b5f6120ec83836040518060400160405280601e81526020017f536166654d6174683a207375627472616374696f6e206f766572666c6f770000815250612af5565b905092915050565b5f806120ff836117b3565b90505f8111156122fa576121598160035f8673ffffffffffffffffffffffffffffffffffffffff1673ffffffffffffffffffffffffffffffffffffffff1681526020019081526020015f2054611fbe90919063ffffffff16565b60035f8573ffffffffffffffffffffffffffffffffffffffff1673ffffffffffffffffffffffffffffffffffffffff1681526020019081526020015f20819055508273ffffffffffffffffffffffffffffffffffffffff167fee503bee2bb6a87e57bc57db795f98137327401a0e7b7ce42e37926cc1a9ca4d826040516121e09190612d18565b60405180910390a25f8373ffffffffffffffffffffffffffffffffffffffff168260405161220d90613632565b5f6040518083038185875af1925050503d805f8114612247576040519150601f19603f3d011682016040523d82523d5f602084013e61224c565b606091505b50509050806122f0576122a58260035f8773ffffffffffffffffffffffffffffffffffffffff1673ffffffffffffffffffffffffffffffffffffffff1681526020019081526020015f20546120ab90919063ffffffff16565b60035f8673ffffffffffffffffffffffffffffffffffffffff1673ffffffffffffffffffffffffffffffffffffffff1681526020019081526020015f20819055505f925050506122ff565b81925050506122ff565b5f9150505b919050565b5f61230e826117b3565b90505f8111156123f1578060035f8473ffffffffffffffffffffffffffffffffffffffff1673ffffffffffffffffffffffffffffffffffffffff1681526020019081526020015f20546123619190613591565b60035f8473ffffffffffffffffffffffffffffffffffffffff1673ffffffffffffffffffffffffffffffffffffffff1681526020019081526020015f20819055508173ffffffffffffffffffffffffffffffffffffffff167fee503bee2bb6a87e57bc57db795f98137327401a0e7b7ce42e37926cc1a9ca4d826040516123e89190612d18565b60405180910390a25b919050565b5f600267ffffffffffffffff8111156124125761241161302b565b5b6040519080825280602002602001820160405280156124405781602001602082028036833780820191505090505b5090507f000000000000000000000000000000000000000000000000000000000000000073ffffffffffffffffffffffffffffffffffffffff1663ad5c46486040518163ffffffff1660e01b8152600401602060405180830381865afa1580156124ac573d5f803e3d5ffd5b505050506040513d601f19601f820116820180604052508101906124d0919061306c565b815f815181106124e3576124e2613097565b5b602002602001019073ffffffffffffffffffffffffffffffffffffffff16908173ffffffffffffffffffffffffffffffffffffffff16815250507f00000000000000000000000000000000000000000000000000000000000000008160018151811061255257612551613097565b5b602002602001019073ffffffffffffffffffffffffffffffffffffffff16908173ffffffffffffffffffffffffffffffffffffffff16815250507f000000000000000000000000000000000000000000000000000000000000000073ffffffffffffffffffffffffffffffffffffffff1663b6f9de9584848430426040518663ffffffff1660e01b81526004016125ec94939291906138b6565b5f604051808303818588803b158015612603575f80fd5b505af1158015612615573d5f803e3d5ffd5b5050505050505050565b5f600267ffffffffffffffff81111561263b5761263a61302b565b5b6040519080825280602002602001820160405280156126695781602001602082028036833780820191505090505b5090507f0000000000000000000000000000000000000000000000000000000000000000815f815181106126a05761269f613097565b5b602002602001019073ffffffffffffffffffffffffffffffffffffffff16908173ffffffffffffffffffffffffffffffffffffffff1681525050600a5f9054906101000a900473ffffffffffffffffffffffffffffffffffffffff1673ffffffffffffffffffffffffffffffffffffffff1663ad5c46486040518163ffffffff1660e01b8152600401602060405180830381865afa158015612744573d5f803e3d5ffd5b505050506040513d601f19601f82011682018060405250810190612768919061306c565b8160018151811061277c5761277b613097565b5b602002602001019073ffffffffffffffffffffffffffffffffffffffff16908173ffffffffffffffffffffffffffffffffffffffff16815250505f82116127f8576040517f08c379a00000000000000000000000000000000000000000000000000000000081526004016127ef90613970565b60405180910390fd5b7f000000000000000000000000000000000000000000000000000000000000000073ffffffffffffffffffffffffffffffffffffffff1663095ea7b3600a5f9054906101000a900473ffffffffffffffffffffffffffffffffffffffff16846040518363ffffffff1660e01b81526004016128749291906134d7565b6020604051808303815f875af1158015612890573d5f803e3d5ffd5b505050506040513d601f19601f820116820180604052508101906128b49190613533565b50600a5f9054906101000a900473ffffffffffffffffffffffffffffffffffffffff1673ffffffffffffffffffffffffffffffffffffffff1663791ac947835f8460095f9054906101000a900473ffffffffffffffffffffffffffffffffffffffff16426040518663ffffffff1660e01b81526004016129389594939291906139c7565b5f604051808303815f87803b15801561294f575f80fd5b505af1158015612961573d5f803e3d5ffd5b505050505050565b5f60045f8473ffffffffffffffffffffffffffffffffffffffff1673ffffffffffffffffffffffffffffffffffffffff1681526020019081526020015f205490508160045f8573ffffffffffffffffffffffffffffffffffffffff1673ffffffffffffffffffffffffffffffffffffffff1681526020019081526020015f208190555080821115612a32575f612a0882846120ab90919063ffffffff16565b9050612a148482612b57565b8060055f828254612a259190613591565b9250508190555050612a75565b80821015612a74575f612a4e83836120ab90919063ffffffff16565b9050612a5a8482612c08565b8060055f828254612a6b919061355e565b92505081905550505b5b505050565b5f80612a85846120f4565b90505f811115612aea578215158473ffffffffffffffffffffffffffffffffffffffff167fa2c38e2d2fb7e3e1912d937fd1ca11ed6d51864dee4cfa7a7bf02becd7acf09283604051612ad89190612d18565b60405180910390a36001915050612aef565b5f9150505b92915050565b5f838311158290612b3c576040517f08c379a0000000000000000000000000000000000000000000000000000000008152600401612b339190613a89565b60405180910390fd5b505f8385612b4a919061355e565b9050809150509392505050565b612bc3612b77612b7283600154611f4790919063ffffffff16565b61201b565b60025f8573ffffffffffffffffffffffffffffffffffffffff1673ffffffffffffffffffffffffffffffffffffffff1681526020019081526020015f2054612cb990919063ffffffff16565b60025f8473ffffffffffffffffffffffffffffffffffffffff1673ffffffffffffffffffffffffffffffffffffffff1681526020019081526020015f20819055505050565b612c74612c28612c2383600154611f4790919063ffffffff16565b61201b565b60025f8573ffffffffffffffffffffffffffffffffffffffff1673ffffffffffffffffffffffffffffffffffffffff1681526020019081526020015f205461203590919063ffffffff16565b60025f8473ffffffffffffffffffffffffffffffffffffffff1673ffffffffffffffffffffffffffffffffffffffff1681526020019081526020015f20819055505050565b5f808284612cc79190613aa9565b90505f8312158015612cd95750838113155b80612cee57505f83128015612ced57508381135b5b612cf6575f80fd5b8091505092915050565b5f819050919050565b612d1281612d00565b82525050565b5f602082019050612d2b5f830184612d09565b92915050565b5f73ffffffffffffffffffffffffffffffffffffffff82169050919050565b5f819050919050565b5f612d73612d6e612d6984612d31565b612d50565b612d31565b9050919050565b5f612d8482612d59565b9050919050565b5f612d9582612d7a565b9050919050565b612da581612d8b565b82525050565b5f602082019050612dbe5f830184612d9c565b92915050565b5f604051905090565b5f80fd5b5f80fd5b5f612ddf82612d31565b9050919050565b612def81612dd5565b8114612df9575f80fd5b50565b5f81359050612e0a81612de6565b92915050565b5f60208284031215612e2557612e24612dcd565b5b5f612e3284828501612dfc565b91505092915050565b5f60ff82169050919050565b612e5081612e3b565b82525050565b5f602082019050612e695f830184612e47565b92915050565b5f612e7982612d7a565b9050919050565b612e8981612e6f565b82525050565b5f602082019050612ea25f830184612e80565b92915050565b612eb181612d00565b8114612ebb575f80fd5b50565b5f81359050612ecc81612ea8565b92915050565b5f60208284031215612ee757612ee6612dcd565b5b5f612ef484828501612ebe565b91505092915050565b612f0681612dd5565b82525050565b5f602082019050612f1f5f830184612efd565b92915050565b5f608082019050612f385f830187612efd565b612f456020830186612d09565b612f526040830185612d09565b612f5f6060830184612d09565b95945050505050565b5f612f7282612d7a565b9050919050565b612f8281612f68565b82525050565b5f602082019050612f9b5f830184612f79565b92915050565b7f4e487b71000000000000000000000000000000000000000000000000000000005f52601260045260245ffd5b7f4e487b71000000000000000000000000000000000000000000000000000000005f52601160045260245ffd5b5f61300582612d00565b915061301083612d00565b9250826130205761301f612fa1565b5b828204905092915050565b7f4e487b71000000000000000000000000000000000000000000000000000000005f52604160045260245ffd5b5f8151905061306681612de6565b92915050565b5f6020828403121561308157613080612dcd565b5b5f61308e84828501613058565b91505092915050565b7f4e487b71000000000000000000000000000000000000000000000000000000005f52603260045260245ffd5b5f81519050919050565b5f82825260208201905092915050565b5f819050602082019050919050565b6130f681612dd5565b82525050565b5f61310783836130ed565b60208301905092915050565b5f602082019050919050565b5f613129826130c4565b61313381856130ce565b935061313e836130de565b805f5b8381101561316e57815161315588826130fc565b975061316083613113565b925050600181019050613141565b5085935050505092915050565b5f60408201905061318e5f830185612d09565b81810360208301526131a0818461311f565b90509392505050565b5f80fd5b5f601f19601f8301169050919050565b6131c6826131ad565b810181811067ffffffffffffffff821117156131e5576131e461302b565b5b80604052505050565b5f6131f7612dc4565b905061320382826131bd565b919050565b5f67ffffffffffffffff8211156132225761322161302b565b5b602082029050602081019050919050565b5f80fd5b5f8151905061324581612ea8565b92915050565b5f61325d61325884613208565b6131ee565b905080838252602082019050602084028301858111156132805761327f613233565b5b835b818110156132a957806132958882613237565b845260208401935050602081019050613282565b5050509392505050565b5f82601f8301126132c7576132c66131a9565b5b81516132d784826020860161324b565b91505092915050565b5f602082840312156132f5576132f4612dcd565b5b5f82015167ffffffffffffffff81111561331257613311612dd1565b5b61331e848285016132b3565b91505092915050565b5f82825260208201905092915050565b7f5265656e7472616e637947756172643a207265656e7472616e742063616c6c005f82015250565b5f61336b601f83613327565b915061337682613337565b602082019050919050565b5f6020820190508181035f8301526133988161335f565b9050919050565b7f5a65726f20416d6f756e740000000000000000000000000000000000000000005f82015250565b5f6133d3600b83613327565b91506133de8261339f565b602082019050919050565b5f6020820190508181035f830152613400816133c7565b9050919050565b7f4e6f7420656e6f75676820746f6b656e730000000000000000000000000000005f82015250565b5f61343b601183613327565b915061344682613407565b602082019050919050565b5f6020820190508181035f8301526134688161342f565b9050919050565b7f4d6179206e6f74207769746864726177206561726c79000000000000000000005f82015250565b5f6134a3601683613327565b91506134ae8261346f565b602082019050919050565b5f6020820190508181035f8301526134d081613497565b9050919050565b5f6040820190506134ea5f830185612efd565b6134f76020830184612d09565b9392505050565b5f8115159050919050565b613512816134fe565b811461351c575f80fd5b50565b5f8151905061352d81613509565b92915050565b5f6020828403121561354857613547612dcd565b5b5f6135558482850161351f565b91505092915050565b5f61356882612d00565b915061357383612d00565b925082820390508181111561358b5761358a612fce565b5b92915050565b5f61359b82612d00565b91506135a683612d00565b92508282019050808211156135be576135bd612fce565b5b92915050565b5f6135ce82612d00565b91506135d983612d00565b92508282026135e781612d00565b915082820484148315176135fe576135fd612fce565b5b5092915050565b5f81905092915050565b50565b5f61361d5f83613605565b91506136288261360f565b5f82019050919050565b5f61363c82613612565b9150819050919050565b7f4e6f74206120686f6c64657200000000000000000000000000000000000000005f82015250565b5f61367a600c83613327565b915061368582613646565b602082019050919050565b5f6020820190508181035f8301526136a78161366e565b9050919050565b5f602082840312156136c3576136c2612dcd565b5b5f6136d084828501613237565b91505092915050565b7f4e6f2072657761726473000000000000000000000000000000000000000000005f82015250565b5f61370d600a83613327565b9150613718826136d9565b602082019050919050565b5f6020820190508181035f83015261373a81613701565b9050919050565b5f6060820190506137545f830186612efd565b6137616020830185612efd565b61376e6040830184612d09565b949350505050565b7f536166654d6174683a206d756c7469706c69636174696f6e206f766572666c6f5f8201527f7700000000000000000000000000000000000000000000000000000000000000602082015250565b5f6137d0602183613327565b91506137db82613776565b604082019050919050565b5f6020820190508181035f8301526137fd816137c4565b9050919050565b7f536166654d6174683a206164646974696f6e206f766572666c6f7700000000005f82015250565b5f613838601b83613327565b915061384382613804565b602082019050919050565b5f6020820190508181035f8301526138658161382c565b9050919050565b5f819050919050565b5f61387f8261386c565b915061388a8361386c565b92508282019050828112155f8312168382125f8412151617156138b0576138af612fce565b5b92915050565b5f6080820190506138c95f830187612d09565b81810360208301526138db818661311f565b90506138ea6040830185612efd565b6138f76060830184612d09565b95945050505050565b7f5374616b696e673a20546f6b656e20616d6f756e74206c657373207468656e205f8201527f3020666f7220746f6b656e207377617000000000000000000000000000000000602082015250565b5f61395a603083613327565b915061396582613900565b604082019050919050565b5f6020820190508181035f8301526139878161394e565b9050919050565b5f819050919050565b5f6139b16139ac6139a78461398e565b612d50565b612d00565b9050919050565b6139c181613997565b82525050565b5f60a0820190506139da5f830188612d09565b6139e760208301876139b8565b81810360408301526139f9818661311f565b9050613a086060830185612efd565b613a156080830184612d09565b9695505050505050565b5f81519050919050565b5f5b83811015613a46578082015181840152602081019050613a2b565b5f8484015250505050565b5f613a5b82613a1f565b613a658185613327565b9350613a75818560208601613a29565b613a7e816131ad565b840191505092915050565b5f6020820190508181035f830152613aa18184613a51565b905092915050565b5f613ab38261386c565b9150613abe8361386c565b925082820390508181125f8412168282135f851215161715613ae357613ae2612fce565b5b9291505056fea264697066735822122025d28c15bad677b083002008e7d12f450bb79257c94af8919527583876d9472e64736f6c63430008140033",
  "immutableReferences": {
    "3216": [
      {
        "length": 32,
        "start": 2331
      },
      {
        "length": 32,
        "start": 3310
      },
      {
        "length": 32,
        "start": 5084
      },
      {
        "length": 32,
        "start": 5726
      },
      {
        "length": 32,
        "start": 6347
      },
      {
        "length": 32,
        "start": 6513
      },
      {
        "length": 32,
        "start": 7274
      },
      {
        "length": 32,
        "start": 7428
      },
      {
        "length": 32,
        "start": 7596
      },
      {
        "length": 32,
        "start": 7973
      },
      {
        "length": 32,
        "start": 9503
      },
      {
        "length": 32,
        "start": 9838
      },
      {
        "length": 32,
        "start": 10234
      }
    ],
    "3219": [
      {
        "length": 32,
        "start": 1987
      },
      {
        "length": 32,
        "start": 2113
      },
      {
        "length": 32,
        "start": 2443
      },
      {
        "length": 32,
        "start": 4866
      },
      {
        "length": 32,
        "start": 5196
      },
      {
        "length": 32,
        "start": 9285
      },
      {
        "length": 32,
        "start": 9614
      }
    ]
  },
  "source": "//SPDX-License-Identifier: MIT\r\n\r\npragma solidity 0.8.20;\r\n\r\nimport \"@uniswap/v2-periphery/contracts/interfaces/IUniswapV2Router02.sol\";\r\n\r\ninterface IDexRouter {\r\n    function factory() external pure returns (address);\r\n    function WETH() external pure returns (address);\r\n    function quote(\r\n        uint amountA,\r\n        uint reserveA,\r\n        uint reserveB\r\n    ) external pure returns (uint amountB);\r\n    function getAmountsOut(\r\n        uint amountIn,\r\n        address[] calldata path\r\n    ) external view returns (uint[] memory amounts);\r\n    function getAmountsIn(\r\n        uint amountOut,\r\n        address[] calldata path\r\n    ) external view returns (uint[] memory amounts);\r\n    function swapExactETHForTokensSupportingFeeOnTransferTokens(\r\n        uint amountOutMin,\r\n        address[] calldata path,\r\n        address to,\r\n        uint deadline\r\n    ) external payable;\r\n}\r\n\r\nlibrary SafeMath {\r\n    function add(uint256 a, uint256 b) internal pure returns (uint256) {\r\n        uint256 c = a + b;\r\n        require(c >= a, \"SafeMath: addition overflow\");\r\n\r\n        return c;\r\n    }\r\n\r\n    function sub(uint256 a, uint256 b) internal pure returns (uint256) {\r\n        return sub(a, b, \"SafeMath: subtraction overflow\");\r\n    }\r\n\r\n    function sub(\r\n        uint256 a,\r\n        uint256 b,\r\n        string memory errorMessage\r\n    ) internal pure returns (uint256) {\r\n        require(b <= a, errorMessage);\r\n        uint256 c = a - b;\r\n\r\n        return c;\r\n    }\r\n\r\n    function mul(uint256 a, uint256 b) internal pure returns (uint256) {\r\n        // Gas optimization: this is cheaper than requiring 'a' not being zero, but the\r\n        // benefit is lost if 'b' is also tested.\r\n        // See: https://github.com/OpenZeppelin/openzeppelin-contracts/pull/522\r\n        if (a == 0) {\r\n            return 0;\r\n        }\r\n\r\n        uint256 c = a * b;\r\n        require(c / a == b, \"SafeMath: multiplication overflow\");\r\n\r\n        return c;\r\n    }\r\n\r\n    function div(uint256 a, uint256 b) internal pure returns (uint256) {\r\n        return div(a, b, \"SafeMath: division by zero\");\r\n    }\r\n\r\n    function div(\r\n        uint256 a,\r\n        uint256 b,\r\n        string memory errorMessage\r\n    ) internal pure returns (uint256) {\r\n        require(b > 0, errorMessage);\r\n        uint256 c = a / b;\r\n        // assert(a == b * c + a % b); // There is no case in which this doesn't hold\r\n\r\n        return c;\r\n    }\r\n\r\n    function mod(uint256 a, uint256 b) internal pure returns (uint256) {\r\n        return mod(a, b, \"SafeMath: modulo by zero\");\r\n    }\r\n\r\n    function mod(\r\n        uint256 a,\r\n        uint256 b,\r\n        string memory errorMessage\r\n    ) internal pure returns (uint256) {\r\n        require(b != 0, errorMessage);\r\n        return a % b;\r\n    }\r\n\r\n    function min(uint256 x, uint256 y) internal pure returns (uint256 z) {\r\n        z = x < y ? x : y;\r\n    }\r\n\r\n    function sqrt(uint256 y) internal pure returns (uint256 z) {\r\n        if (y > 3) {\r\n            z = y;\r\n            uint256 x = y / 2 + 1;\r\n            while (x < z) {\r\n                z = x;\r\n                x = (y / x + x) / 2;\r\n            }\r\n        } else if (y != 0) {\r\n            z = 1;\r\n        }\r\n    }\r\n}\r\n\r\nlibrary SafeMathInt {\r\n    int256 private constant MIN_INT256 = int256(1) << 255;\r\n    int256 private constant MAX_INT256 = ~(int256(1) << 255);\r\n\r\n    /**\r\n     * @dev Multiplies two int256 variables and fails on overflow.\r\n     */\r\n    function mul(int256 a, int256 b) internal pure returns (int256) {\r\n        int256 c = a * b;\r\n\r\n        // Detect overflow when multiplying MIN_INT256 with -1\r\n        require(c != MIN_INT256 || (a & MIN_INT256) != (b & MIN_INT256));\r\n        require((b == 0) || (c / b == a));\r\n        return c;\r\n    }\r\n\r\n    /**\r\n     * @dev Division of two int256 variables and fails on overflow.\r\n     */\r\n    function div(int256 a, int256 b) internal pure returns (int256) {\r\n        // Prevent overflow when dividing MIN_INT256 by -1\r\n        require(b != -1 || a != MIN_INT256);\r\n\r\n        // Solidity already throws when dividing by 0.\r\n        return a / b;\r\n    }\r\n\r\n    /**\r\n     * @dev Subtracts two int256 variables and fails on overflow.\r\n     */\r\n    function sub(int256 a, int256 b) internal pure returns (int256) {\r\n        int256 c = a - b;\r\n        require((b >= 0 && c <= a) || (b < 0 && c > a));\r\n        return c;\r\n    }\r\n\r\n    /**\r\n     * @dev Adds two int256 variables and fails on overflow.\r\n     */\r\n    function add(int256 a, int256 b) internal pure returns (int256) {\r\n        int256 c = a + b;\r\n        require((b >= 0 && c >= a) || (b < 0 && c < a));\r\n        return c;\r\n    }\r\n\r\n    /**\r\n     * @dev Converts to absolute value, and fails on overflow.\r\n     */\r\n    function abs(int256 a) internal pure returns (int256) {\r\n        require(a != MIN_INT256);\r\n        return a < 0 ? -a : a;\r\n    }\r\n\r\n    function toUint256Safe(int256 a) internal pure returns (uint256) {\r\n        require(a >= 0);\r\n        return uint256(a);\r\n    }\r\n}\r\n\r\nlibrary SafeMathUint {\r\n    function toInt256Safe(uint256 a) internal pure returns (int256) {\r\n        int256 b = int256(a);\r\n        require(b >= 0);\r\n        return b;\r\n    }\r\n}\r\n\r\ninterface IERC20 {\r\n    function totalSupply() external view returns (uint256);\r\n    function balanceOf(address account) external view returns (uint256);\r\n    function transfer(\r\n        address recipient,\r\n        uint256 amount\r\n    ) external returns (bool);\r\n    function allowance(\r\n        address owner,\r\n        address spender\r\n    ) external view returns (uint256);\r\n    function approve(address spender, uint256 amount) external returns (bool);\r\n    function transferFrom(\r\n        address sender,\r\n        address recipient,\r\n        uint256 amount\r\n    ) external returns (bool);\r\n    event Transfer(address indexed from, address indexed to, uint256 value);\r\n    event Approval(\r\n        address indexed owner,\r\n        address indexed spender,\r\n        uint256 value\r\n    );\r\n}\r\n\r\ninterface DividendPayingContractOptionalInterface {\r\n    function withdrawableDividendOf(\r\n        address _owner\r\n    ) external view returns (uint256);\r\n    function withdrawnDividendOf(\r\n        address _owner\r\n    ) external view returns (uint256);\r\n    function accumulativeDividendOf(\r\n        address _owner\r\n    ) external view returns (uint256);\r\n}\r\n\r\ninterface DividendPayingContractInterface {\r\n    function dividendOf(address _owner) external view returns (uint256);\r\n    function distributeDividends() external payable;\r\n    function withdrawDividend() external;\r\n    event DividendsDistributed(address indexed from, uint256 weiAmount);\r\n    event DividendWithdrawn(address indexed to, uint256 weiAmount);\r\n}\r\n\r\ncontract DividendPayingContract is\r\n    DividendPayingContractInterface,\r\n    DividendPayingContractOptionalInterface\r\n{\r\n    using SafeMath for uint256;\r\n    using SafeMathUint for uint256;\r\n    using SafeMathInt for int256;\r\n\r\n    uint256 internal constant magnitude = 2 ** 128;\r\n\r\n    uint256 internal magnifiedDividendPerShare;\r\n\r\n    mapping(address => int256) internal magnifiedDividendCorrections;\r\n    mapping(address => uint256) internal withdrawnDividends;\r\n\r\n    mapping(address => uint256) public holderBalance;\r\n    uint256 public totalBalance;\r\n\r\n    uint256 public totalDividendsDistributed;\r\n\r\n    receive() external payable {\r\n        distributeDividends();\r\n    }\r\n\r\n    function distributeDividends() public payable override {\r\n        if (totalBalance > 0 && msg.value > 0) {\r\n            magnifiedDividendPerShare = magnifiedDividendPerShare.add(\r\n                (msg.value).mul(magnitude) / totalBalance\r\n            );\r\n            emit DividendsDistributed(msg.sender, msg.value);\r\n\r\n            totalDividendsDistributed = totalDividendsDistributed.add(\r\n                msg.value\r\n            );\r\n        }\r\n    }\r\n\r\n    function withdrawDividend() external virtual override {\r\n        _withdrawDividendOfUser(payable(msg.sender));\r\n    }\r\n\r\n    function _withdrawDividendOfUser(\r\n        address payable user\r\n    ) internal returns (uint256) {\r\n        uint256 _withdrawableDividend = withdrawableDividendOf(user);\r\n        if (_withdrawableDividend > 0) {\r\n            withdrawnDividends[user] = withdrawnDividends[user].add(\r\n                _withdrawableDividend\r\n            );\r\n\r\n            emit DividendWithdrawn(user, _withdrawableDividend);\r\n            (bool success, ) = user.call{value: _withdrawableDividend}(\"\");\r\n\r\n            if (!success) {\r\n                withdrawnDividends[user] = withdrawnDividends[user].sub(\r\n                    _withdrawableDividend\r\n                );\r\n                return 0;\r\n            }\r\n\r\n            return _withdrawableDividend;\r\n        }\r\n\r\n        return 0;\r\n    }\r\n\r\n    function dividendOf(\r\n        address _owner\r\n    ) external view override returns (uint256) {\r\n        return withdrawableDividendOf(_owner);\r\n    }\r\n\r\n    function withdrawableDividendOf(\r\n        address _owner\r\n    ) public view override returns (uint256) {\r\n        return accumulativeDividendOf(_owner).sub(withdrawnDividends[_owner]);\r\n    }\r\n\r\n    function withdrawnDividendOf(\r\n        address _owner\r\n    ) external view override returns (uint256) {\r\n        return withdrawnDividends[_owner];\r\n    }\r\n\r\n    function accumulativeDividendOf(\r\n        address _owner\r\n    ) public view override returns (uint256) {\r\n        return\r\n            magnifiedDividendPerShare\r\n                .mul(holderBalance[_owner])\r\n                .toInt256Safe()\r\n                .add(magnifiedDividendCorrections[_owner])\r\n                .toUint256Safe() / magnitude;\r\n    }\r\n\r\n    function _increase(address account, uint256 value) internal {\r\n        magnifiedDividendCorrections[account] = magnifiedDividendCorrections[\r\n            account\r\n        ].sub((magnifiedDividendPerShare.mul(value)).toInt256Safe());\r\n    }\r\n\r\n    function _reduce(address account, uint256 value) internal {\r\n        magnifiedDividendCorrections[account] = magnifiedDividendCorrections[\r\n            account\r\n        ].add((magnifiedDividendPerShare.mul(value)).toInt256Safe());\r\n    }\r\n\r\n    function _setBalance(address account, uint256 newBalance) internal {\r\n        uint256 currentBalance = holderBalance[account];\r\n        holderBalance[account] = newBalance;\r\n        if (newBalance > currentBalance) {\r\n            uint256 increaseAmount = newBalance.sub(currentBalance);\r\n            _increase(account, increaseAmount);\r\n            totalBalance += increaseAmount;\r\n        } else if (newBalance < currentBalance) {\r\n            uint256 reduceAmount = currentBalance.sub(newBalance);\r\n            _reduce(account, reduceAmount);\r\n            totalBalance -= reduceAmount;\r\n        }\r\n    }\r\n}\r\n\r\ncontract DividendTracker is DividendPayingContract {\r\n    event Claim(\r\n        address indexed account,\r\n        uint256 amount,\r\n        bool indexed automatic\r\n    );\r\n\r\n    constructor() {}\r\n\r\n    function getAccount(\r\n        address _account\r\n    )\r\n        public\r\n        view\r\n        returns (\r\n            address account,\r\n            uint256 withdrawableDividends,\r\n            uint256 totalDividends,\r\n            uint256 balance\r\n        )\r\n    {\r\n        account = _account;\r\n\r\n        withdrawableDividends = withdrawableDividendOf(account);\r\n        totalDividends = accumulativeDividendOf(account);\r\n\r\n        balance = holderBalance[account];\r\n    }\r\n\r\n    function setBalance(address payable account, uint256 newBalance) internal {\r\n        _setBalance(account, newBalance);\r\n\r\n        processAccount(account, true);\r\n    }\r\n\r\n    function processAccount(\r\n        address payable account,\r\n        bool automatic\r\n    ) internal returns (bool) {\r\n        uint256 amount = _withdrawDividendOfUser(account);\r\n\r\n        if (amount > 0) {\r\n            emit Claim(account, amount, automatic);\r\n            return true;\r\n        }\r\n\r\n        return false;\r\n    }\r\n\r\n    function getTotalDividendsDistributed() external view returns (uint256) {\r\n        return totalDividendsDistributed;\r\n    }\r\n\r\n    function dividendTokenBalanceOf(\r\n        address account\r\n    ) public view returns (uint256) {\r\n        return holderBalance[account];\r\n    }\r\n\r\n    function getNumberOfDividends() external view returns (uint256) {\r\n        return totalBalance;\r\n    }\r\n}\r\n\r\nabstract contract ReentrancyGuard {\r\n    uint256 private constant _NOT_ENTERED = 1;\r\n    uint256 private constant _ENTERED = 2;\r\n\r\n    uint256 private _status;\r\n\r\n    constructor() {\r\n        _status = _NOT_ENTERED;\r\n    }\r\n\r\n    modifier nonReentrant() {\r\n        require(_status != _ENTERED, \"ReentrancyGuard: reentrant call\");\r\n        _status = _ENTERED;\r\n        _;\r\n        _status = _NOT_ENTERED;\r\n    }\r\n}\r\n\r\ncontract RevShareStaking is ReentrancyGuard, DividendTracker {\r\n    using SafeMath for uint256;\r\n    using SafeMathUint for uint256;\r\n    using SafeMathInt for int256;\r\n\r\n    IERC20 public immutable token;\r\n    IDexRouter public immutable dexRouter;\r\n\r\n    mapping(address => uint256) public holderUnlockTime;\r\n    uint256 public lockDuration;\r\n\r\n    address public rewardsWallet;\r\n\r\n    uint8 public stakeTax = 10;\r\n    uint8 public claimTax = 10;\r\n    uint8 public compoundTax = 5;\r\n\r\n    IUniswapV2Router02 public uniswapV2Router;\r\n\r\n    event Deposit(address indexed user, uint256 amount);\r\n    event Withdraw(address indexed user, uint256 amount);\r\n\r\n    constructor(address _token, uint256 _lockTimeInDays) {\r\n        require(_token != address(0), \"token address cannot be 0 address\");\r\n        token = IERC20(_token);\r\n\r\n        lockDuration = _lockTimeInDays * 1 days;\r\n\r\n        address _v2Router;\r\n\r\n        // @dev assumes WETH pair\r\n        if (block.chainid == 1) {\r\n            _v2Router = 0x7a250d5630B4cF539739dF2C5dAcb4c659F2488D;\r\n        } else if (block.chainid == 5) {\r\n            _v2Router = 0x7a250d5630B4cF539739dF2C5dAcb4c659F2488D;\r\n        } else {\r\n            revert(\"Chain not configured\");\r\n        }\r\n\r\n        dexRouter = IDexRouter(_v2Router);\r\n        rewardsWallet = msg.sender;\r\n    }\r\n\r\n    // Stake primary tokens\r\n    function deposit(uint256 _amount) external nonReentrant {\r\n        require(_amount > 0, \"Zero Amount\");\r\n\r\n        if (holderUnlockTime[msg.sender] == 0) {\r\n            holderUnlockTime[msg.sender] = block.timestamp + lockDuration;\r\n        }\r\n        uint256 userAmount = holderBalance[msg.sender];\r\n\r\n        uint256 amountTransferred = 0;\r\n\r\n        uint256 taxAmount = (_amount * stakeTax) / 100;\r\n\r\n        uint256 initialBalance = token.balanceOf(address(this));\r\n        token.transferFrom(address(msg.sender), address(this), _amount);\r\n        _swapTokensForEth(taxAmount);\r\n        amountTransferred = token.balanceOf(address(this)) - initialBalance;\r\n\r\n        setBalance(payable(msg.sender), userAmount + amountTransferred);\r\n\r\n        emit Deposit(msg.sender, _amount);\r\n    }\r\n\r\n    // Withdraw primary tokens\r\n\r\n    function withdraw(uint256 _amount) external nonReentrant {\r\n        require(_amount > 0, \"Zero Amount\");\r\n        uint256 userAmount = holderBalance[msg.sender];\r\n        require(_amount <= userAmount, \"Not enough tokens\");\r\n        require(\r\n            holderUnlockTime[msg.sender] <= block.timestamp,\r\n            \"May not withdraw early\"\r\n        );\r\n\r\n        token.transfer(address(msg.sender), _amount);\r\n\r\n        setBalance(payable(msg.sender), userAmount - _amount);\r\n\r\n        if (userAmount > 0) {\r\n            holderUnlockTime[msg.sender] = block.timestamp + lockDuration;\r\n        } else {\r\n            holderUnlockTime[msg.sender] = 0;\r\n        }\r\n\r\n        emit Withdraw(msg.sender, _amount);\r\n    }\r\n\r\n    function withdrawAll() public nonReentrant {\r\n        uint256 userAmount = holderBalance[msg.sender];\r\n        require(userAmount > 0, \"Not a holder\");\r\n        require(\r\n            holderUnlockTime[msg.sender] <= block.timestamp,\r\n            \"May not withdraw early\"\r\n        );\r\n\r\n        token.transfer(address(msg.sender), userAmount);\r\n\r\n        setBalance(payable(msg.sender), 0);\r\n        holderUnlockTime[msg.sender] = 0;\r\n\r\n        emit Withdraw(msg.sender, userAmount);\r\n    }\r\n\r\n    function claim() external nonReentrant {\r\n        uint256 amount = 0;\r\n\r\n        uint256 _withdrawableDividend = withdrawableDividendOf(\r\n            payable(msg.sender)\r\n        );\r\n        if (_withdrawableDividend > 0) {\r\n            withdrawnDividends[payable(msg.sender)] = withdrawnDividends[\r\n                payable(msg.sender)\r\n            ].add(_withdrawableDividend);\r\n\r\n            emit DividendWithdrawn(payable(msg.sender), _withdrawableDividend);\r\n\r\n            uint256 taxAmount = (_withdrawableDividend * stakeTax) / 100;\r\n\r\n            (bool userTransferSuccess, ) = payable(msg.sender).call{\r\n                value: _withdrawableDividend - taxAmount\r\n            }(\"\");\r\n\r\n            (bool taxTransferSuccess, ) = payable(rewardsWallet).call{\r\n                value: taxAmount\r\n            }(\"\");\r\n\r\n            if (!userTransferSuccess) {\r\n                withdrawnDividends[payable(msg.sender)] = withdrawnDividends[\r\n                    payable(msg.sender)\r\n                ].sub(_withdrawableDividend);\r\n                amount = 0;\r\n            }\r\n\r\n            amount = _withdrawableDividend;\r\n        }\r\n\r\n        if (amount > 0) {\r\n            emit Claim(payable(msg.sender), amount, false);\r\n        }\r\n    }\r\n\r\n    function compound(uint256 minOutput) external nonReentrant {\r\n        uint256 userAmount = holderBalance[msg.sender];\r\n        uint256 amountEthForCompound = _withdrawDividendOfUserForCompound(\r\n            payable(msg.sender)\r\n        );\r\n        if (amountEthForCompound > 0) {\r\n            uint256 initialBalance = token.balanceOf(address(this));\r\n            buyBackTokens(amountEthForCompound, minOutput);\r\n            uint256 amountTransferred = token.balanceOf(address(this)) -\r\n                initialBalance;\r\n            setBalance(payable(msg.sender), userAmount + amountTransferred);\r\n        } else {\r\n            revert(\"No rewards\");\r\n        }\r\n    }\r\n\r\n    function _withdrawDividendOfUserForCompound(\r\n        address payable user\r\n    ) internal returns (uint256 _withdrawableDividend) {\r\n        _withdrawableDividend = withdrawableDividendOf(user);\r\n        if (_withdrawableDividend > 0) {\r\n            withdrawnDividends[user] =\r\n                withdrawnDividends[user] +\r\n                _withdrawableDividend;\r\n            emit DividendWithdrawn(user, _withdrawableDividend);\r\n        }\r\n    }\r\n\r\n    function buyBackTokens(uint256 ethAmountInWei, uint256 minOut) internal {\r\n        // generate the uniswap pair path of weth -> eth\r\n        address[] memory path = new address[](2);\r\n        path[0] = dexRouter.WETH();\r\n        path[1] = address(token);\r\n\r\n        // make the swap\r\n        dexRouter.swapExactETHForTokensSupportingFeeOnTransferTokens{\r\n            value: ethAmountInWei\r\n        }(minOut, path, address(this), block.timestamp);\r\n    }\r\n\r\n    // helper views\r\n\r\n    function getExpectedCompoundOutputByEthAmount(\r\n        uint256 rewardAmount\r\n    ) external view returns (uint256) {\r\n        address[] memory path = new address[](2);\r\n        path[0] = dexRouter.WETH();\r\n        path[1] = address(token);\r\n        uint256[] memory amounts = dexRouter.getAmountsOut(rewardAmount, path);\r\n        return amounts[1];\r\n    }\r\n\r\n    function getExpectedCompoundOutputByWallet(\r\n        address wallet\r\n    ) external view returns (uint256) {\r\n        uint256 rewardAmount = withdrawableDividendOf(wallet);\r\n        address[] memory path = new address[](2);\r\n        path[0] = dexRouter.WETH();\r\n        path[1] = address(token);\r\n        uint256[] memory amounts = dexRouter.getAmountsOut(rewardAmount, path);\r\n        return amounts[1];\r\n    }\r\n\r\n    /// @notice Swaps the token amount to ETH using the Uniswap V2 router.\r\n    function _swapTokensForEth(uint256 tokenAmount_) private {\r\n        address[] memory path = new address[](2);\r\n        path[0] = address(token);\r\n        path[1] = uniswapV2Router.WETH();\r\n\r\n        require(\r\n            tokenAmount_ > 0,\r\n            \"Staking: Token amount less then 0 for token swap\"\r\n        );\r\n\r\n        token.approve(address(uniswapV2Router), tokenAmount_);\r\n\r\n        uniswapV2Router.swapExactTokensForETHSupportingFeeOnTransferTokens(\r\n            tokenAmount_,\r\n            0,\r\n            path,\r\n            rewardsWallet,\r\n            block.timestamp\r\n        );\r\n    }\r\n}\r\n",
  "sourcePath": "C:\\Users\\Baby\\staking-contract\\contracts\\Staking.sol",
  "compiler": {
    "name": "solc",
    "version": "0.8.20+commit.a1b79de6.Emscripten.clang"
  },
  "schemaVersion": "3.4.16",
  "updatedAt": "2024-05-30T07:31:10.072Z",
  "devdoc": {
    "kind": "dev",
    "methods": {},
    "version": 1
  },
  "userdoc": {
    "kind": "user",
    "methods": {},
    "version": 1
  }
}