{
  "contractName": "Token",
  "abi": [
    {
      "inputs": [],
      "stateMutability": "nonpayable",
      "type": "constructor"
    },
    {
      "inputs": [
        {
          "internalType": "address",
          "name": "spender",
          "type": "address"
        },
        {
          "internalType": "uint256",
          "name": "allowance",
          "type": "uint256"
        },
        {
          "internalType": "uint256",
          "name": "needed",
          "type": "uint256"
        }
      ],
      "name": "ERC20InsufficientAllowance",
      "type": "error"
    },
    {
      "inputs": [
        {
          "internalType": "address",
          "name": "sender",
          "type": "address"
        },
        {
          "internalType": "uint256",
          "name": "balance",
          "type": "uint256"
        },
        {
          "internalType": "uint256",
          "name": "needed",
          "type": "uint256"
        }
      ],
      "name": "ERC20InsufficientBalance",
      "type": "error"
    },
    {
      "inputs": [
        {
          "internalType": "address",
          "name": "approver",
          "type": "address"
        }
      ],
      "name": "ERC20InvalidApprover",
      "type": "error"
    },
    {
      "inputs": [
        {
          "internalType": "address",
          "name": "receiver",
          "type": "address"
        }
      ],
      "name": "ERC20InvalidReceiver",
      "type": "error"
    },
    {
      "inputs": [
        {
          "internalType": "address",
          "name": "sender",
          "type": "address"
        }
      ],
      "name": "ERC20InvalidSender",
      "type": "error"
    },
    {
      "inputs": [
        {
          "internalType": "address",
          "name": "spender",
          "type": "address"
        }
      ],
      "name": "ERC20InvalidSpender",
      "type": "error"
    },
    {
      "inputs": [
        {
          "internalType": "address",
          "name": "owner",
          "type": "address"
        }
      ],
      "name": "OwnableInvalidOwner",
      "type": "error"
    },
    {
      "inputs": [
        {
          "internalType": "address",
          "name": "account",
          "type": "address"
        }
      ],
      "name": "OwnableUnauthorizedAccount",
      "type": "error"
    },
    {
      "anonymous": false,
      "inputs": [
        {
          "indexed": true,
          "internalType": "address",
          "name": "owner",
          "type": "address"
        },
        {
          "indexed": true,
          "internalType": "address",
          "name": "spender",
          "type": "address"
        },
        {
          "indexed": false,
          "internalType": "uint256",
          "name": "value",
          "type": "uint256"
        }
      ],
      "name": "Approval",
      "type": "event"
    },
    {
      "anonymous": false,
      "inputs": [
        {
          "indexed": false,
          "internalType": "address",
          "name": "wallet",
          "type": "address"
        },
        {
          "indexed": false,
          "internalType": "bool",
          "name": "isExcluded",
          "type": "bool"
        }
      ],
      "name": "ExcludedFromFeesUpdated",
      "type": "event"
    },
    {
      "anonymous": false,
      "inputs": [
        {
          "indexed": false,
          "internalType": "address",
          "name": "pair",
          "type": "address"
        },
        {
          "indexed": false,
          "internalType": "bool",
          "name": "isMarketPair",
          "type": "bool"
        }
      ],
      "name": "MarketPairUpdated",
      "type": "event"
    },
    {
      "anonymous": false,
      "inputs": [
        {
          "indexed": true,
          "internalType": "address",
          "name": "previousOwner",
          "type": "address"
        },
        {
          "indexed": true,
          "internalType": "address",
          "name": "newOwner",
          "type": "address"
        }
      ],
      "name": "OwnershipTransferred",
      "type": "event"
    },
    {
      "anonymous": false,
      "inputs": [
        {
          "indexed": false,
          "internalType": "address",
          "name": "newProtocolAddress",
          "type": "address"
        }
      ],
      "name": "ProtocolAddressUpdated",
      "type": "event"
    },
    {
      "anonymous": false,
      "inputs": [],
      "name": "TradingOpen",
      "type": "event"
    },
    {
      "anonymous": false,
      "inputs": [
        {
          "indexed": true,
          "internalType": "address",
          "name": "from",
          "type": "address"
        },
        {
          "indexed": true,
          "internalType": "address",
          "name": "to",
          "type": "address"
        },
        {
          "indexed": false,
          "internalType": "uint256",
          "name": "value",
          "type": "uint256"
        }
      ],
      "name": "Transfer",
      "type": "event"
    },
    {
      "inputs": [
        {
          "internalType": "address",
          "name": "owner",
          "type": "address"
        },
        {
          "internalType": "address",
          "name": "spender",
          "type": "address"
        }
      ],
      "name": "allowance",
      "outputs": [
        {
          "internalType": "uint256",
          "name": "",
          "type": "uint256"
        }
      ],
      "stateMutability": "view",
      "type": "function"
    },
    {
      "inputs": [
        {
          "internalType": "address",
          "name": "spender",
          "type": "address"
        },
        {
          "internalType": "uint256",
          "name": "value",
          "type": "uint256"
        }
      ],
      "name": "approve",
      "outputs": [
        {
          "internalType": "bool",
          "name": "",
          "type": "bool"
        }
      ],
      "stateMutability": "nonpayable",
      "type": "function"
    },
    {
      "inputs": [
        {
          "internalType": "address",
          "name": "account",
          "type": "address"
        }
      ],
      "name": "balanceOf",
      "outputs": [
        {
          "internalType": "uint256",
          "name": "",
          "type": "uint256"
        }
      ],
      "stateMutability": "view",
      "type": "function"
    },
    {
      "inputs": [],
      "name": "decimals",
      "outputs": [
        {
          "internalType": "uint8",
          "name": "",
          "type": "uint8"
        }
      ],
      "stateMutability": "view",
      "type": "function"
    },
    {
      "inputs": [],
      "name": "isTradingOpen",
      "outputs": [
        {
          "internalType": "bool",
          "name": "",
          "type": "bool"
        }
      ],
      "stateMutability": "view",
      "type": "function"
    },
    {
      "inputs": [],
      "name": "name",
      "outputs": [
        {
          "internalType": "string",
          "name": "",
          "type": "string"
        }
      ],
      "stateMutability": "view",
      "type": "function"
    },
    {
      "inputs": [],
      "name": "owner",
      "outputs": [
        {
          "internalType": "address",
          "name": "",
          "type": "address"
        }
      ],
      "stateMutability": "view",
      "type": "function"
    },
    {
      "inputs": [],
      "name": "protocolAddress",
      "outputs": [
        {
          "internalType": "address",
          "name": "",
          "type": "address"
        }
      ],
      "stateMutability": "view",
      "type": "function"
    },
    {
      "inputs": [],
      "name": "renounceOwnership",
      "outputs": [],
      "stateMutability": "nonpayable",
      "type": "function"
    },
    {
      "inputs": [],
      "name": "sellTax",
      "outputs": [
        {
          "internalType": "uint8",
          "name": "",
          "type": "uint8"
        }
      ],
      "stateMutability": "view",
      "type": "function"
    },
    {
      "inputs": [],
      "name": "symbol",
      "outputs": [
        {
          "internalType": "string",
          "name": "",
          "type": "string"
        }
      ],
      "stateMutability": "view",
      "type": "function"
    },
    {
      "inputs": [],
      "name": "totalSupply",
      "outputs": [
        {
          "internalType": "uint256",
          "name": "",
          "type": "uint256"
        }
      ],
      "stateMutability": "view",
      "type": "function"
    },
    {
      "inputs": [
        {
          "internalType": "address",
          "name": "to",
          "type": "address"
        },
        {
          "internalType": "uint256",
          "name": "value",
          "type": "uint256"
        }
      ],
      "name": "transfer",
      "outputs": [
        {
          "internalType": "bool",
          "name": "",
          "type": "bool"
        }
      ],
      "stateMutability": "nonpayable",
      "type": "function"
    },
    {
      "inputs": [
        {
          "internalType": "address",
          "name": "from",
          "type": "address"
        },
        {
          "internalType": "address",
          "name": "to",
          "type": "address"
        },
        {
          "internalType": "uint256",
          "name": "value",
          "type": "uint256"
        }
      ],
      "name": "transferFrom",
      "outputs": [
        {
          "internalType": "bool",
          "name": "",
          "type": "bool"
        }
      ],
      "stateMutability": "nonpayable",
      "type": "function"
    },
    {
      "inputs": [
        {
          "internalType": "address",
          "name": "newOwner",
          "type": "address"
        }
      ],
      "name": "transferOwnership",
      "outputs": [],
      "stateMutability": "nonpayable",
      "type": "function"
    },
    {
      "inputs": [],
      "name": "uniswapV2Router",
      "outputs": [
        {
          "internalType": "contract IUniswapV2Router02",
          "name": "",
          "type": "address"
        }
      ],
      "stateMutability": "view",
      "type": "function"
    },
    {
      "inputs": [
        {
          "internalType": "address",
          "name": "",
          "type": "address"
        }
      ],
      "name": "walletStates",
      "outputs": [
        {
          "internalType": "bool",
          "name": "isMarketPair",
          "type": "bool"
        },
        {
          "internalType": "bool",
          "name": "isExemptFromTax",
          "type": "bool"
        }
      ],
      "stateMutability": "view",
      "type": "function"
    },
    {
      "stateMutability": "payable",
      "type": "receive"
    },
    {
      "inputs": [
        {
          "internalType": "address",
          "name": "account_",
          "type": "address"
        }
      ],
      "name": "isTaxExempt",
      "outputs": [
        {
          "internalType": "bool",
          "name": "",
          "type": "bool"
        }
      ],
      "stateMutability": "view",
      "type": "function"
    },
    {
      "inputs": [],
      "name": "isTaxEnabled",
      "outputs": [
        {
          "internalType": "bool",
          "name": "",
          "type": "bool"
        }
      ],
      "stateMutability": "view",
      "type": "function"
    },
    {
      "inputs": [],
      "name": "openTrading",
      "outputs": [],
      "stateMutability": "nonpayable",
      "type": "function"
    },
    {
      "inputs": [
        {
          "internalType": "address",
          "name": "account",
          "type": "address"
        },
        {
          "internalType": "bool",
          "name": "isExempt",
          "type": "bool"
        }
      ],
      "name": "setTaxExempt",
      "outputs": [],
      "stateMutability": "nonpayable",
      "type": "function"
    },
    {
      "inputs": [
        {
          "internalType": "address",
          "name": "newProtocolAddress_",
          "type": "address"
        }
      ],
      "name": "setTaxAddress",
      "outputs": [],
      "stateMutability": "nonpayable",
      "type": "function"
    },
    {
      "inputs": [
        {
          "internalType": "address",
          "name": "account",
          "type": "address"
        },
        {
          "internalType": "bool",
          "name": "value",
          "type": "bool"
        }
      ],
      "name": "setMarketPair",
      "outputs": [],
      "stateMutability": "nonpayable",
      "type": "function"
    }
  ],
  "bytecode": "0x6080604052600a60075f6101000a81548160ff021916908360ff1602179055506001600760016101000a81548160ff0219169083151502179055505f600760026101000a81548160ff0219169083151502179055505f600760036101000a81548160ff0219169083151502179055503480156200007a575f80fd5b50336040518060400160405280600581526020017f546f6b656e0000000000000000000000000000000000000000000000000000008152506040518060400160405280600381526020017f544b4e00000000000000000000000000000000000000000000000000000000008152508160039081620000f991906200104e565b5080600490816200010b91906200104e565b5050505f73ffffffffffffffffffffffffffffffffffffffff168173ffffffffffffffffffffffffffffffffffffffff160362000181575f6040517f1e4fbdf700000000000000000000000000000000000000000000000000000000815260040162000178919062001175565b60405180910390fd5b62000192816200067560201b60201c565b50620001b25f336b033b2e3c9fd0803ce80000006200073860201b60201c565b5f737a250d5630b4cf539739df2c5dacb4c659f2488d90505f8190505f8173ffffffffffffffffffffffffffffffffffffffff1663c45a01556040518163ffffffff1660e01b8152600401602060405180830381865afa15801562000219573d5f803e3d5ffd5b505050506040513d601f19601f820116820180604052508101906200023f9190620011c3565b73ffffffffffffffffffffffffffffffffffffffff1663c9c65396308473ffffffffffffffffffffffffffffffffffffffff1663ad5c46486040518163ffffffff1660e01b8152600401602060405180830381865afa158015620002a5573d5f803e3d5ffd5b505050506040513d601f19601f82011682018060405250810190620002cb9190620011c3565b6040518363ffffffff1660e01b8152600401620002ea929190620011f3565b6020604051808303815f875af115801562000307573d5f803e3d5ffd5b505050506040513d601f19601f820116820180604052508101906200032d9190620011c3565b905081600760046101000a81548173ffffffffffffffffffffffffffffffffffffffff021916908373ffffffffffffffffffffffffffffffffffffffff160217905550620003a330847fffffffffffffffffffffffffffffffffffffffffffffffffffffffffffffffff6200095c60201b60201c565b620003b68160016200097660201b60201c565b3360085f6101000a81548173ffffffffffffffffffffffffffffffffffffffff021916908373ffffffffffffffffffffffffffffffffffffffff16021790555060405180604001604052805f151581526020016001151581525060065f3373ffffffffffffffffffffffffffffffffffffffff1673ffffffffffffffffffffffffffffffffffffffff1681526020019081526020015f205f820151815f015f6101000a81548160ff0219169083151502179055506020820151815f0160016101000a81548160ff0219169083151502179055509050507fe4cbcfb1a60e2c589f335f74c6c57b0be57eb6c50eb56442d8a67735dba70cad336001604051620004c09291906200123a565b60405180910390a160405180604001604052805f151581526020016001151581525060065f3073ffffffffffffffffffffffffffffffffffffffff1673ffffffffffffffffffffffffffffffffffffffff1681526020019081526020015f205f820151815f015f6101000a81548160ff0219169083151502179055506020820151815f0160016101000a81548160ff0219169083151502179055509050507fe4cbcfb1a60e2c589f335f74c6c57b0be57eb6c50eb56442d8a67735dba70cad306001604051620005929291906200123a565b60405180910390a160405180604001604052805f151581526020016001151581525060065f8573ffffffffffffffffffffffffffffffffffffffff1673ffffffffffffffffffffffffffffffffffffffff1681526020019081526020015f205f820151815f015f6101000a81548160ff0219169083151502179055506020820151815f0160016101000a81548160ff0219169083151502179055509050507fe4cbcfb1a60e2c589f335f74c6c57b0be57eb6c50eb56442d8a67735dba70cad836001604051620006649291906200123a565b60405180910390a1505050620013b1565b5f60055f9054906101000a900473ffffffffffffffffffffffffffffffffffffffff1690508160055f6101000a81548173ffffffffffffffffffffffffffffffffffffffff021916908373ffffffffffffffffffffffffffffffffffffffff1602179055508173ffffffffffffffffffffffffffffffffffffffff168173ffffffffffffffffffffffffffffffffffffffff167f8be0079c531659141344cd1fd0a4f28419497f9722a3daafe3b4186f6b6457e060405160405180910390a35050565b5f73ffffffffffffffffffffffffffffffffffffffff168373ffffffffffffffffffffffffffffffffffffffff16036200078c578060025f8282546200077f919062001292565b925050819055506200085d565b5f805f8573ffffffffffffffffffffffffffffffffffffffff1673ffffffffffffffffffffffffffffffffffffffff1681526020019081526020015f205490508181101562000818578381836040517fe450d38c0000000000000000000000000000000000000000000000000000000081526004016200080f93929190620012dd565b60405180910390fd5b8181035f808673ffffffffffffffffffffffffffffffffffffffff1673ffffffffffffffffffffffffffffffffffffffff1681526020019081526020015f2081905550505b5f73ffffffffffffffffffffffffffffffffffffffff168273ffffffffffffffffffffffffffffffffffffffff1603620008a6578060025f8282540392505081905550620008f0565b805f808473ffffffffffffffffffffffffffffffffffffffff1673ffffffffffffffffffffffffffffffffffffffff1681526020019081526020015f205f82825401925050819055505b8173ffffffffffffffffffffffffffffffffffffffff168373ffffffffffffffffffffffffffffffffffffffff167fddf252ad1be2c89b69c2b068fc378daa952ba7f163c4a11628f55a4df523b3ef836040516200094f919062001318565b60405180910390a3505050565b62000971838383600162000b4160201b60201c565b505050565b6200098662000d1960201b60201c565b3073ffffffffffffffffffffffffffffffffffffffff168273ffffffffffffffffffffffffffffffffffffffff1603620009f7576040517f08c379a0000000000000000000000000000000000000000000000000000000008152600401620009ee9062001391565b60405180910390fd5b5f60065f8473ffffffffffffffffffffffffffffffffffffffff1673ffffffffffffffffffffffffffffffffffffffff1681526020019081526020015f206040518060400160405290815f82015f9054906101000a900460ff161515151581526020015f820160019054906101000a900460ff161515151581525050905081815f0190151590811515815250508060065f8573ffffffffffffffffffffffffffffffffffffffff1673ffffffffffffffffffffffffffffffffffffffff1681526020019081526020015f205f820151815f015f6101000a81548160ff0219169083151502179055506020820151815f0160016101000a81548160ff0219169083151502179055509050507f160ff69a72bc70f3e792a86c87d27070e421562197f032d96bcab11c5010222e838360405162000b349291906200123a565b60405180910390a1505050565b5f73ffffffffffffffffffffffffffffffffffffffff168473ffffffffffffffffffffffffffffffffffffffff160362000bb4575f6040517fe602df0500000000000000000000000000000000000000000000000000000000815260040162000bab919062001175565b60405180910390fd5b5f73ffffffffffffffffffffffffffffffffffffffff168373ffffffffffffffffffffffffffffffffffffffff160362000c27575f6040517f94280d6200000000000000000000000000000000000000000000000000000000815260040162000c1e919062001175565b60405180910390fd5b8160015f8673ffffffffffffffffffffffffffffffffffffffff1673ffffffffffffffffffffffffffffffffffffffff1681526020019081526020015f205f8573ffffffffffffffffffffffffffffffffffffffff1673ffffffffffffffffffffffffffffffffffffffff1681526020019081526020015f2081905550801562000d13578273ffffffffffffffffffffffffffffffffffffffff168473ffffffffffffffffffffffffffffffffffffffff167f8c5be1e5ebec7d5bd14f71427d1e84f3dd0314c0f7b2291e5b200ac8c7c3b9258460405162000d0a919062001318565b60405180910390a35b50505050565b62000d2962000dbb60201b60201c565b73ffffffffffffffffffffffffffffffffffffffff1662000d4f62000dc260201b60201c565b73ffffffffffffffffffffffffffffffffffffffff161462000db95762000d7b62000dbb60201b60201c565b6040517f118cdaa700000000000000000000000000000000000000000000000000000000815260040162000db0919062001175565b60405180910390fd5b565b5f33905090565b5f60055f9054906101000a900473ffffffffffffffffffffffffffffffffffffffff16905090565b5f81519050919050565b7f4e487b71000000000000000000000000000000000000000000000000000000005f52604160045260245ffd5b7f4e487b71000000000000000000000000000000000000000000000000000000005f52602260045260245ffd5b5f600282049050600182168062000e6657607f821691505b60208210810362000e7c5762000e7b62000e21565b5b50919050565b5f819050815f5260205f209050919050565b5f6020601f8301049050919050565b5f82821b905092915050565b5f6008830262000ee07fffffffffffffffffffffffffffffffffffffffffffffffffffffffffffffffff8262000ea3565b62000eec868362000ea3565b95508019841693508086168417925050509392505050565b5f819050919050565b5f819050919050565b5f62000f3662000f3062000f2a8462000f04565b62000f0d565b62000f04565b9050919050565b5f819050919050565b62000f518362000f16565b62000f6962000f608262000f3d565b84845462000eaf565b825550505050565b5f90565b62000f7f62000f71565b62000f8c81848462000f46565b505050565b5b8181101562000fb35762000fa75f8262000f75565b60018101905062000f92565b5050565b601f821115620010025762000fcc8162000e82565b62000fd78462000e94565b8101602085101562000fe7578190505b62000fff62000ff68562000e94565b83018262000f91565b50505b505050565b5f82821c905092915050565b5f620010245f198460080262001007565b1980831691505092915050565b5f6200103e838362001013565b9150826002028217905092915050565b620010598262000dea565b67ffffffffffffffff81111562001075576200107462000df4565b5b62001081825462000e4e565b6200108e82828562000fb7565b5f60209050601f831160018114620010c4575f8415620010af578287015190505b620010bb858262001031565b8655506200112a565b601f198416620010d48662000e82565b5f5b82811015620010fd57848901518255600182019150602085019450602081019050620010d6565b868310156200111d578489015162001119601f89168262001013565b8355505b6001600288020188555050505b505050505050565b5f73ffffffffffffffffffffffffffffffffffffffff82169050919050565b5f6200115d8262001132565b9050919050565b6200116f8162001151565b82525050565b5f6020820190506200118a5f83018462001164565b92915050565b5f80fd5b6200119f8162001151565b8114620011aa575f80fd5b50565b5f81519050620011bd8162001194565b92915050565b5f60208284031215620011db57620011da62001190565b5b5f620011ea84828501620011ad565b91505092915050565b5f604082019050620012085f83018562001164565b62001217602083018462001164565b9392505050565b5f8115159050919050565b62001234816200121e565b82525050565b5f6040820190506200124f5f83018562001164565b6200125e602083018462001229565b9392505050565b7f4e487b71000000000000000000000000000000000000000000000000000000005f52601160045260245ffd5b5f6200129e8262000f04565b9150620012ab8362000f04565b9250828201905080821115620012c657620012c562001265565b5b92915050565b620012d78162000f04565b82525050565b5f606082019050620012f25f83018662001164565b620013016020830185620012cc565b620013106040830184620012cc565b949350505050565b5f6020820190506200132d5f830184620012cc565b92915050565b5f82825260208201905092915050565b7f63616e74206368616e676520636f6e74726163740000000000000000000000005f82015250565b5f6200137960148362001333565b9150620013868262001343565b602082019050919050565b5f6020820190508181035f830152620013aa816200136b565b9050919050565b61206b80620013bf5f395ff3fe608060405260043610610143575f3560e01c8063715018a6116100b5578063c16dd4a41161006e578063c16dd4a41461046d578063c9567bf914610495578063cc1776d3146104ab578063dd62ed3e146104d5578063e6c1909b14610511578063f2fde38b1461053b5761014a565b8063715018a6146103625780638da5cb5b1461037857806395d89b41146103a257806398962f36146103cc578063a1883d2614610409578063a9059cbb146104315761014a565b806318160ddd1161010757806318160ddd146102445780631dc610401461026e57806323b872dd14610296578063313ce567146102d257806356a060a2146102fc57806370a08231146103265761014a565b80630676c1b71461014e57806306fdde0314610178578063095ea7b3146101a25780631694505e146101de57806316c2be6b146102085761014a565b3661014a57005b5f80fd5b348015610159575f80fd5b50610162610563565b60405161016f9190611870565b60405180910390f35b348015610183575f80fd5b5061018c610588565b6040516101999190611913565b60405180910390f35b3480156101ad575f80fd5b506101c860048036038101906101c39190611994565b610618565b6040516101d591906119ec565b60405180910390f35b3480156101e9575f80fd5b506101f261063a565b6040516101ff9190611a60565b60405180910390f35b348015610213575f80fd5b5061022e60048036038101906102299190611a79565b610660565b60405161023b91906119ec565b60405180910390f35b34801561024f575f80fd5b506102586106b5565b6040516102659190611ab3565b60405180910390f35b348015610279575f80fd5b50610294600480360381019061028f9190611af6565b6106be565b005b3480156102a1575f80fd5b506102bc60048036038101906102b79190611b34565b61087d565b6040516102c991906119ec565b60405180910390f35b3480156102dd575f80fd5b506102e66108ab565b6040516102f39190611b9f565b60405180910390f35b348015610307575f80fd5b506103106108b3565b60405161031d91906119ec565b60405180910390f35b348015610331575f80fd5b5061034c60048036038101906103479190611a79565b6108c6565b6040516103599190611ab3565b60405180910390f35b34801561036d575f80fd5b5061037661090b565b005b348015610383575f80fd5b5061038c61091e565b6040516103999190611870565b60405180910390f35b3480156103ad575f80fd5b506103b6610946565b6040516103c39190611913565b60405180910390f35b3480156103d7575f80fd5b506103f260048036038101906103ed9190611a79565b6109d6565b604051610400929190611bb8565b60405180910390f35b348015610414575f80fd5b5061042f600480360381019061042a9190611a79565b610a0e565b005b34801561043c575f80fd5b5061045760048036038101906104529190611994565b610a90565b60405161046491906119ec565b60405180910390f35b348015610478575f80fd5b50610493600480360381019061048e9190611af6565b610ab2565b005b3480156104a0575f80fd5b506104a9610c70565b005b3480156104b6575f80fd5b506104bf610d31565b6040516104cc9190611b9f565b60405180910390f35b3480156104e0575f80fd5b506104fb60048036038101906104f69190611bdf565b610d43565b6040516105089190611ab3565b60405180910390f35b34801561051c575f80fd5b50610525610dc5565b60405161053291906119ec565b60405180910390f35b348015610546575f80fd5b50610561600480360381019061055c9190611a79565b610ddb565b005b60085f9054906101000a900473ffffffffffffffffffffffffffffffffffffffff1681565b60606003805461059790611c4a565b80601f01602080910402602001604051908101604052809291908181526020018280546105c390611c4a565b801561060e5780601f106105e55761010080835404028352916020019161060e565b820191905f5260205f20905b8154815290600101906020018083116105f157829003601f168201915b5050505050905090565b5f80610622610e5f565b905061062f818585610e66565b600191505092915050565b600760049054906101000a900473ffffffffffffffffffffffffffffffffffffffff1681565b5f60065f8373ffffffffffffffffffffffffffffffffffffffff1673ffffffffffffffffffffffffffffffffffffffff1681526020019081526020015f205f0160019054906101000a900460ff169050919050565b5f600254905090565b6106c6610e78565b3073ffffffffffffffffffffffffffffffffffffffff168273ffffffffffffffffffffffffffffffffffffffff1603610734576040517f08c379a000000000000000000000000000000000000000000000000000000000815260040161072b90611cc4565b60405180910390fd5b5f60065f8473ffffffffffffffffffffffffffffffffffffffff1673ffffffffffffffffffffffffffffffffffffffff1681526020019081526020015f206040518060400160405290815f82015f9054906101000a900460ff161515151581526020015f820160019054906101000a900460ff1615151515815250509050818160200190151590811515815250508060065f8573ffffffffffffffffffffffffffffffffffffffff1673ffffffffffffffffffffffffffffffffffffffff1681526020019081526020015f205f820151815f015f6101000a81548160ff0219169083151502179055506020820151815f0160016101000a81548160ff0219169083151502179055509050507fe4cbcfb1a60e2c589f335f74c6c57b0be57eb6c50eb56442d8a67735dba70cad8383604051610870929190611ce2565b60405180910390a1505050565b5f80610887610e5f565b9050610894858285610eff565b61089f858585610f91565b60019150509392505050565b5f6012905090565b600760029054906101000a900460ff1681565b5f805f8373ffffffffffffffffffffffffffffffffffffffff1673ffffffffffffffffffffffffffffffffffffffff1681526020019081526020015f20549050919050565b610913610e78565b61091c5f611081565b565b5f60055f9054906101000a900473ffffffffffffffffffffffffffffffffffffffff16905090565b60606004805461095590611c4a565b80601f016020809104026020016040519081016040528092919081815260200182805461098190611c4a565b80156109cc5780601f106109a3576101008083540402835291602001916109cc565b820191905f5260205f20905b8154815290600101906020018083116109af57829003601f168201915b5050505050905090565b6006602052805f5260405f205f91509050805f015f9054906101000a900460ff1690805f0160019054906101000a900460ff16905082565b610a16610e78565b8060085f6101000a81548173ffffffffffffffffffffffffffffffffffffffff021916908373ffffffffffffffffffffffffffffffffffffffff1602179055507f725168acf8fb2c310e106a05c2eed321da0de2fc4cf73dfe2594ca1d4795fd1081604051610a859190611870565b60405180910390a150565b5f80610a9a610e5f565b9050610aa7818585610f91565b600191505092915050565b610aba610e78565b3073ffffffffffffffffffffffffffffffffffffffff168273ffffffffffffffffffffffffffffffffffffffff1603610b28576040517f08c379a0000000000000000000000000000000000000000000000000000000008152600401610b1f90611d53565b60405180910390fd5b5f60065f8473ffffffffffffffffffffffffffffffffffffffff1673ffffffffffffffffffffffffffffffffffffffff1681526020019081526020015f206040518060400160405290815f82015f9054906101000a900460ff161515151581526020015f820160019054906101000a900460ff161515151581525050905081815f0190151590811515815250508060065f8573ffffffffffffffffffffffffffffffffffffffff1673ffffffffffffffffffffffffffffffffffffffff1681526020019081526020015f205f820151815f015f6101000a81548160ff0219169083151502179055506020820151815f0160016101000a81548160ff0219169083151502179055509050507f160ff69a72bc70f3e792a86c87d27070e421562197f032d96bcab11c5010222e8383604051610c63929190611ce2565b60405180910390a1505050565b610c78610e78565b5f1515600760029054906101000a900460ff16151514610ccd576040517f08c379a0000000000000000000000000000000000000000000000000000000008152600401610cc490611dbb565b60405180910390fd5b6001600760026101000a81548160ff021916908315150217905550600a60075f6101000a81548160ff021916908360ff1602179055507f08fd3d05bd9c1e39a2044b0a4e2fed4621113adaeeae8fc57e9f4a06777ecf0760405160405180910390a1565b60075f9054906101000a900460ff1681565b5f60015f8473ffffffffffffffffffffffffffffffffffffffff1673ffffffffffffffffffffffffffffffffffffffff1681526020019081526020015f205f8373ffffffffffffffffffffffffffffffffffffffff1673ffffffffffffffffffffffffffffffffffffffff1681526020019081526020015f2054905092915050565b5f600760019054906101000a900460ff16905090565b610de3610e78565b5f73ffffffffffffffffffffffffffffffffffffffff168173ffffffffffffffffffffffffffffffffffffffff1603610e53575f6040517f1e4fbdf7000000000000000000000000000000000000000000000000000000008152600401610e4a9190611870565b60405180910390fd5b610e5c81611081565b50565b5f33905090565b610e738383836001611144565b505050565b610e80610e5f565b73ffffffffffffffffffffffffffffffffffffffff16610e9e61091e565b73ffffffffffffffffffffffffffffffffffffffff1614610efd57610ec1610e5f565b6040517f118cdaa7000000000000000000000000000000000000000000000000000000008152600401610ef49190611870565b60405180910390fd5b565b5f610f0a8484610d43565b90507fffffffffffffffffffffffffffffffffffffffffffffffffffffffffffffffff8114610f8b5781811015610f7c578281836040517ffb8f41b2000000000000000000000000000000000000000000000000000000008152600401610f7393929190611dd9565b60405180910390fd5b610f8a84848484035f611144565b5b50505050565b5f73ffffffffffffffffffffffffffffffffffffffff168373ffffffffffffffffffffffffffffffffffffffff1603611001575f6040517f96c6fd1e000000000000000000000000000000000000000000000000000000008152600401610ff89190611870565b60405180910390fd5b5f73ffffffffffffffffffffffffffffffffffffffff168273ffffffffffffffffffffffffffffffffffffffff1603611071575f6040517fec442f050000000000000000000000000000000000000000000000000000000081526004016110689190611870565b60405180910390fd5b61107c838383611313565b505050565b5f60055f9054906101000a900473ffffffffffffffffffffffffffffffffffffffff1690508160055f6101000a81548173ffffffffffffffffffffffffffffffffffffffff021916908373ffffffffffffffffffffffffffffffffffffffff1602179055508173ffffffffffffffffffffffffffffffffffffffff168173ffffffffffffffffffffffffffffffffffffffff167f8be0079c531659141344cd1fd0a4f28419497f9722a3daafe3b4186f6b6457e060405160405180910390a35050565b5f73ffffffffffffffffffffffffffffffffffffffff168473ffffffffffffffffffffffffffffffffffffffff16036111b4575f6040517fe602df050000000000000000000000000000000000000000000000000000000081526004016111ab9190611870565b60405180910390fd5b5f73ffffffffffffffffffffffffffffffffffffffff168373ffffffffffffffffffffffffffffffffffffffff1603611224575f6040517f94280d6200000000000000000000000000000000000000000000000000000000815260040161121b9190611870565b60405180910390fd5b8160015f8673ffffffffffffffffffffffffffffffffffffffff1673ffffffffffffffffffffffffffffffffffffffff1681526020019081526020015f205f8573ffffffffffffffffffffffffffffffffffffffff1673ffffffffffffffffffffffffffffffffffffffff1681526020019081526020015f2081905550801561130d578273ffffffffffffffffffffffffffffffffffffffff168473ffffffffffffffffffffffffffffffffffffffff167f8c5be1e5ebec7d5bd14f71427d1e84f3dd0314c0f7b2291e5b200ac8c7c3b925846040516113049190611ab3565b60405180910390a35b50505050565b5f61131d846108c6565b905081811015611362576040517f08c379a000000000000000000000000000000000000000000000000000000000815260040161135990611e7e565b60405180910390fd5b5f60065f8673ffffffffffffffffffffffffffffffffffffffff1673ffffffffffffffffffffffffffffffffffffffff1681526020019081526020015f206040518060400160405290815f82015f9054906101000a900460ff161515151581526020015f820160019054906101000a900460ff16151515158152505090505f60065f8673ffffffffffffffffffffffffffffffffffffffff1673ffffffffffffffffffffffffffffffffffffffff1681526020019081526020015f206040518060400160405290815f82015f9054906101000a900460ff161515151581526020015f820160019054906101000a900460ff16151515158152505090505f826020015180611470575081602001515b90505f835f0151806114825750825f01515b1561155157600760029054906101000a900460ff16806114d457506114a561091e565b73ffffffffffffffffffffffffffffffffffffffff163373ffffffffffffffffffffffffffffffffffffffff16145b8061151157506114e261091e565b73ffffffffffffffffffffffffffffffffffffffff163273ffffffffffffffffffffffffffffffffffffffff16145b611550576040517f08c379a000000000000000000000000000000000000000000000000000000000815260040161154790611ee6565b60405180910390fd5b5b825f0151801561156457505f1515821515145b801561157c5750600760019054906101000a900460ff165b156115b157606460075f9054906101000a900460ff1660ff16876115a09190611f31565b6115aa9190611f9f565b90506115b5565b5f90505b5f81141580156115d757505f1515600760039054906101000a900460ff161515145b15611602576115f2888883896115ed9190611fcf565b611618565b6115fd883083611618565b61160e565b61160d888888611618565b5b5050505050505050565b5f73ffffffffffffffffffffffffffffffffffffffff168373ffffffffffffffffffffffffffffffffffffffff1603611668578060025f82825461165c9190612002565b92505081905550611736565b5f805f8573ffffffffffffffffffffffffffffffffffffffff1673ffffffffffffffffffffffffffffffffffffffff1681526020019081526020015f20549050818110156116f1578381836040517fe450d38c0000000000000000000000000000000000000000000000000000000081526004016116e893929190611dd9565b60405180910390fd5b8181035f808673ffffffffffffffffffffffffffffffffffffffff1673ffffffffffffffffffffffffffffffffffffffff1681526020019081526020015f2081905550505b5f73ffffffffffffffffffffffffffffffffffffffff168273ffffffffffffffffffffffffffffffffffffffff160361177d578060025f82825403925050819055506117c7565b805f808473ffffffffffffffffffffffffffffffffffffffff1673ffffffffffffffffffffffffffffffffffffffff1681526020019081526020015f205f82825401925050819055505b8173ffffffffffffffffffffffffffffffffffffffff168373ffffffffffffffffffffffffffffffffffffffff167fddf252ad1be2c89b69c2b068fc378daa952ba7f163c4a11628f55a4df523b3ef836040516118249190611ab3565b60405180910390a3505050565b5f73ffffffffffffffffffffffffffffffffffffffff82169050919050565b5f61185a82611831565b9050919050565b61186a81611850565b82525050565b5f6020820190506118835f830184611861565b92915050565b5f81519050919050565b5f82825260208201905092915050565b5f5b838110156118c05780820151818401526020810190506118a5565b5f8484015250505050565b5f601f19601f8301169050919050565b5f6118e582611889565b6118ef8185611893565b93506118ff8185602086016118a3565b611908816118cb565b840191505092915050565b5f6020820190508181035f83015261192b81846118db565b905092915050565b5f80fd5b61194081611850565b811461194a575f80fd5b50565b5f8135905061195b81611937565b92915050565b5f819050919050565b61197381611961565b811461197d575f80fd5b50565b5f8135905061198e8161196a565b92915050565b5f80604083850312156119aa576119a9611933565b5b5f6119b78582860161194d565b92505060206119c885828601611980565b9150509250929050565b5f8115159050919050565b6119e6816119d2565b82525050565b5f6020820190506119ff5f8301846119dd565b92915050565b5f819050919050565b5f611a28611a23611a1e84611831565b611a05565b611831565b9050919050565b5f611a3982611a0e565b9050919050565b5f611a4a82611a2f565b9050919050565b611a5a81611a40565b82525050565b5f602082019050611a735f830184611a51565b92915050565b5f60208284031215611a8e57611a8d611933565b5b5f611a9b8482850161194d565b91505092915050565b611aad81611961565b82525050565b5f602082019050611ac65f830184611aa4565b92915050565b611ad5816119d2565b8114611adf575f80fd5b50565b5f81359050611af081611acc565b92915050565b5f8060408385031215611b0c57611b0b611933565b5b5f611b198582860161194d565b9250506020611b2a85828601611ae2565b9150509250929050565b5f805f60608486031215611b4b57611b4a611933565b5b5f611b588682870161194d565b9350506020611b698682870161194d565b9250506040611b7a86828701611980565b9150509250925092565b5f60ff82169050919050565b611b9981611b84565b82525050565b5f602082019050611bb25f830184611b90565b92915050565b5f604082019050611bcb5f8301856119dd565b611bd860208301846119dd565b9392505050565b5f8060408385031215611bf557611bf4611933565b5b5f611c028582860161194d565b9250506020611c138582860161194d565b9150509250929050565b7f4e487b71000000000000000000000000000000000000000000000000000000005f52602260045260245ffd5b5f6002820490506001821680611c6157607f821691505b602082108103611c7457611c73611c1d565b5b50919050565b7f43616e2774206368616e676520636f6e747261637400000000000000000000005f82015250565b5f611cae601583611893565b9150611cb982611c7a565b602082019050919050565b5f6020820190508181035f830152611cdb81611ca2565b9050919050565b5f604082019050611cf55f830185611861565b611d0260208301846119dd565b9392505050565b7f63616e74206368616e676520636f6e74726163740000000000000000000000005f82015250565b5f611d3d601483611893565b9150611d4882611d09565b602082019050919050565b5f6020820190508181035f830152611d6a81611d31565b9050919050565b7f54726164696e6720616c7265616479206f70656e0000000000000000000000005f82015250565b5f611da5601483611893565b9150611db082611d71565b602082019050919050565b5f6020820190508181035f830152611dd281611d99565b9050919050565b5f606082019050611dec5f830186611861565b611df96020830185611aa4565b611e066040830184611aa4565b949350505050565b7f45524332303a207472616e7366657220616d6f756e74206578636565647320625f8201527f616c616e63650000000000000000000000000000000000000000000000000000602082015250565b5f611e68602683611893565b9150611e7382611e0e565b604082019050919050565b5f6020820190508181035f830152611e9581611e5c565b9050919050565b7f546f6b656e3a2054726164696e67206e6f74206f70656e2079657400000000005f82015250565b5f611ed0601b83611893565b9150611edb82611e9c565b602082019050919050565b5f6020820190508181035f830152611efd81611ec4565b9050919050565b7f4e487b71000000000000000000000000000000000000000000000000000000005f52601160045260245ffd5b5f611f3b82611961565b9150611f4683611961565b9250828202611f5481611961565b91508282048414831517611f6b57611f6a611f04565b5b5092915050565b7f4e487b71000000000000000000000000000000000000000000000000000000005f52601260045260245ffd5b5f611fa982611961565b9150611fb483611961565b925082611fc457611fc3611f72565b5b828204905092915050565b5f611fd982611961565b9150611fe483611961565b9250828203905081811115611ffc57611ffb611f04565b5b92915050565b5f61200c82611961565b915061201783611961565b925082820190508082111561202f5761202e611f04565b5b9291505056fea26469706673582212200e50aaff78809fc605ed3f2eefa5f49804f25c117c7f49457822c2591c7bd50264736f6c63430008140033",
  "immutableReferences": {},
  "source": "// SPDX-License-Identifier: MIT\r\npragma solidity ^0.8.20;\r\n\r\nimport \"@openzeppelin/contracts/token/ERC20/ERC20.sol\";\r\nimport \"@openzeppelin/contracts/token/ERC20/utils/SafeERC20.sol\";\r\nimport \"@openzeppelin/contracts/token/ERC20/extensions/ERC20Burnable.sol\";\r\nimport \"@openzeppelin/contracts/access/Ownable.sol\";\r\nimport \"@uniswap/v2-periphery/contracts/interfaces/IUniswapV2Router02.sol\";\r\nimport \"@uniswap/v2-core/contracts/interfaces/IUniswapV2Factory.sol\";\r\n\r\ncontract Token is ERC20, Ownable {\r\n    using SafeERC20 for IERC20;\r\n    /*//////////////////////////////////////////////////////////////\r\n                            TAX VARIABLES\r\n    //////////////////////////////////////////////////////////////*/\r\n    struct WalletState {\r\n        bool isMarketPair;\r\n        bool isExemptFromTax;\r\n    }\r\n    // Saves gas!\r\n    mapping(address => WalletState) public walletStates;\r\n\r\n    // Set to 10/10 when trading is open. SetTaxes can only set it\r\n    // up to 10/10.\r\n\r\n    uint8 public sellTax = 10;\r\n\r\n    // When set is true, tax will no longer be change-able.\r\n    bool private _isTaxEnabled = true;\r\n\r\n    /*//////////////////////////////////////////////////////////////\r\n                            CONTRACT SWAP\r\n    //////////////////////////////////////////////////////////////*/\r\n\r\n    // Once switched on, can never be switched off.\r\n    bool public isTradingOpen = false;\r\n\r\n    bool private _inSwap = false;\r\n\r\n    /*//////////////////////////////////////////////////////////////\r\n                            UNISWAP\r\n    //////////////////////////////////////////////////////////////*/\r\n\r\n    IUniswapV2Router02 public uniswapV2Router;\r\n\r\n    /*//////////////////////////////////////////////////////////////\r\n                            TAX RECIPIENTS\r\n    //////////////////////////////////////////////////////////////*/\r\n\r\n    // Platform cut will be sent to this address.\r\n    // Defaults to contract creator.\r\n    address public protocolAddress;\r\n\r\n    /*//////////////////////////////////////////////////////////////\r\n                            EVENTS\r\n    //////////////////////////////////////////////////////////////*/\r\n\r\n    event ExcludedFromFeesUpdated(address wallet, bool isExcluded);\r\n    event MarketPairUpdated(address pair, bool isMarketPair);\r\n\r\n    event ProtocolAddressUpdated(address newProtocolAddress);\r\n\r\n    event TradingOpen();\r\n\r\n    /*//////////////////////////////////////////////////////////////\r\n                            MAIN LOGIC\r\n    //////////////////////////////////////////////////////////////*/\r\n\r\n    constructor() ERC20(\"Token\", \"TKN\") Ownable(msg.sender) {\r\n        super._update(address(0), msg.sender, (1_000_000_000 * 10 ** 18));\r\n\r\n        address uniswapV2Router02Address = 0x7a250d5630B4cF539739dF2C5dAcb4c659F2488D;\r\n        IUniswapV2Router02 _uniswapV2Router = IUniswapV2Router02(\r\n            uniswapV2Router02Address\r\n        );\r\n\r\n        // Create the pair and mark it as a market pair to enable taxes.\r\n        address uniswapV2Pair = IUniswapV2Factory(_uniswapV2Router.factory())\r\n            .createPair(address(this), _uniswapV2Router.WETH());\r\n        uniswapV2Router = _uniswapV2Router;\r\n        _approve(address(this), uniswapV2Router02Address, type(uint256).max);\r\n        setMarketPair(uniswapV2Pair, true);\r\n\r\n        protocolAddress = msg.sender;\r\n\r\n        // Exclude owner, this contract and Uniswap router from fees.\r\n        walletStates[msg.sender] = WalletState({\r\n            isMarketPair: false,\r\n            isExemptFromTax: true\r\n        });\r\n        emit ExcludedFromFeesUpdated(msg.sender, true);\r\n        walletStates[address(this)] = WalletState({\r\n            isMarketPair: false,\r\n            isExemptFromTax: true\r\n        });\r\n\r\n        emit ExcludedFromFeesUpdated(address(this), true);\r\n        walletStates[uniswapV2Router02Address] = WalletState({\r\n            isMarketPair: false,\r\n            isExemptFromTax: true\r\n        });\r\n        emit ExcludedFromFeesUpdated(uniswapV2Router02Address, true);\r\n    }\r\n\r\n    receive() external payable {}\r\n\r\n    /// @notice Returns if an address is excluded from tax.\r\n    function isTaxExempt(address account_) external view returns (bool) {\r\n        return walletStates[account_].isExemptFromTax;\r\n    }\r\n\r\n    /// @notice Returns if the tax is enabled or not. Tax only exists on market pairs.\r\n    function isTaxEnabled() external view returns (bool) {\r\n        return _isTaxEnabled;\r\n    }\r\n\r\n    /// @notice _update function overrides the _update function from the perent contract and contains logic for tax and tax distribution\r\n    /// @dev this override function will be called from the top level transfer and transferFrom function whenever user initates transfer or buy and sell happens\r\n    /// @dev this function breaks _mint. Use super._update instead.\r\n    /// @param from address from the amount will be transfered\r\n    /// @param to address to where the amount will be transfered\r\n    /// @param amount number of tokens to transfer\r\n    function _update(\r\n        address from,\r\n        address to,\r\n        uint256 amount\r\n    ) internal override {\r\n        // Parent ERC20 already checks that from/to are not zero address.\r\n\r\n        uint256 fromBalance = balanceOf(from);\r\n        require(\r\n            fromBalance >= amount,\r\n            \"ERC20: transfer amount exceeds balance\"\r\n        );\r\n\r\n        WalletState memory fromState = walletStates[from];\r\n        WalletState memory toState = walletStates[to];\r\n\r\n        bool isTaxExempt_ = (fromState.isExemptFromTax ||\r\n            toState.isExemptFromTax);\r\n\r\n        uint256 taxAmount;\r\n\r\n        if (fromState.isMarketPair || toState.isMarketPair) {\r\n            require(\r\n                isTradingOpen || msg.sender == owner() || tx.origin == owner(),\r\n                \"Token: Trading not open yet\"\r\n            );\r\n        }\r\n\r\n        if (toState.isMarketPair && isTaxExempt_ == false && _isTaxEnabled) {\r\n            taxAmount = (amount * sellTax) / 100;\r\n        } else {\r\n            taxAmount = 0;\r\n        }\r\n\r\n        if (taxAmount != 0 && _inSwap == false) {\r\n            super._update(from, to, amount - taxAmount);\r\n            super._update(from, address(this), taxAmount);\r\n        } else {\r\n            super._update(from, to, amount);\r\n        }\r\n    }\r\n\r\n    modifier lockTheSwap() {\r\n        _inSwap = true;\r\n        _;\r\n        _inSwap = false;\r\n    }\r\n\r\n    /*//////////////////////////////////////////////////////////////\r\n                            OWNER FUNCTIONS\r\n    //////////////////////////////////////////////////////////////*/\r\n\r\n    /// @notice Opens the trading, enabling taxes. Can only be called once.\r\n    function openTrading() external onlyOwner {\r\n        require(isTradingOpen == false, \"Trading already open\");\r\n\r\n        isTradingOpen = true;\r\n        sellTax = 10;\r\n\r\n        emit TradingOpen();\r\n    }\r\n\r\n    /// @notice Sets an address's tax exempt status.\r\n    function setTaxExempt(address account, bool isExempt) external onlyOwner {\r\n        require(account != address(this), \"Can't change contract\");\r\n        WalletState memory state = walletStates[account];\r\n        state.isExemptFromTax = isExempt;\r\n        walletStates[account] = state;\r\n        emit ExcludedFromFeesUpdated(account, isExempt);\r\n    }\r\n\r\n    /// @notice Set the receiver of platform taxes.\r\n    function setTaxAddress(address newProtocolAddress_) external onlyOwner {\r\n        protocolAddress = newProtocolAddress_;\r\n        emit ProtocolAddressUpdated(newProtocolAddress_);\r\n    }\r\n\r\n    function setMarketPair(address account, bool value) public onlyOwner {\r\n        require(account != address(this), \"cant change contract\");\r\n        WalletState memory state = walletStates[account];\r\n        state.isMarketPair = value;\r\n        walletStates[account] = state;\r\n        emit MarketPairUpdated(account, value);\r\n    }\r\n}\r\n",
  "sourcePath": "C:\\Users\\Baby\\staking-contract\\contracts\\Token.sol",
  "compiler": {
    "name": "solc",
    "version": "0.8.20+commit.a1b79de6.Emscripten.clang"
  },
  "schemaVersion": "3.4.16",
  "updatedAt": "2024-05-30T07:31:10.119Z",
  "devdoc": {
    "errors": {
      "ERC20InsufficientAllowance(address,uint256,uint256)": [
        {
          "details": "Indicates a failure with the `spender`s `allowance`. Used in transfers.",
          "params": {
            "allowance": "Amount of tokens a `spender` is allowed to operate with.",
            "needed": "Minimum amount required to perform a transfer.",
            "spender": "Address that may be allowed to operate on tokens without being their owner."
          }
        }
      ],
      "ERC20InsufficientBalance(address,uint256,uint256)": [
        {
          "details": "Indicates an error related to the current `balance` of a `sender`. Used in transfers.",
          "params": {
            "balance": "Current balance for the interacting account.",
            "needed": "Minimum amount required to perform a transfer.",
            "sender": "Address whose tokens are being transferred."
          }
        }
      ],
      "ERC20InvalidApprover(address)": [
        {
          "details": "Indicates a failure with the `approver` of a token to be approved. Used in approvals.",
          "params": {
            "approver": "Address initiating an approval operation."
          }
        }
      ],
      "ERC20InvalidReceiver(address)": [
        {
          "details": "Indicates a failure with the token `receiver`. Used in transfers.",
          "params": {
            "receiver": "Address to which tokens are being transferred."
          }
        }
      ],
      "ERC20InvalidSender(address)": [
        {
          "details": "Indicates a failure with the token `sender`. Used in transfers.",
          "params": {
            "sender": "Address whose tokens are being transferred."
          }
        }
      ],
      "ERC20InvalidSpender(address)": [
        {
          "details": "Indicates a failure with the `spender` to be approved. Used in approvals.",
          "params": {
            "spender": "Address that may be allowed to operate on tokens without being their owner."
          }
        }
      ],
      "OwnableInvalidOwner(address)": [
        {
          "details": "The owner is not a valid owner account. (eg. `address(0)`)"
        }
      ],
      "OwnableUnauthorizedAccount(address)": [
        {
          "details": "The caller account is not authorized to perform an operation."
        }
      ]
    },
    "events": {
      "Approval(address,address,uint256)": {
        "details": "Emitted when the allowance of a `spender` for an `owner` is set by a call to {approve}. `value` is the new allowance."
      },
      "Transfer(address,address,uint256)": {
        "details": "Emitted when `value` tokens are moved from one account (`from`) to another (`to`). Note that `value` may be zero."
      }
    },
    "kind": "dev",
    "methods": {
      "allowance(address,address)": {
        "details": "See {IERC20-allowance}."
      },
      "approve(address,uint256)": {
        "details": "See {IERC20-approve}. NOTE: If `value` is the maximum `uint256`, the allowance is not updated on `transferFrom`. This is semantically equivalent to an infinite approval. Requirements: - `spender` cannot be the zero address."
      },
      "balanceOf(address)": {
        "details": "See {IERC20-balanceOf}."
      },
      "decimals()": {
        "details": "Returns the number of decimals used to get its user representation. For example, if `decimals` equals `2`, a balance of `505` tokens should be displayed to a user as `5.05` (`505 / 10 ** 2`). Tokens usually opt for a value of 18, imitating the relationship between Ether and Wei. This is the default value returned by this function, unless it's overridden. NOTE: This information is only used for _display_ purposes: it in no way affects any of the arithmetic of the contract, including {IERC20-balanceOf} and {IERC20-transfer}."
      },
      "name()": {
        "details": "Returns the name of the token."
      },
      "owner()": {
        "details": "Returns the address of the current owner."
      },
      "renounceOwnership()": {
        "details": "Leaves the contract without owner. It will not be possible to call `onlyOwner` functions. Can only be called by the current owner. NOTE: Renouncing ownership will leave the contract without an owner, thereby disabling any functionality that is only available to the owner."
      },
      "symbol()": {
        "details": "Returns the symbol of the token, usually a shorter version of the name."
      },
      "totalSupply()": {
        "details": "See {IERC20-totalSupply}."
      },
      "transfer(address,uint256)": {
        "details": "See {IERC20-transfer}. Requirements: - `to` cannot be the zero address. - the caller must have a balance of at least `value`."
      },
      "transferFrom(address,address,uint256)": {
        "details": "See {IERC20-transferFrom}. Emits an {Approval} event indicating the updated allowance. This is not required by the EIP. See the note at the beginning of {ERC20}. NOTE: Does not update the allowance if the current allowance is the maximum `uint256`. Requirements: - `from` and `to` cannot be the zero address. - `from` must have a balance of at least `value`. - the caller must have allowance for ``from``'s tokens of at least `value`."
      },
      "transferOwnership(address)": {
        "details": "Transfers ownership of the contract to a new account (`newOwner`). Can only be called by the current owner."
      }
    },
    "version": 1
  },
  "userdoc": {
    "kind": "user",
    "methods": {
      "isTaxEnabled()": {
        "notice": "Returns if the tax is enabled or not. Tax only exists on market pairs."
      },
      "isTaxExempt(address)": {
        "notice": "Returns if an address is excluded from tax."
      },
      "openTrading()": {
        "notice": "Opens the trading, enabling taxes. Can only be called once."
      },
      "setTaxAddress(address)": {
        "notice": "Set the receiver of platform taxes."
      },
      "setTaxExempt(address,bool)": {
        "notice": "Sets an address's tax exempt status."
      }
    },
    "version": 1
  }
}