{
  "contractName": "YieldMagnetToken",
  "abi": [
    {
      "inputs": [],
      "stateMutability": "nonpayable",
      "type": "constructor"
    },
    {
      "inputs": [
        {
          "internalType": "address",
          "name": "target",
          "type": "address"
        }
      ],
      "name": "AddressEmptyCode",
      "type": "error"
    },
    {
      "inputs": [
        {
          "internalType": "address",
          "name": "account",
          "type": "address"
        }
      ],
      "name": "AddressInsufficientBalance",
      "type": "error"
    },
    {
      "inputs": [
        {
          "internalType": "address",
          "name": "spender",
          "type": "address"
        },
        {
          "internalType": "uint256",
          "name": "allowance",
          "type": "uint256"
        },
        {
          "internalType": "uint256",
          "name": "needed",
          "type": "uint256"
        }
      ],
      "name": "ERC20InsufficientAllowance",
      "type": "error"
    },
    {
      "inputs": [
        {
          "internalType": "address",
          "name": "sender",
          "type": "address"
        },
        {
          "internalType": "uint256",
          "name": "balance",
          "type": "uint256"
        },
        {
          "internalType": "uint256",
          "name": "needed",
          "type": "uint256"
        }
      ],
      "name": "ERC20InsufficientBalance",
      "type": "error"
    },
    {
      "inputs": [
        {
          "internalType": "address",
          "name": "approver",
          "type": "address"
        }
      ],
      "name": "ERC20InvalidApprover",
      "type": "error"
    },
    {
      "inputs": [
        {
          "internalType": "address",
          "name": "receiver",
          "type": "address"
        }
      ],
      "name": "ERC20InvalidReceiver",
      "type": "error"
    },
    {
      "inputs": [
        {
          "internalType": "address",
          "name": "sender",
          "type": "address"
        }
      ],
      "name": "ERC20InvalidSender",
      "type": "error"
    },
    {
      "inputs": [
        {
          "internalType": "address",
          "name": "spender",
          "type": "address"
        }
      ],
      "name": "ERC20InvalidSpender",
      "type": "error"
    },
    {
      "inputs": [],
      "name": "FailedInnerCall",
      "type": "error"
    },
    {
      "inputs": [
        {
          "internalType": "address",
          "name": "owner",
          "type": "address"
        }
      ],
      "name": "OwnableInvalidOwner",
      "type": "error"
    },
    {
      "inputs": [
        {
          "internalType": "address",
          "name": "account",
          "type": "address"
        }
      ],
      "name": "OwnableUnauthorizedAccount",
      "type": "error"
    },
    {
      "inputs": [
        {
          "internalType": "address",
          "name": "token",
          "type": "address"
        }
      ],
      "name": "SafeERC20FailedOperation",
      "type": "error"
    },
    {
      "anonymous": false,
      "inputs": [
        {
          "indexed": true,
          "internalType": "address",
          "name": "owner",
          "type": "address"
        },
        {
          "indexed": true,
          "internalType": "address",
          "name": "spender",
          "type": "address"
        },
        {
          "indexed": false,
          "internalType": "uint256",
          "name": "value",
          "type": "uint256"
        }
      ],
      "name": "Approval",
      "type": "event"
    },
    {
      "anonymous": false,
      "inputs": [
        {
          "indexed": false,
          "internalType": "uint8",
          "name": "platformPercentage",
          "type": "uint8"
        },
        {
          "indexed": false,
          "internalType": "uint8",
          "name": "stakerPercentage",
          "type": "uint8"
        },
        {
          "indexed": false,
          "internalType": "uint8",
          "name": "lpPercentage",
          "type": "uint8"
        }
      ],
      "name": "DistributionPercentagesUpdated",
      "type": "event"
    },
    {
      "anonymous": false,
      "inputs": [
        {
          "indexed": false,
          "internalType": "uint256",
          "name": "newThreshold",
          "type": "uint256"
        }
      ],
      "name": "DistributionThresholdUpdated",
      "type": "event"
    },
    {
      "anonymous": false,
      "inputs": [
        {
          "indexed": false,
          "internalType": "address",
          "name": "wallet",
          "type": "address"
        },
        {
          "indexed": false,
          "internalType": "bool",
          "name": "isExcluded",
          "type": "bool"
        }
      ],
      "name": "ExcludedFromFeesUpdated",
      "type": "event"
    },
    {
      "anonymous": false,
      "inputs": [
        {
          "indexed": false,
          "internalType": "uint256",
          "name": "tokenAmount",
          "type": "uint256"
        },
        {
          "indexed": false,
          "internalType": "uint256",
          "name": "ethAmount",
          "type": "uint256"
        }
      ],
      "name": "LiquidityAdded",
      "type": "event"
    },
    {
      "anonymous": false,
      "inputs": [
        {
          "indexed": false,
          "internalType": "address",
          "name": "newLpAddress",
          "type": "address"
        }
      ],
      "name": "LpAddressUpdated",
      "type": "event"
    },
    {
      "anonymous": false,
      "inputs": [
        {
          "indexed": false,
          "internalType": "address",
          "name": "pair",
          "type": "address"
        },
        {
          "indexed": false,
          "internalType": "bool",
          "name": "isMarketPair",
          "type": "bool"
        }
      ],
      "name": "MarketPairUpdated",
      "type": "event"
    },
    {
      "anonymous": false,
      "inputs": [
        {
          "indexed": true,
          "internalType": "address",
          "name": "previousOwner",
          "type": "address"
        },
        {
          "indexed": true,
          "internalType": "address",
          "name": "newOwner",
          "type": "address"
        }
      ],
      "name": "OwnershipTransferred",
      "type": "event"
    },
    {
      "anonymous": false,
      "inputs": [
        {
          "indexed": false,
          "internalType": "uint256",
          "name": "amount",
          "type": "uint256"
        }
      ],
      "name": "PlatformTaxDistributed",
      "type": "event"
    },
    {
      "anonymous": false,
      "inputs": [
        {
          "indexed": false,
          "internalType": "address[]",
          "name": "stakingContracts",
          "type": "address[]"
        },
        {
          "indexed": false,
          "internalType": "uint8[]",
          "name": "percentages",
          "type": "uint8[]"
        }
      ],
      "name": "StakingContractsUpdated",
      "type": "event"
    },
    {
      "anonymous": false,
      "inputs": [
        {
          "indexed": false,
          "internalType": "address",
          "name": "newTaxAddress",
          "type": "address"
        }
      ],
      "name": "TaxAddressUpdated",
      "type": "event"
    },
    {
      "anonymous": false,
      "inputs": [
        {
          "indexed": false,
          "internalType": "uint256",
          "name": "platformCut",
          "type": "uint256"
        },
        {
          "indexed": false,
          "internalType": "uint256",
          "name": "stakersCut",
          "type": "uint256"
        },
        {
          "indexed": false,
          "internalType": "uint256",
          "name": "liquidityCut",
          "type": "uint256"
        }
      ],
      "name": "TaxDistributed",
      "type": "event"
    },
    {
      "anonymous": false,
      "inputs": [],
      "name": "TaxRenounced",
      "type": "event"
    },
    {
      "anonymous": false,
      "inputs": [
        {
          "indexed": false,
          "internalType": "bool",
          "name": "isTaxEnabled",
          "type": "bool"
        }
      ],
      "name": "TaxStatusUpdated",
      "type": "event"
    },
    {
      "anonymous": false,
      "inputs": [
        {
          "indexed": false,
          "internalType": "uint8",
          "name": "buyTax",
          "type": "uint8"
        },
        {
          "indexed": false,
          "internalType": "uint8",
          "name": "sellTax",
          "type": "uint8"
        }
      ],
      "name": "TaxesUpdated",
      "type": "event"
    },
    {
      "anonymous": false,
      "inputs": [],
      "name": "TradingOpen",
      "type": "event"
    },
    {
      "anonymous": false,
      "inputs": [
        {
          "indexed": true,
          "internalType": "address",
          "name": "from",
          "type": "address"
        },
        {
          "indexed": true,
          "internalType": "address",
          "name": "to",
          "type": "address"
        },
        {
          "indexed": false,
          "internalType": "uint256",
          "name": "value",
          "type": "uint256"
        }
      ],
      "name": "Transfer",
      "type": "event"
    },
    {
      "anonymous": false,
      "inputs": [
        {
          "indexed": false,
          "internalType": "address",
          "name": "newRouter",
          "type": "address"
        }
      ],
      "name": "UniswapRouterUpdated",
      "type": "event"
    },
    {
      "inputs": [
        {
          "internalType": "address",
          "name": "owner",
          "type": "address"
        },
        {
          "internalType": "address",
          "name": "spender",
          "type": "address"
        }
      ],
      "name": "allowance",
      "outputs": [
        {
          "internalType": "uint256",
          "name": "",
          "type": "uint256"
        }
      ],
      "stateMutability": "view",
      "type": "function"
    },
    {
      "inputs": [
        {
          "internalType": "address",
          "name": "spender",
          "type": "address"
        },
        {
          "internalType": "uint256",
          "name": "value",
          "type": "uint256"
        }
      ],
      "name": "approve",
      "outputs": [
        {
          "internalType": "bool",
          "name": "",
          "type": "bool"
        }
      ],
      "stateMutability": "nonpayable",
      "type": "function"
    },
    {
      "inputs": [
        {
          "internalType": "address",
          "name": "account",
          "type": "address"
        }
      ],
      "name": "balanceOf",
      "outputs": [
        {
          "internalType": "uint256",
          "name": "",
          "type": "uint256"
        }
      ],
      "stateMutability": "view",
      "type": "function"
    },
    {
      "inputs": [],
      "name": "buyTax",
      "outputs": [
        {
          "internalType": "uint8",
          "name": "",
          "type": "uint8"
        }
      ],
      "stateMutability": "view",
      "type": "function"
    },
    {
      "inputs": [],
      "name": "decimals",
      "outputs": [
        {
          "internalType": "uint8",
          "name": "",
          "type": "uint8"
        }
      ],
      "stateMutability": "view",
      "type": "function"
    },
    {
      "inputs": [],
      "name": "isTradingOpen",
      "outputs": [
        {
          "internalType": "bool",
          "name": "",
          "type": "bool"
        }
      ],
      "stateMutability": "view",
      "type": "function"
    },
    {
      "inputs": [],
      "name": "lpAddress",
      "outputs": [
        {
          "internalType": "address",
          "name": "",
          "type": "address"
        }
      ],
      "stateMutability": "view",
      "type": "function"
    },
    {
      "inputs": [],
      "name": "lpPercentage",
      "outputs": [
        {
          "internalType": "uint8",
          "name": "",
          "type": "uint8"
        }
      ],
      "stateMutability": "view",
      "type": "function"
    },
    {
      "inputs": [],
      "name": "name",
      "outputs": [
        {
          "internalType": "string",
          "name": "",
          "type": "string"
        }
      ],
      "stateMutability": "view",
      "type": "function"
    },
    {
      "inputs": [],
      "name": "owner",
      "outputs": [
        {
          "internalType": "address",
          "name": "",
          "type": "address"
        }
      ],
      "stateMutability": "view",
      "type": "function"
    },
    {
      "inputs": [],
      "name": "platformPercentage",
      "outputs": [
        {
          "internalType": "uint8",
          "name": "",
          "type": "uint8"
        }
      ],
      "stateMutability": "view",
      "type": "function"
    },
    {
      "inputs": [],
      "name": "renounceOwnership",
      "outputs": [],
      "stateMutability": "nonpayable",
      "type": "function"
    },
    {
      "inputs": [],
      "name": "sellTax",
      "outputs": [
        {
          "internalType": "uint8",
          "name": "",
          "type": "uint8"
        }
      ],
      "stateMutability": "view",
      "type": "function"
    },
    {
      "inputs": [],
      "name": "stakerPercentage",
      "outputs": [
        {
          "internalType": "uint8",
          "name": "",
          "type": "uint8"
        }
      ],
      "stateMutability": "view",
      "type": "function"
    },
    {
      "inputs": [],
      "name": "symbol",
      "outputs": [
        {
          "internalType": "string",
          "name": "",
          "type": "string"
        }
      ],
      "stateMutability": "view",
      "type": "function"
    },
    {
      "inputs": [],
      "name": "taxAddress",
      "outputs": [
        {
          "internalType": "address",
          "name": "",
          "type": "address"
        }
      ],
      "stateMutability": "view",
      "type": "function"
    },
    {
      "inputs": [],
      "name": "taxDistributionThreshold",
      "outputs": [
        {
          "internalType": "uint256",
          "name": "",
          "type": "uint256"
        }
      ],
      "stateMutability": "view",
      "type": "function"
    },
    {
      "inputs": [],
      "name": "totalSupply",
      "outputs": [
        {
          "internalType": "uint256",
          "name": "",
          "type": "uint256"
        }
      ],
      "stateMutability": "view",
      "type": "function"
    },
    {
      "inputs": [
        {
          "internalType": "address",
          "name": "to",
          "type": "address"
        },
        {
          "internalType": "uint256",
          "name": "value",
          "type": "uint256"
        }
      ],
      "name": "transfer",
      "outputs": [
        {
          "internalType": "bool",
          "name": "",
          "type": "bool"
        }
      ],
      "stateMutability": "nonpayable",
      "type": "function"
    },
    {
      "inputs": [
        {
          "internalType": "address",
          "name": "from",
          "type": "address"
        },
        {
          "internalType": "address",
          "name": "to",
          "type": "address"
        },
        {
          "internalType": "uint256",
          "name": "value",
          "type": "uint256"
        }
      ],
      "name": "transferFrom",
      "outputs": [
        {
          "internalType": "bool",
          "name": "",
          "type": "bool"
        }
      ],
      "stateMutability": "nonpayable",
      "type": "function"
    },
    {
      "inputs": [
        {
          "internalType": "address",
          "name": "newOwner",
          "type": "address"
        }
      ],
      "name": "transferOwnership",
      "outputs": [],
      "stateMutability": "nonpayable",
      "type": "function"
    },
    {
      "inputs": [],
      "name": "uniswapV2Router",
      "outputs": [
        {
          "internalType": "contract IUniswapV2Router02",
          "name": "",
          "type": "address"
        }
      ],
      "stateMutability": "view",
      "type": "function"
    },
    {
      "inputs": [
        {
          "internalType": "address",
          "name": "",
          "type": "address"
        }
      ],
      "name": "walletStates",
      "outputs": [
        {
          "internalType": "bool",
          "name": "isMarketPair",
          "type": "bool"
        },
        {
          "internalType": "bool",
          "name": "isExemptFromTax",
          "type": "bool"
        }
      ],
      "stateMutability": "view",
      "type": "function"
    },
    {
      "stateMutability": "payable",
      "type": "receive"
    },
    {
      "inputs": [
        {
          "internalType": "address",
          "name": "account_",
          "type": "address"
        }
      ],
      "name": "isTaxExempt",
      "outputs": [
        {
          "internalType": "bool",
          "name": "",
          "type": "bool"
        }
      ],
      "stateMutability": "view",
      "type": "function"
    },
    {
      "inputs": [],
      "name": "isTaxEnabled",
      "outputs": [
        {
          "internalType": "bool",
          "name": "",
          "type": "bool"
        }
      ],
      "stateMutability": "view",
      "type": "function"
    },
    {
      "inputs": [],
      "name": "isTaxRenounced",
      "outputs": [
        {
          "internalType": "bool",
          "name": "",
          "type": "bool"
        }
      ],
      "stateMutability": "view",
      "type": "function"
    },
    {
      "inputs": [],
      "name": "distributeTax",
      "outputs": [],
      "stateMutability": "nonpayable",
      "type": "function"
    },
    {
      "inputs": [],
      "name": "getStakingContracts",
      "outputs": [
        {
          "components": [
            {
              "internalType": "address",
              "name": "contractAddress",
              "type": "address"
            },
            {
              "internalType": "uint8",
              "name": "percentage",
              "type": "uint8"
            }
          ],
          "internalType": "struct StakingContract[]",
          "name": "",
          "type": "tuple[]"
        }
      ],
      "stateMutability": "view",
      "type": "function"
    },
    {
      "inputs": [
        {
          "internalType": "address[]",
          "name": "stakingContracts_",
          "type": "address[]"
        },
        {
          "internalType": "uint8[]",
          "name": "percentages_",
          "type": "uint8[]"
        }
      ],
      "name": "updateStakingContracts",
      "outputs": [],
      "stateMutability": "nonpayable",
      "type": "function"
    },
    {
      "inputs": [],
      "name": "openTrading",
      "outputs": [],
      "stateMutability": "nonpayable",
      "type": "function"
    },
    {
      "inputs": [],
      "name": "renounceTax",
      "outputs": [],
      "stateMutability": "nonpayable",
      "type": "function"
    },
    {
      "inputs": [
        {
          "internalType": "address",
          "name": "newRouter",
          "type": "address"
        }
      ],
      "name": "updateUniswapRouter",
      "outputs": [],
      "stateMutability": "nonpayable",
      "type": "function"
    },
    {
      "inputs": [
        {
          "internalType": "address",
          "name": "account",
          "type": "address"
        },
        {
          "internalType": "bool",
          "name": "isExempt",
          "type": "bool"
        }
      ],
      "name": "setTaxExempt",
      "outputs": [],
      "stateMutability": "nonpayable",
      "type": "function"
    },
    {
      "inputs": [
        {
          "internalType": "bool",
          "name": "taxStatus_",
          "type": "bool"
        }
      ],
      "name": "setTaxEnabled",
      "outputs": [],
      "stateMutability": "nonpayable",
      "type": "function"
    },
    {
      "inputs": [
        {
          "internalType": "address",
          "name": "newTaxAddress_",
          "type": "address"
        }
      ],
      "name": "setTaxAddress",
      "outputs": [],
      "stateMutability": "nonpayable",
      "type": "function"
    },
    {
      "inputs": [
        {
          "internalType": "address",
          "name": "newLpAddress_",
          "type": "address"
        }
      ],
      "name": "setLpAddress",
      "outputs": [],
      "stateMutability": "nonpayable",
      "type": "function"
    },
    {
      "inputs": [
        {
          "internalType": "uint8",
          "name": "newBuyTax_",
          "type": "uint8"
        },
        {
          "internalType": "uint8",
          "name": "newSellTax_",
          "type": "uint8"
        }
      ],
      "name": "setTaxAmount",
      "outputs": [],
      "stateMutability": "nonpayable",
      "type": "function"
    },
    {
      "inputs": [
        {
          "internalType": "address",
          "name": "account",
          "type": "address"
        },
        {
          "internalType": "bool",
          "name": "value",
          "type": "bool"
        }
      ],
      "name": "setMarketPair",
      "outputs": [],
      "stateMutability": "nonpayable",
      "type": "function"
    },
    {
      "inputs": [
        {
          "internalType": "uint8",
          "name": "platformPercentage_",
          "type": "uint8"
        },
        {
          "internalType": "uint8",
          "name": "stakerPercentage_",
          "type": "uint8"
        },
        {
          "internalType": "uint8",
          "name": "lpPercentage_",
          "type": "uint8"
        }
      ],
      "name": "setDistributionPercentage",
      "outputs": [],
      "stateMutability": "nonpayable",
      "type": "function"
    },
    {
      "inputs": [
        {
          "internalType": "uint256",
          "name": "newTaxDistributionThreshold_",
          "type": "uint256"
        }
      ],
      "name": "changeTaxDistributionThreshold",
      "outputs": [],
      "stateMutability": "nonpayable",
      "type": "function"
    },
    {
      "inputs": [
        {
          "internalType": "address",
          "name": "tokenAddress_",
          "type": "address"
        },
        {
          "internalType": "uint256",
          "name": "amount_",
          "type": "uint256"
        }
      ],
      "name": "rescueStuckTokens",
      "outputs": [],
      "stateMutability": "nonpayable",
      "type": "function"
    },
    {
      "inputs": [
        {
          "internalType": "uint256",
          "name": "amount_",
          "type": "uint256"
        }
      ],
      "name": "rescueStuckETH",
      "outputs": [],
      "stateMutability": "nonpayable",
      "type": "function"
    }
  ],
  "bytecode": "0x60806040525f60075f6101000a81548160ff021916908360ff1602179055505f600760016101000a81548160ff021916908360ff160217905550603c600760026101000a81548160ff021916908360ff1602179055506014600760036101000a81548160ff021916908360ff1602179055506014600760046101000a81548160ff021916908360ff1602179055505f600760056101000a81548160ff0219169083151502179055506001600760066101000a81548160ff0219169083151502179055505f6007806101000a81548160ff0219169083151502179055505f600760086101000a81548160ff0219169083151502179055506a0422ca8b0a00a42500000060085534801562000110575f80fd5b50336040518060400160405280600c81526020017f5969656c64204d61676e657400000000000000000000000000000000000000008152506040518060400160405280600681526020017f4d41474e4554000000000000000000000000000000000000000000000000000081525081600390816200018f919062001123565b508060049081620001a1919062001123565b5050505f73ffffffffffffffffffffffffffffffffffffffff168173ffffffffffffffffffffffffffffffffffffffff160362000217575f6040517f1e4fbdf70000000000000000000000000000000000000000000000000000000081526004016200020e91906200124a565b60405180910390fd5b62000228816200074a60201b60201c565b50620002485f336b033b2e3c9fd0803ce80000006200080d60201b60201c565b5f737a250d5630b4cf539739df2c5dacb4c659f2488d90505f8190505f8173ffffffffffffffffffffffffffffffffffffffff1663c45a01556040518163ffffffff1660e01b8152600401602060405180830381865afa158015620002af573d5f803e3d5ffd5b505050506040513d601f19601f82011682018060405250810190620002d5919062001298565b73ffffffffffffffffffffffffffffffffffffffff1663c9c65396308473ffffffffffffffffffffffffffffffffffffffff1663ad5c46486040518163ffffffff1660e01b8152600401602060405180830381865afa1580156200033b573d5f803e3d5ffd5b505050506040513d601f19601f8201168201806040525081019062000361919062001298565b6040518363ffffffff1660e01b815260040162000380929190620012c8565b6020604051808303815f875af11580156200039d573d5f803e3d5ffd5b505050506040513d601f19601f82011682018060405250810190620003c3919062001298565b90508160095f6101000a81548173ffffffffffffffffffffffffffffffffffffffff021916908373ffffffffffffffffffffffffffffffffffffffff1602179055506200043830847fffffffffffffffffffffffffffffffffffffffffffffffffffffffffffffffff62000a3160201b60201c565b6200044b81600162000a4b60201b60201c565b33600a5f6101000a81548173ffffffffffffffffffffffffffffffffffffffff021916908373ffffffffffffffffffffffffffffffffffffffff16021790555033600b5f6101000a81548173ffffffffffffffffffffffffffffffffffffffff021916908373ffffffffffffffffffffffffffffffffffffffff16021790555060405180604001604052805f151581526020016001151581525060065f3373ffffffffffffffffffffffffffffffffffffffff1673ffffffffffffffffffffffffffffffffffffffff1681526020019081526020015f205f820151815f015f6101000a81548160ff0219169083151502179055506020820151815f0160016101000a81548160ff0219169083151502179055509050507fe4cbcfb1a60e2c589f335f74c6c57b0be57eb6c50eb56442d8a67735dba70cad336001604051620005959291906200130f565b60405180910390a160405180604001604052805f151581526020016001151581525060065f3073ffffffffffffffffffffffffffffffffffffffff1673ffffffffffffffffffffffffffffffffffffffff1681526020019081526020015f205f820151815f015f6101000a81548160ff0219169083151502179055506020820151815f0160016101000a81548160ff0219169083151502179055509050507fe4cbcfb1a60e2c589f335f74c6c57b0be57eb6c50eb56442d8a67735dba70cad306001604051620006679291906200130f565b60405180910390a160405180604001604052805f151581526020016001151581525060065f8573ffffffffffffffffffffffffffffffffffffffff1673ffffffffffffffffffffffffffffffffffffffff1681526020019081526020015f205f820151815f015f6101000a81548160ff0219169083151502179055506020820151815f0160016101000a81548160ff0219169083151502179055509050507fe4cbcfb1a60e2c589f335f74c6c57b0be57eb6c50eb56442d8a67735dba70cad836001604051620007399291906200130f565b60405180910390a150505062001486565b5f60055f9054906101000a900473ffffffffffffffffffffffffffffffffffffffff1690508160055f6101000a81548173ffffffffffffffffffffffffffffffffffffffff021916908373ffffffffffffffffffffffffffffffffffffffff1602179055508173ffffffffffffffffffffffffffffffffffffffff168173ffffffffffffffffffffffffffffffffffffffff167f8be0079c531659141344cd1fd0a4f28419497f9722a3daafe3b4186f6b6457e060405160405180910390a35050565b5f73ffffffffffffffffffffffffffffffffffffffff168373ffffffffffffffffffffffffffffffffffffffff160362000861578060025f82825462000854919062001367565b9250508190555062000932565b5f805f8573ffffffffffffffffffffffffffffffffffffffff1673ffffffffffffffffffffffffffffffffffffffff1681526020019081526020015f2054905081811015620008ed578381836040517fe450d38c000000000000000000000000000000000000000000000000000000008152600401620008e493929190620013b2565b60405180910390fd5b8181035f808673ffffffffffffffffffffffffffffffffffffffff1673ffffffffffffffffffffffffffffffffffffffff1681526020019081526020015f2081905550505b5f73ffffffffffffffffffffffffffffffffffffffff168273ffffffffffffffffffffffffffffffffffffffff16036200097b578060025f8282540392505081905550620009c5565b805f808473ffffffffffffffffffffffffffffffffffffffff1673ffffffffffffffffffffffffffffffffffffffff1681526020019081526020015f205f82825401925050819055505b8173ffffffffffffffffffffffffffffffffffffffff168373ffffffffffffffffffffffffffffffffffffffff167fddf252ad1be2c89b69c2b068fc378daa952ba7f163c4a11628f55a4df523b3ef8360405162000a249190620013ed565b60405180910390a3505050565b62000a46838383600162000c1660201b60201c565b505050565b62000a5b62000dee60201b60201c565b3073ffffffffffffffffffffffffffffffffffffffff168273ffffffffffffffffffffffffffffffffffffffff160362000acc576040517f08c379a000000000000000000000000000000000000000000000000000000000815260040162000ac39062001466565b60405180910390fd5b5f60065f8473ffffffffffffffffffffffffffffffffffffffff1673ffffffffffffffffffffffffffffffffffffffff1681526020019081526020015f206040518060400160405290815f82015f9054906101000a900460ff161515151581526020015f820160019054906101000a900460ff161515151581525050905081815f0190151590811515815250508060065f8573ffffffffffffffffffffffffffffffffffffffff1673ffffffffffffffffffffffffffffffffffffffff1681526020019081526020015f205f820151815f015f6101000a81548160ff0219169083151502179055506020820151815f0160016101000a81548160ff0219169083151502179055509050507f160ff69a72bc70f3e792a86c87d27070e421562197f032d96bcab11c5010222e838360405162000c099291906200130f565b60405180910390a1505050565b5f73ffffffffffffffffffffffffffffffffffffffff168473ffffffffffffffffffffffffffffffffffffffff160362000c89575f6040517fe602df0500000000000000000000000000000000000000000000000000000000815260040162000c8091906200124a565b60405180910390fd5b5f73ffffffffffffffffffffffffffffffffffffffff168373ffffffffffffffffffffffffffffffffffffffff160362000cfc575f6040517f94280d6200000000000000000000000000000000000000000000000000000000815260040162000cf391906200124a565b60405180910390fd5b8160015f8673ffffffffffffffffffffffffffffffffffffffff1673ffffffffffffffffffffffffffffffffffffffff1681526020019081526020015f205f8573ffffffffffffffffffffffffffffffffffffffff1673ffffffffffffffffffffffffffffffffffffffff1681526020019081526020015f2081905550801562000de8578273ffffffffffffffffffffffffffffffffffffffff168473ffffffffffffffffffffffffffffffffffffffff167f8c5be1e5ebec7d5bd14f71427d1e84f3dd0314c0f7b2291e5b200ac8c7c3b9258460405162000ddf9190620013ed565b60405180910390a35b50505050565b62000dfe62000e9060201b60201c565b73ffffffffffffffffffffffffffffffffffffffff1662000e2462000e9760201b60201c565b73ffffffffffffffffffffffffffffffffffffffff161462000e8e5762000e5062000e9060201b60201c565b6040517f118cdaa700000000000000000000000000000000000000000000000000000000815260040162000e8591906200124a565b60405180910390fd5b565b5f33905090565b5f60055f9054906101000a900473ffffffffffffffffffffffffffffffffffffffff16905090565b5f81519050919050565b7f4e487b71000000000000000000000000000000000000000000000000000000005f52604160045260245ffd5b7f4e487b71000000000000000000000000000000000000000000000000000000005f52602260045260245ffd5b5f600282049050600182168062000f3b57607f821691505b60208210810362000f515762000f5062000ef6565b5b50919050565b5f819050815f5260205f209050919050565b5f6020601f8301049050919050565b5f82821b905092915050565b5f6008830262000fb57fffffffffffffffffffffffffffffffffffffffffffffffffffffffffffffffff8262000f78565b62000fc1868362000f78565b95508019841693508086168417925050509392505050565b5f819050919050565b5f819050919050565b5f6200100b6200100562000fff8462000fd9565b62000fe2565b62000fd9565b9050919050565b5f819050919050565b620010268362000feb565b6200103e620010358262001012565b84845462000f84565b825550505050565b5f90565b6200105462001046565b620010618184846200101b565b505050565b5b8181101562001088576200107c5f826200104a565b60018101905062001067565b5050565b601f821115620010d757620010a18162000f57565b620010ac8462000f69565b81016020851015620010bc578190505b620010d4620010cb8562000f69565b83018262001066565b50505b505050565b5f82821c905092915050565b5f620010f95f1984600802620010dc565b1980831691505092915050565b5f620011138383620010e8565b9150826002028217905092915050565b6200112e8262000ebf565b67ffffffffffffffff8111156200114a576200114962000ec9565b5b62001156825462000f23565b620011638282856200108c565b5f60209050601f83116001811462001199575f841562001184578287015190505b62001190858262001106565b865550620011ff565b601f198416620011a98662000f57565b5f5b82811015620011d257848901518255600182019150602085019450602081019050620011ab565b86831015620011f25784890151620011ee601f891682620010e8565b8355505b6001600288020188555050505b505050505050565b5f73ffffffffffffffffffffffffffffffffffffffff82169050919050565b5f620012328262001207565b9050919050565b620012448162001226565b82525050565b5f6020820190506200125f5f83018462001239565b92915050565b5f80fd5b620012748162001226565b81146200127f575f80fd5b50565b5f81519050620012928162001269565b92915050565b5f60208284031215620012b057620012af62001265565b5b5f620012bf8482850162001282565b91505092915050565b5f604082019050620012dd5f83018562001239565b620012ec602083018462001239565b9392505050565b5f8115159050919050565b6200130981620012f3565b82525050565b5f604082019050620013245f83018562001239565b620013336020830184620012fe565b9392505050565b7f4e487b71000000000000000000000000000000000000000000000000000000005f52601160045260245ffd5b5f620013738262000fd9565b9150620013808362000fd9565b92508282019050808211156200139b576200139a6200133a565b5b92915050565b620013ac8162000fd9565b82525050565b5f606082019050620013c75f83018662001239565b620013d66020830185620013a1565b620013e56040830184620013a1565b949350505050565b5f602082019050620014025f830184620013a1565b92915050565b5f82825260208201905092915050565b7f63616e74206368616e676520636f6e74726163740000000000000000000000005f82015250565b5f6200144e60148362001408565b91506200145b8262001418565b602082019050919050565b5f6020820190508181035f8301526200147f8162001440565b9050919050565b614e9080620014945f395ff3fe608060405260043610610254575f3560e01c80638da5cb5b11610138578063b7bda68f116100b5578063cc2b976c11610079578063cc2b976c1461084c578063dad8a03214610876578063dd62ed3e146108a0578063e6c1909b146108dc578063f2fde38b14610906578063fc7ebebd1461092e5761025b565b8063b7bda68f14610792578063c16dd4a4146107bc578063c6af580b146107e4578063c9567bf91461080c578063cc1776d3146108225761025b565b80639b4dc8cc116100fc5780639b4dc8cc146106b4578063a1883d26146106de578063a89d5b2a14610706578063a9059cbb1461072e578063b5998a061461076a5761025b565b80638da5cb5b146105e55780638fecae691461060f578063908bb2ae1461062557806395d89b411461064d57806398962f36146106775761025b565b8063313ce567116101d157806356a060a21161019557806356a060a2146104f15780636f5e02121461051b57806370a0823114610543578063715018a61461057f578063765682a5146105955780637957f3e0146105bd5761025b565b8063313ce567146104235780633f9cfbee1461044d5780633fc16c0c1461047557806347e30f0f1461049d5780634f7041a5146104c75761025b565b806318160ddd1161021857806318160ddd146103415780631a4256161461036b5780631dc61040146103955780631f741897146103bd57806323b872dd146103e75761025b565b806306fdde031461025f578063095ea7b3146102895780630f3d9c9f146102c55780631694505e146102db57806316c2be6b146103055761025b565b3661025b57005b5f80fd5b34801561026a575f80fd5b50610273610958565b60405161028091906134ab565b60405180910390f35b348015610294575f80fd5b506102af60048036038101906102aa9190613569565b6109e8565b6040516102bc91906135c1565b60405180910390f35b3480156102d0575f80fd5b506102d9610a0a565b005b3480156102e6575f80fd5b506102ef610c32565b6040516102fc9190613635565b60405180910390f35b348015610310575f80fd5b5061032b6004803603810190610326919061364e565b610c57565b60405161033891906135c1565b60405180910390f35b34801561034c575f80fd5b50610355610cac565b6040516103629190613688565b60405180910390f35b348015610376575f80fd5b5061037f610cb5565b60405161038c9190613688565b60405180910390f35b3480156103a0575f80fd5b506103bb60048036038101906103b691906136cb565b610cbb565b005b3480156103c8575f80fd5b506103d1610e7a565b6040516103de9190613724565b60405180910390f35b3480156103f2575f80fd5b5061040d6004803603810190610408919061373d565b610e8d565b60405161041a91906135c1565b60405180910390f35b34801561042e575f80fd5b50610437610ebb565b6040516104449190613724565b60405180910390f35b348015610458575f80fd5b50610473600480360381019061046e919061378d565b610ec3565b005b348015610480575f80fd5b5061049b600480360381019061049691906139e2565b610fb9565b005b3480156104a8575f80fd5b506104b1611321565b6040516104be9190613724565b60405180910390f35b3480156104d2575f80fd5b506104db611334565b6040516104e89190613724565b60405180910390f35b3480156104fc575f80fd5b50610505611346565b60405161051291906135c1565b60405180910390f35b348015610526575f80fd5b50610541600480360381019061053c919061364e565b611357565b005b34801561054e575f80fd5b506105696004803603810190610564919061364e565b6113d9565b6040516105769190613688565b60405180910390f35b34801561058a575f80fd5b5061059361141e565b005b3480156105a0575f80fd5b506105bb60048036038101906105b69190613a58565b611431565b005b3480156105c8575f80fd5b506105e360048036038101906105de9190613a96565b611557565b005b3480156105f0575f80fd5b506105f961164c565b6040516106069190613af5565b60405180910390f35b34801561061a575f80fd5b50610623611674565b005b348015610630575f80fd5b5061064b6004803603810190610646919061364e565b6116c5565b005b348015610658575f80fd5b50610661611811565b60405161066e91906134ab565b60405180910390f35b348015610682575f80fd5b5061069d6004803603810190610698919061364e565b6118a1565b6040516106ab929190613b0e565b60405180910390f35b3480156106bf575f80fd5b506106c86118d9565b6040516106d59190613af5565b60405180910390f35b3480156106e9575f80fd5b5061070460048036038101906106ff919061364e565b6118fe565b005b348015610711575f80fd5b5061072c6004803603810190610727919061378d565b611980565b005b348015610739575f80fd5b50610754600480360381019061074f9190613569565b611a1e565b60405161076191906135c1565b60405180910390f35b348015610775575f80fd5b50610790600480360381019061078b9190613569565b611a40565b005b34801561079d575f80fd5b506107a6611abe565b6040516107b39190613af5565b60405180910390f35b3480156107c7575f80fd5b506107e260048036038101906107dd91906136cb565b611ae3565b005b3480156107ef575f80fd5b5061080a60048036038101906108059190613b35565b611ca1565b005b348015610817575f80fd5b50610820611cfd565b005b34801561082d575f80fd5b50610836611dd7565b6040516108439190613724565b60405180910390f35b348015610857575f80fd5b50610860611dea565b60405161086d91906135c1565b60405180910390f35b348015610881575f80fd5b5061088a611e00565b6040516108979190613c53565b60405180910390f35b3480156108ab575f80fd5b506108c660048036038101906108c19190613c73565b611ec8565b6040516108d39190613688565b60405180910390f35b3480156108e7575f80fd5b506108f0611f4a565b6040516108fd91906135c1565b60405180910390f35b348015610911575f80fd5b5061092c6004803603810190610927919061364e565b611f60565b005b348015610939575f80fd5b50610942611fe4565b60405161094f9190613724565b60405180910390f35b60606003805461096790613cde565b80601f016020809104026020016040519081016040528092919081815260200182805461099390613cde565b80156109de5780601f106109b5576101008083540402835291602001916109de565b820191905f5260205f20905b8154815290600101906020018083116109c157829003601f168201915b5050505050905090565b5f806109f2611ff7565b90506109ff818585611ffe565b600191505092915050565b6001600760086101000a81548160ff0219169083151502179055503073ffffffffffffffffffffffffffffffffffffffff163373ffffffffffffffffffffffffffffffffffffffff161480610a915750610a6261164c565b73ffffffffffffffffffffffffffffffffffffffff163373ffffffffffffffffffffffffffffffffffffffff16145b610ad0576040517f08c379a0000000000000000000000000000000000000000000000000000000008152600401610ac790613d58565b60405180910390fd5b5f610ada306113d9565b90505f6064600760029054906101000a900460ff1660ff1683610afd9190613da3565b610b079190613e11565b90505f6064600760039054906101000a900460ff1660ff1684610b2a9190613da3565b610b349190613e11565b90505f6064600760049054906101000a900460ff1660ff1685610b579190613da3565b610b619190613e11565b9050610b6c306113d9565b818385610b799190613e41565b610b839190613e41565b1115610bc4576040517f08c379a0000000000000000000000000000000000000000000000000000000008152600401610bbb90613ee4565b60405180910390fd5b610bcd82612010565b610bd78382612102565b7ffd3bc8cbcb80e2c149c0afd0c43c5481efe524348d615ffb006c32e490f60add838383604051610c0a93929190613f02565b60405180910390a1505050505f600760086101000a81548160ff021916908315150217905550565b60095f9054906101000a900473ffffffffffffffffffffffffffffffffffffffff1681565b5f60065f8373ffffffffffffffffffffffffffffffffffffffff1673ffffffffffffffffffffffffffffffffffffffff1681526020019081526020015f205f0160019054906101000a900460ff169050919050565b5f600254905090565b60085481565b610cc36122d7565b3073ffffffffffffffffffffffffffffffffffffffff168273ffffffffffffffffffffffffffffffffffffffff1603610d31576040517f08c379a0000000000000000000000000000000000000000000000000000000008152600401610d2890613f81565b60405180910390fd5b5f60065f8473ffffffffffffffffffffffffffffffffffffffff1673ffffffffffffffffffffffffffffffffffffffff1681526020019081526020015f206040518060400160405290815f82015f9054906101000a900460ff161515151581526020015f820160019054906101000a900460ff1615151515815250509050818160200190151590811515815250508060065f8573ffffffffffffffffffffffffffffffffffffffff1673ffffffffffffffffffffffffffffffffffffffff1681526020019081526020015f205f820151815f015f6101000a81548160ff0219169083151502179055506020820151815f0160016101000a81548160ff0219169083151502179055509050507fe4cbcfb1a60e2c589f335f74c6c57b0be57eb6c50eb56442d8a67735dba70cad8383604051610e6d929190613f9f565b60405180910390a1505050565b600760029054906101000a900460ff1681565b5f80610e97611ff7565b9050610ea485828561235e565b610eaf8585856123f0565b60019150509392505050565b5f6012905090565b610ecb6122d7565b5f8111610f0d576040517f08c379a0000000000000000000000000000000000000000000000000000000008152600401610f0490614010565b60405180910390fd5b5f3373ffffffffffffffffffffffffffffffffffffffff1682604051610f329061405b565b5f6040518083038185875af1925050503d805f8114610f6c576040519150601f19603f3d011682016040523d82523d5f602084013e610f71565b606091505b5050905080610fb5576040517f08c379a0000000000000000000000000000000000000000000000000000000008152600401610fac906140b9565b60405180910390fd5b5050565b610fc16122d7565b8051825114611005576040517f08c379a0000000000000000000000000000000000000000000000000000000008152600401610ffc90614147565b60405180910390fd5b600a8251111561104a576040517f08c379a0000000000000000000000000000000000000000000000000000000008152600401611041906141d5565b60405180910390fd5b600c5f61105791906133b4565b5f805b835181101561129c575f838281518110611077576110766141f3565b5b602002602001015160ff16101580156110ae575060648382815181106110a05761109f6141f3565b5b602002602001015160ff1611155b6110ed576040517f08c379a00000000000000000000000000000000000000000000000000000000081526004016110e490614290565b60405180910390fd5b5f73ffffffffffffffffffffffffffffffffffffffff16848281518110611117576111166141f3565b5b602002602001015173ffffffffffffffffffffffffffffffffffffffff1603611175576040517f08c379a000000000000000000000000000000000000000000000000000000000815260040161116c9061431e565b60405180910390fd5b600c6040518060400160405280868481518110611195576111946141f3565b5b602002602001015173ffffffffffffffffffffffffffffffffffffffff1681526020018584815181106111cb576111ca6141f3565b5b602002602001015160ff16815250908060018154018082558091505060019003905f5260205f20015f909190919091505f820151815f015f6101000a81548173ffffffffffffffffffffffffffffffffffffffff021916908373ffffffffffffffffffffffffffffffffffffffff1602179055506020820151815f0160146101000a81548160ff021916908360ff1602179055505050828181518110611274576112736141f3565b5b602002602001015182611287919061433c565b9150808061129490614370565b91505061105a565b5060648160ff16146112e3576040517f08c379a00000000000000000000000000000000000000000000000000000000081526004016112da90614427565b60405180910390fd5b7fa2a4d80ab12a039dfb7e05de1b8ae37a3db49a98d9476aae11e3898513b999998383604051611314929190614595565b60405180910390a1505050565b600760039054906101000a900460ff1681565b60075f9054906101000a900460ff1681565b60078054906101000a900460ff1681565b61135f6122d7565b80600b5f6101000a81548173ffffffffffffffffffffffffffffffffffffffff021916908373ffffffffffffffffffffffffffffffffffffffff1602179055507f81633f85afc8dc8573ddb012d0e43fa48cd7ffe95f106b9dff15376f34f77aec816040516113ce9190613af5565b60405180910390a150565b5f805f8373ffffffffffffffffffffffffffffffffffffffff1673ffffffffffffffffffffffffffffffffffffffff1681526020019081526020015f20549050919050565b6114266122d7565b61142f5f6124e0565b565b6114396122d7565b5f1515600760059054906101000a900460ff1615151461148e576040517f08c379a000000000000000000000000000000000000000000000000000000000815260040161148590614614565b60405180910390fd5b600a8260ff16111580156114a65750600a8160ff1611155b6114e5576040517f08c379a00000000000000000000000000000000000000000000000000000000081526004016114dc906146a2565b60405180910390fd5b8160075f6101000a81548160ff021916908360ff16021790555080600760016101000a81548160ff021916908360ff1602179055507f0d211fd62d1f720ff6d62d0ba7033ce4b592fb609b9579ee24b947c5bbe2e13f828260405161154b9291906146c0565b60405180910390a15050565b61155f6122d7565b606481838561156e919061433c565b611578919061433c565b60ff16146115bb576040517f08c379a00000000000000000000000000000000000000000000000000000000081526004016115b290614757565b60405180910390fd5b82600760026101000a81548160ff021916908360ff16021790555081600760036101000a81548160ff021916908360ff16021790555080600760046101000a81548160ff021916908360ff1602179055507f3ffa57fb974c33bbb764b7f7ab54e4f17e801de986a52b04284e054d7c7e026f83838360405161163f93929190614775565b60405180910390a1505050565b5f60055f9054906101000a900473ffffffffffffffffffffffffffffffffffffffff16905090565b61167c6122d7565b6001600760056101000a81548160ff0219169083151502179055507f7fd247c16eb04b80fe08395ad1b812b3cc5fb21905986ceece7d2f2fde91354160405160405180910390a1565b6116cd6122d7565b5f60095f9054906101000a900473ffffffffffffffffffffffffffffffffffffffff1690508173ffffffffffffffffffffffffffffffffffffffff168173ffffffffffffffffffffffffffffffffffffffff1603611760576040517f08c379a0000000000000000000000000000000000000000000000000000000008152600401611757906147f4565b60405180910390fd5b61176b30825f611ffe565b61179630837fffffffffffffffffffffffffffffffffffffffffffffffffffffffffffffffff611ffe565b8160095f6101000a81548173ffffffffffffffffffffffffffffffffffffffff021916908373ffffffffffffffffffffffffffffffffffffffff1602179055507f455a5e52b7c01aa52d717db42e17b6610b0c2c96560c85b7e5adcdd254bfc17c826040516118059190613af5565b60405180910390a15050565b60606004805461182090613cde565b80601f016020809104026020016040519081016040528092919081815260200182805461184c90613cde565b80156118975780601f1061186e57610100808354040283529160200191611897565b820191905f5260205f20905b81548152906001019060200180831161187a57829003601f168201915b5050505050905090565b6006602052805f5260405f205f91509050805f015f9054906101000a900460ff1690805f0160019054906101000a900460ff16905082565b600b5f9054906101000a900473ffffffffffffffffffffffffffffffffffffffff1681565b6119066122d7565b80600a5f6101000a81548173ffffffffffffffffffffffffffffffffffffffff021916908373ffffffffffffffffffffffffffffffffffffffff1602179055507ffa575a2937f4d8860715335c80a51e975f276f15a8717f4ad9d5ad153d3011ce816040516119759190613af5565b60405180910390a150565b6119886122d7565b5f81116119ca576040517f08c379a00000000000000000000000000000000000000000000000000000000081526004016119c190614882565b60405180910390fd5b670de0b6b3a7640000816119de9190613da3565b6008819055507f864e12506dcc59e84111281e695dd1b19dc5271daf1cd2a249708a115ba224e681604051611a139190613688565b60405180910390a150565b5f80611a28611ff7565b9050611a358185856123f0565b600191505092915050565b611a486122d7565b5f8111611a8a576040517f08c379a0000000000000000000000000000000000000000000000000000000008152600401611a8190614010565b60405180910390fd5b5f829050611ab933838373ffffffffffffffffffffffffffffffffffffffff166125a39092919063ffffffff16565b505050565b600a5f9054906101000a900473ffffffffffffffffffffffffffffffffffffffff1681565b611aeb6122d7565b3073ffffffffffffffffffffffffffffffffffffffff168273ffffffffffffffffffffffffffffffffffffffff1603611b59576040517f08c379a0000000000000000000000000000000000000000000000000000000008152600401611b50906148ea565b60405180910390fd5b5f60065f8473ffffffffffffffffffffffffffffffffffffffff1673ffffffffffffffffffffffffffffffffffffffff1681526020019081526020015f206040518060400160405290815f82015f9054906101000a900460ff161515151581526020015f820160019054906101000a900460ff161515151581525050905081815f0190151590811515815250508060065f8573ffffffffffffffffffffffffffffffffffffffff1673ffffffffffffffffffffffffffffffffffffffff1681526020019081526020015f205f820151815f015f6101000a81548160ff0219169083151502179055506020820151815f0160016101000a81548160ff0219169083151502179055509050507f160ff69a72bc70f3e792a86c87d27070e421562197f032d96bcab11c5010222e8383604051611c94929190613f9f565b60405180910390a1505050565b611ca96122d7565b80600760066101000a81548160ff0219169083151502179055507ffcee2f8a7deb8619b3bf35fc6bb132f28f41cb8e3a2a2758ecc1e051fa0ce71681604051611cf291906135c1565b60405180910390a150565b611d056122d7565b5f151560078054906101000a900460ff16151514611d58576040517f08c379a0000000000000000000000000000000000000000000000000000000008152600401611d4f90614952565b60405180910390fd5b60016007806101000a81548160ff021916908315150217905550600a60075f6101000a81548160ff021916908360ff160217905550600a600760016101000a81548160ff021916908360ff1602179055507f08fd3d05bd9c1e39a2044b0a4e2fed4621113adaeeae8fc57e9f4a06777ecf0760405160405180910390a1565b600760019054906101000a900460ff1681565b5f600760059054906101000a900460ff16905090565b6060600c805480602002602001604051908101604052809291908181526020015f905b82821015611ebf578382905f5260205f20016040518060400160405290815f82015f9054906101000a900473ffffffffffffffffffffffffffffffffffffffff1673ffffffffffffffffffffffffffffffffffffffff1673ffffffffffffffffffffffffffffffffffffffff1681526020015f820160149054906101000a900460ff1660ff1660ff168152505081526020019060010190611e23565b50505050905090565b5f60015f8473ffffffffffffffffffffffffffffffffffffffff1673ffffffffffffffffffffffffffffffffffffffff1681526020019081526020015f205f8373ffffffffffffffffffffffffffffffffffffffff1673ffffffffffffffffffffffffffffffffffffffff1681526020019081526020015f2054905092915050565b5f600760069054906101000a900460ff16905090565b611f686122d7565b5f73ffffffffffffffffffffffffffffffffffffffff168173ffffffffffffffffffffffffffffffffffffffff1603611fd8575f6040517f1e4fbdf7000000000000000000000000000000000000000000000000000000008152600401611fcf9190613af5565b60405180910390fd5b611fe1816124e0565b50565b600760049054906101000a900460ff1681565b5f33905090565b61200b8383836001612622565b505050565b5f5b600c805490508110156120fe575f600c8281548110612034576120336141f3565b5b905f5260205f20016040518060400160405290815f82015f9054906101000a900473ffffffffffffffffffffffffffffffffffffffff1673ffffffffffffffffffffffffffffffffffffffff1673ffffffffffffffffffffffffffffffffffffffff1681526020015f820160149054906101000a900460ff1660ff1660ff168152505090505f606484836020015160ff166120cf9190613da3565b6120d99190613e11565b90506120e930835f0151836127f1565b505080806120f690614370565b915050612012565b5050565b5f4790506121328360016002856121199190613e11565b6121239190614970565b61212d9190613e41565b612a0a565b5f8211156121cc575f81476121479190614970565b90505f84846121569190613e41565b84836121629190613da3565b61216c9190613e11565b905061218460028561217e9190613e11565b82612c56565b7f38f8a0c92f4c5b0b6877f878cb4c0c8d348a47b76d716c8e78f425043df9515b6002856121b29190613e11565b826040516121c19291906149a3565b60405180910390a150505b5f4790505f600a5f9054906101000a900473ffffffffffffffffffffffffffffffffffffffff1673ffffffffffffffffffffffffffffffffffffffff16826040516122169061405b565b5f6040518083038185875af1925050503d805f8114612250576040519150601f19603f3d011682016040523d82523d5f602084013e612255565b606091505b5050905080612299576040517f08c379a000000000000000000000000000000000000000000000000000000000815260040161229090614a3a565b60405180910390fd5b7fcc479326940dbeabc56141d9670d6fb0433ec9e11a86ef148c7c9a075dc24a34826040516122c89190613688565b60405180910390a15050505050565b6122df611ff7565b73ffffffffffffffffffffffffffffffffffffffff166122fd61164c565b73ffffffffffffffffffffffffffffffffffffffff161461235c57612320611ff7565b6040517f118cdaa70000000000000000000000000000000000000000000000000000000081526004016123539190613af5565b60405180910390fd5b565b5f6123698484611ec8565b90507fffffffffffffffffffffffffffffffffffffffffffffffffffffffffffffffff81146123ea57818110156123db578281836040517ffb8f41b20000000000000000000000000000000000000000000000000000000081526004016123d293929190614a58565b60405180910390fd5b6123e984848484035f612622565b5b50505050565b5f73ffffffffffffffffffffffffffffffffffffffff168373ffffffffffffffffffffffffffffffffffffffff1603612460575f6040517f96c6fd1e0000000000000000000000000000000000000000000000000000000081526004016124579190613af5565b60405180910390fd5b5f73ffffffffffffffffffffffffffffffffffffffff168273ffffffffffffffffffffffffffffffffffffffff16036124d0575f6040517fec442f050000000000000000000000000000000000000000000000000000000081526004016124c79190613af5565b60405180910390fd5b6124db838383612d24565b505050565b5f60055f9054906101000a900473ffffffffffffffffffffffffffffffffffffffff1690508160055f6101000a81548173ffffffffffffffffffffffffffffffffffffffff021916908373ffffffffffffffffffffffffffffffffffffffff1602179055508173ffffffffffffffffffffffffffffffffffffffff168173ffffffffffffffffffffffffffffffffffffffff167f8be0079c531659141344cd1fd0a4f28419497f9722a3daafe3b4186f6b6457e060405160405180910390a35050565b61261d838473ffffffffffffffffffffffffffffffffffffffff1663a9059cbb85856040516024016125d6929190614a8d565b604051602081830303815290604052915060e01b6020820180517bffffffffffffffffffffffffffffffffffffffffffffffffffffffff8381831617835250505050613170565b505050565b5f73ffffffffffffffffffffffffffffffffffffffff168473ffffffffffffffffffffffffffffffffffffffff1603612692575f6040517fe602df050000000000000000000000000000000000000000000000000000000081526004016126899190613af5565b60405180910390fd5b5f73ffffffffffffffffffffffffffffffffffffffff168373ffffffffffffffffffffffffffffffffffffffff1603612702575f6040517f94280d620000000000000000000000000000000000000000000000000000000081526004016126f99190613af5565b60405180910390fd5b8160015f8673ffffffffffffffffffffffffffffffffffffffff1673ffffffffffffffffffffffffffffffffffffffff1681526020019081526020015f205f8573ffffffffffffffffffffffffffffffffffffffff1673ffffffffffffffffffffffffffffffffffffffff1681526020019081526020015f208190555080156127eb578273ffffffffffffffffffffffffffffffffffffffff168473ffffffffffffffffffffffffffffffffffffffff167f8c5be1e5ebec7d5bd14f71427d1e84f3dd0314c0f7b2291e5b200ac8c7c3b925846040516127e29190613688565b60405180910390a35b50505050565b5f73ffffffffffffffffffffffffffffffffffffffff168373ffffffffffffffffffffffffffffffffffffffff1603612841578060025f8282546128359190613e41565b9250508190555061290f565b5f805f8573ffffffffffffffffffffffffffffffffffffffff1673ffffffffffffffffffffffffffffffffffffffff1681526020019081526020015f20549050818110156128ca578381836040517fe450d38c0000000000000000000000000000000000000000000000000000000081526004016128c193929190614a58565b60405180910390fd5b8181035f808673ffffffffffffffffffffffffffffffffffffffff1673ffffffffffffffffffffffffffffffffffffffff1681526020019081526020015f2081905550505b5f73ffffffffffffffffffffffffffffffffffffffff168273ffffffffffffffffffffffffffffffffffffffff1603612956578060025f82825403925050819055506129a0565b805f808473ffffffffffffffffffffffffffffffffffffffff1673ffffffffffffffffffffffffffffffffffffffff1681526020019081526020015f205f82825401925050819055505b8173ffffffffffffffffffffffffffffffffffffffff168373ffffffffffffffffffffffffffffffffffffffff167fddf252ad1be2c89b69c2b068fc378daa952ba7f163c4a11628f55a4df523b3ef836040516129fd9190613688565b60405180910390a3505050565b5f600267ffffffffffffffff811115612a2657612a256137bc565b5b604051908082528060200260200182016040528015612a545781602001602082028036833780820191505090505b50905030815f81518110612a6b57612a6a6141f3565b5b602002602001019073ffffffffffffffffffffffffffffffffffffffff16908173ffffffffffffffffffffffffffffffffffffffff168152505060095f9054906101000a900473ffffffffffffffffffffffffffffffffffffffff1673ffffffffffffffffffffffffffffffffffffffff1663ad5c46486040518163ffffffff1660e01b8152600401602060405180830381865afa158015612b0f573d5f803e3d5ffd5b505050506040513d601f19601f82011682018060405250810190612b339190614ac8565b81600181518110612b4757612b466141f3565b5b602002602001019073ffffffffffffffffffffffffffffffffffffffff16908173ffffffffffffffffffffffffffffffffffffffff16815250505f8211612bc3576040517f08c379a0000000000000000000000000000000000000000000000000000000008152600401612bba90614b63565b60405180910390fd5b60095f9054906101000a900473ffffffffffffffffffffffffffffffffffffffff1673ffffffffffffffffffffffffffffffffffffffff1663791ac947835f8430426040518663ffffffff1660e01b8152600401612c25959493929190614bba565b5f604051808303815f87803b158015612c3c575f80fd5b505af1158015612c4e573d5f803e3d5ffd5b505050505050565b60095f9054906101000a900473ffffffffffffffffffffffffffffffffffffffff1673ffffffffffffffffffffffffffffffffffffffff1663f305d7198230855f80600b5f9054906101000a900473ffffffffffffffffffffffffffffffffffffffff16426040518863ffffffff1660e01b8152600401612cdc96959493929190614c12565b60606040518083038185885af1158015612cf8573d5f803e3d5ffd5b50505050506040513d601f19601f82011682018060405250810190612d1d9190614c85565b5050505050565b5f612d2e846113d9565b905081811015612d73576040517f08c379a0000000000000000000000000000000000000000000000000000000008152600401612d6a90614d45565b60405180910390fd5b5f60065f8673ffffffffffffffffffffffffffffffffffffffff1673ffffffffffffffffffffffffffffffffffffffff1681526020019081526020015f206040518060400160405290815f82015f9054906101000a900460ff161515151581526020015f820160019054906101000a900460ff16151515158152505090505f60065f8673ffffffffffffffffffffffffffffffffffffffff1673ffffffffffffffffffffffffffffffffffffffff1681526020019081526020015f206040518060400160405290815f82015f9054906101000a900460ff161515151581526020015f820160019054906101000a900460ff16151515158152505090505f826020015180612e81575081602001515b90505f835f015180612e935750825f01515b15612f605760078054906101000a900460ff1680612ee35750612eb461164c565b73ffffffffffffffffffffffffffffffffffffffff163373ffffffffffffffffffffffffffffffffffffffff16145b80612f205750612ef161164c565b73ffffffffffffffffffffffffffffffffffffffff163273ffffffffffffffffffffffffffffffffffffffff16145b612f5f576040517f08c379a0000000000000000000000000000000000000000000000000000000008152600401612f5690614dad565b60405180910390fd5b5b835f01518015612f7357505f1515821515145b8015612f8b5750600760069054906101000a900460ff165b15612fc057606460075f9054906101000a900460ff1660ff1687612faf9190613da3565b612fb99190613e11565b9050613026565b825f01518015612fd357505f1515821515145b8015612feb5750600760069054906101000a900460ff165b15613021576064600760019054906101000a900460ff1660ff16876130109190613da3565b61301a9190613e11565b9050613025565b5f90505b5b600854613032306113d9565b11801561305157505f1515600760089054906101000a900460ff161515145b801561306357505f1515845f01511515145b8015613076575060011515835f01511515145b1561310d573073ffffffffffffffffffffffffffffffffffffffff16630f3d9c9f6040518163ffffffff1660e01b81526004015f604051808303815f87803b1580156130c0575f80fd5b505af19250505080156130d1575060015b61310b573d805f81146130ff576040519150601f19603f3d011682016040523d82523d5f602084013e613104565b606091505b505061310c565b5b5b5f811415801561312f57505f1515600760089054906101000a900460ff161515145b1561315a5761314a888883896131459190614970565b6127f1565b6131558830836127f1565b613166565b6131658888886127f1565b5b5050505050505050565b5f61319a828473ffffffffffffffffffffffffffffffffffffffff1661320590919063ffffffff16565b90505f8151141580156131be5750808060200190518101906131bc9190614ddf565b155b1561320057826040517f5274afe70000000000000000000000000000000000000000000000000000000081526004016131f79190613af5565b60405180910390fd5b505050565b606061321283835f61321a565b905092915050565b60608147101561326157306040517fcd7860590000000000000000000000000000000000000000000000000000000081526004016132589190613af5565b60405180910390fd5b5f808573ffffffffffffffffffffffffffffffffffffffff1684866040516132899190614e44565b5f6040518083038185875af1925050503d805f81146132c3576040519150601f19603f3d011682016040523d82523d5f602084013e6132c8565b606091505b50915091506132d88683836132e3565b925050509392505050565b6060826132f8576132f382613370565b613368565b5f825114801561331e57505f8473ffffffffffffffffffffffffffffffffffffffff163b145b1561336057836040517f9996b3150000000000000000000000000000000000000000000000000000000081526004016133579190613af5565b60405180910390fd5b819050613369565b5b9392505050565b5f815111156133825780518082602001fd5b6040517f1425ea4200000000000000000000000000000000000000000000000000000000815260040160405180910390fd5b5080545f8255905f5260205f20908101906133cf91906133d2565b50565b5b8082111561341d575f8082015f6101000a81549073ffffffffffffffffffffffffffffffffffffffff02191690555f820160146101000a81549060ff0219169055506001016133d3565b5090565b5f81519050919050565b5f82825260208201905092915050565b5f5b8381101561345857808201518184015260208101905061343d565b5f8484015250505050565b5f601f19601f8301169050919050565b5f61347d82613421565b613487818561342b565b935061349781856020860161343b565b6134a081613463565b840191505092915050565b5f6020820190508181035f8301526134c38184613473565b905092915050565b5f604051905090565b5f80fd5b5f80fd5b5f73ffffffffffffffffffffffffffffffffffffffff82169050919050565b5f613505826134dc565b9050919050565b613515816134fb565b811461351f575f80fd5b50565b5f813590506135308161350c565b92915050565b5f819050919050565b61354881613536565b8114613552575f80fd5b50565b5f813590506135638161353f565b92915050565b5f806040838503121561357f5761357e6134d4565b5b5f61358c85828601613522565b925050602061359d85828601613555565b9150509250929050565b5f8115159050919050565b6135bb816135a7565b82525050565b5f6020820190506135d45f8301846135b2565b92915050565b5f819050919050565b5f6135fd6135f86135f3846134dc565b6135da565b6134dc565b9050919050565b5f61360e826135e3565b9050919050565b5f61361f82613604565b9050919050565b61362f81613615565b82525050565b5f6020820190506136485f830184613626565b92915050565b5f60208284031215613663576136626134d4565b5b5f61367084828501613522565b91505092915050565b61368281613536565b82525050565b5f60208201905061369b5f830184613679565b92915050565b6136aa816135a7565b81146136b4575f80fd5b50565b5f813590506136c5816136a1565b92915050565b5f80604083850312156136e1576136e06134d4565b5b5f6136ee85828601613522565b92505060206136ff858286016136b7565b9150509250929050565b5f60ff82169050919050565b61371e81613709565b82525050565b5f6020820190506137375f830184613715565b92915050565b5f805f60608486031215613754576137536134d4565b5b5f61376186828701613522565b935050602061377286828701613522565b925050604061378386828701613555565b9150509250925092565b5f602082840312156137a2576137a16134d4565b5b5f6137af84828501613555565b91505092915050565b5f80fd5b7f4e487b71000000000000000000000000000000000000000000000000000000005f52604160045260245ffd5b6137f282613463565b810181811067ffffffffffffffff82111715613811576138106137bc565b5b80604052505050565b5f6138236134cb565b905061382f82826137e9565b919050565b5f67ffffffffffffffff82111561384e5761384d6137bc565b5b602082029050602081019050919050565b5f80fd5b5f61387561387084613834565b61381a565b905080838252602082019050602084028301858111156138985761389761385f565b5b835b818110156138c157806138ad8882613522565b84526020840193505060208101905061389a565b5050509392505050565b5f82601f8301126138df576138de6137b8565b5b81356138ef848260208601613863565b91505092915050565b5f67ffffffffffffffff821115613912576139116137bc565b5b602082029050602081019050919050565b61392c81613709565b8114613936575f80fd5b50565b5f8135905061394781613923565b92915050565b5f61395f61395a846138f8565b61381a565b905080838252602082019050602084028301858111156139825761398161385f565b5b835b818110156139ab57806139978882613939565b845260208401935050602081019050613984565b5050509392505050565b5f82601f8301126139c9576139c86137b8565b5b81356139d984826020860161394d565b91505092915050565b5f80604083850312156139f8576139f76134d4565b5b5f83013567ffffffffffffffff811115613a1557613a146134d8565b5b613a21858286016138cb565b925050602083013567ffffffffffffffff811115613a4257613a416134d8565b5b613a4e858286016139b5565b9150509250929050565b5f8060408385031215613a6e57613a6d6134d4565b5b5f613a7b85828601613939565b9250506020613a8c85828601613939565b9150509250929050565b5f805f60608486031215613aad57613aac6134d4565b5b5f613aba86828701613939565b9350506020613acb86828701613939565b9250506040613adc86828701613939565b9150509250925092565b613aef816134fb565b82525050565b5f602082019050613b085f830184613ae6565b92915050565b5f604082019050613b215f8301856135b2565b613b2e60208301846135b2565b9392505050565b5f60208284031215613b4a57613b496134d4565b5b5f613b57848285016136b7565b91505092915050565b5f81519050919050565b5f82825260208201905092915050565b5f819050602082019050919050565b613b92816134fb565b82525050565b613ba181613709565b82525050565b604082015f820151613bbb5f850182613b89565b506020820151613bce6020850182613b98565b50505050565b5f613bdf8383613ba7565b60408301905092915050565b5f602082019050919050565b5f613c0182613b60565b613c0b8185613b6a565b9350613c1683613b7a565b805f5b83811015613c46578151613c2d8882613bd4565b9750613c3883613beb565b925050600181019050613c19565b5085935050505092915050565b5f6020820190508181035f830152613c6b8184613bf7565b905092915050565b5f8060408385031215613c8957613c886134d4565b5b5f613c9685828601613522565b9250506020613ca785828601613522565b9150509250929050565b7f4e487b71000000000000000000000000000000000000000000000000000000005f52602260045260245ffd5b5f6002820490506001821680613cf557607f821691505b602082108103613d0857613d07613cb1565b5b50919050565b7f6f776e65722f636f6e7472616374206f6e6c79000000000000000000000000005f82015250565b5f613d4260138361342b565b9150613d4d82613d0e565b602082019050919050565b5f6020820190508181035f830152613d6f81613d36565b9050919050565b7f4e487b71000000000000000000000000000000000000000000000000000000005f52601160045260245ffd5b5f613dad82613536565b9150613db883613536565b9250828202613dc681613536565b91508282048414831517613ddd57613ddc613d76565b5b5092915050565b7f4e487b71000000000000000000000000000000000000000000000000000000005f52601260045260245ffd5b5f613e1b82613536565b9150613e2683613536565b925082613e3657613e35613de4565b5b828204905092915050565b5f613e4b82613536565b9150613e5683613536565b9250828201905080821115613e6e57613e6d613d76565b5b92915050565b7f5969656c644d61676e65743a2043616e277420646973747269627574652074685f8201527f652066756e647300000000000000000000000000000000000000000000000000602082015250565b5f613ece60278361342b565b9150613ed982613e74565b604082019050919050565b5f6020820190508181035f830152613efb81613ec2565b9050919050565b5f606082019050613f155f830186613679565b613f226020830185613679565b613f2f6040830184613679565b949350505050565b7f43616e2774206368616e676520636f6e747261637400000000000000000000005f82015250565b5f613f6b60158361342b565b9150613f7682613f37565b602082019050919050565b5f6020820190508181035f830152613f9881613f5f565b9050919050565b5f604082019050613fb25f830185613ae6565b613fbf60208301846135b2565b9392505050565b7f5969656c644d61676e65743a20616d6f756e742063616e2774206265203000005f82015250565b5f613ffa601e8361342b565b915061400582613fc6565b602082019050919050565b5f6020820190508181035f83015261402781613fee565b9050919050565b5f81905092915050565b50565b5f6140465f8361402e565b915061405182614038565b5f82019050919050565b5f6140658261403b565b9150819050919050565b7f6661696c656420746f2073656e642065746800000000000000000000000000005f82015250565b5f6140a360128361342b565b91506140ae8261406f565b602082019050919050565b5f6020820190508181035f8301526140d081614097565b9050919050565b7f5969656c644d61676e65743a204e6f206f66206164647265737320616e64204e5f8201527f6f206f662050657263656e746167657320646f65736e2774206d617463682100602082015250565b5f614131603f8361342b565b915061413c826140d7565b604082019050919050565b5f6020820190508181035f83015261415e81614125565b9050919050565b7f5969656c644d61676e65743a204d6178203130207374616b696e6720636f6e745f8201527f726163747320616c6c6f77656421000000000000000000000000000000000000602082015250565b5f6141bf602e8361342b565b91506141ca82614165565b604082019050919050565b5f6020820190508181035f8301526141ec816141b3565b9050919050565b7f4e487b71000000000000000000000000000000000000000000000000000000005f52603260045260245ffd5b7f5969656c644d61676e65743a2070657263656e746167652073686f756c6420625f8201527f65206265747765656e20203020746f2031303021000000000000000000000000602082015250565b5f61427a60348361342b565b915061428582614220565b604082019050919050565b5f6020820190508181035f8301526142a78161426e565b9050919050565b7f5969656c644d61676e65743a205374616b696e6720636f6e7472616374206d615f8201527f79206e6f74206265203078300000000000000000000000000000000000000000602082015250565b5f614308602c8361342b565b9150614313826142ae565b604082019050919050565b5f6020820190508181035f830152614335816142fc565b9050919050565b5f61434682613709565b915061435183613709565b9250828201905060ff81111561436a57614369613d76565b5b92915050565b5f61437a82613536565b91507fffffffffffffffffffffffffffffffffffffffffffffffffffffffffffffffff82036143ac576143ab613d76565b5b600182019050919050565b7f5969656c644d61676e65743a20546f74616c2050657263656e746167652073685f8201527f6f756c64206265203130302e0000000000000000000000000000000000000000602082015250565b5f614411602c8361342b565b915061441c826143b7565b604082019050919050565b5f6020820190508181035f83015261443e81614405565b9050919050565b5f81519050919050565b5f82825260208201905092915050565b5f819050602082019050919050565b5f6144798383613b89565b60208301905092915050565b5f602082019050919050565b5f61449b82614445565b6144a5818561444f565b93506144b08361445f565b805f5b838110156144e05781516144c7888261446e565b97506144d283614485565b9250506001810190506144b3565b5085935050505092915050565b5f81519050919050565b5f82825260208201905092915050565b5f819050602082019050919050565b5f6145218383613b98565b60208301905092915050565b5f602082019050919050565b5f614543826144ed565b61454d81856144f7565b935061455883614507565b805f5b8381101561458857815161456f8882614516565b975061457a8361452d565b92505060018101905061455b565b5085935050505092915050565b5f6040820190508181035f8301526145ad8185614491565b905081810360208301526145c18184614539565b90509392505050565b7f5969656c644d61676e65743a205461782069732072656e6f756e6365642100005f82015250565b5f6145fe601e8361342b565b9150614609826145ca565b602082019050919050565b5f6020820190508181035f83015261462b816145f2565b9050919050565b7f5969656c644d61676e65743a205461782053686f756c64206265206c657373205f8201527f7468656e20313021000000000000000000000000000000000000000000000000602082015250565b5f61468c60288361342b565b915061469782614632565b604082019050919050565b5f6020820190508181035f8301526146b981614680565b9050919050565b5f6040820190506146d35f830185613715565b6146e06020830184613715565b9392505050565b7f5969656c644d61676e65743a2050657263656e746167652073686f756c6420735f8201527f756d20746f203130302100000000000000000000000000000000000000000000602082015250565b5f614741602a8361342b565b915061474c826146e7565b604082019050919050565b5f6020820190508181035f83015261476e81614735565b9050919050565b5f6060820190506147885f830186613715565b6147956020830185613715565b6147a26040830184613715565b949350505050565b7f4164647265737320616c726561647920736574000000000000000000000000005f82015250565b5f6147de60138361342b565b91506147e9826147aa565b602082019050919050565b5f6020820190508181035f83015261480b816147d2565b9050919050565b7f5969656c644d61676e65743a205468726573686f6c642063616e2774206265205f8201527f3000000000000000000000000000000000000000000000000000000000000000602082015250565b5f61486c60218361342b565b915061487782614812565b604082019050919050565b5f6020820190508181035f83015261489981614860565b9050919050565b7f63616e74206368616e676520636f6e74726163740000000000000000000000005f82015250565b5f6148d460148361342b565b91506148df826148a0565b602082019050919050565b5f6020820190508181035f830152614901816148c8565b9050919050565b7f54726164696e6720616c7265616479206f70656e0000000000000000000000005f82015250565b5f61493c60148361342b565b915061494782614908565b602082019050919050565b5f6020820190508181035f83015261496981614930565b9050919050565b5f61497a82613536565b915061498583613536565b925082820390508181111561499d5761499c613d76565b5b92915050565b5f6040820190506149b65f830185613679565b6149c36020830184613679565b9392505050565b7f5969656c644d61676e65743a204661696c656420746f2073656e6420455448205f8201527f746f207461782061646472657373000000000000000000000000000000000000602082015250565b5f614a24602e8361342b565b9150614a2f826149ca565b604082019050919050565b5f6020820190508181035f830152614a5181614a18565b9050919050565b5f606082019050614a6b5f830186613ae6565b614a786020830185613679565b614a856040830184613679565b949350505050565b5f604082019050614aa05f830185613ae6565b614aad6020830184613679565b9392505050565b5f81519050614ac28161350c565b92915050565b5f60208284031215614add57614adc6134d4565b5b5f614aea84828501614ab4565b91505092915050565b7f5969656c644d61676e65743a20546f6b656e20616d6f756e74206c65737320745f8201527f68656e203020666f7220746f6b656e2073776170000000000000000000000000602082015250565b5f614b4d60348361342b565b9150614b5882614af3565b604082019050919050565b5f6020820190508181035f830152614b7a81614b41565b9050919050565b5f819050919050565b5f614ba4614b9f614b9a84614b81565b6135da565b613536565b9050919050565b614bb481614b8a565b82525050565b5f60a082019050614bcd5f830188613679565b614bda6020830187614bab565b8181036040830152614bec8186614491565b9050614bfb6060830185613ae6565b614c086080830184613679565b9695505050505050565b5f60c082019050614c255f830189613ae6565b614c326020830188613679565b614c3f6040830187614bab565b614c4c6060830186614bab565b614c596080830185613ae6565b614c6660a0830184613679565b979650505050505050565b5f81519050614c7f8161353f565b92915050565b5f805f60608486031215614c9c57614c9b6134d4565b5b5f614ca986828701614c71565b9350506020614cba86828701614c71565b9250506040614ccb86828701614c71565b9150509250925092565b7f45524332303a207472616e7366657220616d6f756e74206578636565647320625f8201527f616c616e63650000000000000000000000000000000000000000000000000000602082015250565b5f614d2f60268361342b565b9150614d3a82614cd5565b604082019050919050565b5f6020820190508181035f830152614d5c81614d23565b9050919050565b7f54726164696e67206e6f74206f70656e207965740000000000000000000000005f82015250565b5f614d9760148361342b565b9150614da282614d63565b602082019050919050565b5f6020820190508181035f830152614dc481614d8b565b9050919050565b5f81519050614dd9816136a1565b92915050565b5f60208284031215614df457614df36134d4565b5b5f614e0184828501614dcb565b91505092915050565b5f81519050919050565b5f614e1e82614e0a565b614e28818561402e565b9350614e3881856020860161343b565b80840191505092915050565b5f614e4f8284614e14565b91508190509291505056fea264697066735822122085653118489a7ed8f2f209de9f2e07df8f9da9fbf89b40caf89f6da3dc7662f664736f6c63430008150033",
  "immutableReferences": {},
  "source": "// SPDX-License-Identifier: MIT\r\npragma solidity ^0.8.20;\r\n\r\nimport \"@openzeppelin/contracts/token/ERC20/ERC20.sol\";\r\nimport \"@openzeppelin/contracts/token/ERC20/utils/SafeERC20.sol\";\r\nimport \"@openzeppelin/contracts/token/ERC20/extensions/ERC20Burnable.sol\";\r\nimport \"@openzeppelin/contracts/access/Ownable.sol\";\r\nimport \"@uniswap/v2-periphery/contracts/interfaces/IUniswapV2Router02.sol\";\r\nimport \"@uniswap/v2-core/contracts/interfaces/IUniswapV2Factory.sol\";\r\n\r\n/// @title This is official MAGNET Token contract ERC20 used in the Yield Magnet platform\r\n/// @author Yield Magnet Team\r\n\r\nstruct StakingContract {\r\n    address contractAddress;\r\n    uint8 percentage;\r\n}\r\n\r\ncontract YieldMagnetToken is ERC20, Ownable {\r\n    using SafeERC20 for IERC20;\r\n    /*//////////////////////////////////////////////////////////////\r\n                            TAX VARIABLES\r\n    //////////////////////////////////////////////////////////////*/\r\n    struct WalletState {\r\n        bool isMarketPair;\r\n        bool isExemptFromTax;\r\n    }\r\n    // Saves gas!\r\n    mapping(address => WalletState) public walletStates;\r\n\r\n    // Set to 10/10 when trading is open. SetTaxes can only set it\r\n    // up to 10/10.\r\n    uint8 public buyTax = 0;\r\n    uint8 public sellTax = 0;\r\n\r\n    // Must always add up to 100.\r\n    uint8 public platformPercentage = 60;\r\n    uint8 public stakerPercentage = 20;\r\n    uint8 public lpPercentage = 20;\r\n\r\n    // When set is true, tax will no longer be change-able.\r\n    bool private _isTaxRenounced = false;\r\n    bool private _isTaxEnabled = true;\r\n\r\n    /*//////////////////////////////////////////////////////////////\r\n                            CONTRACT SWAP\r\n    //////////////////////////////////////////////////////////////*/\r\n\r\n    // Once switched on, can never be switched off.\r\n    bool public isTradingOpen = false;\r\n\r\n    bool private _inSwap = false;\r\n    uint256 public taxDistributionThreshold = 5_000_000 * 10 ** 18;\r\n\r\n    /*//////////////////////////////////////////////////////////////\r\n                            UNISWAP\r\n    //////////////////////////////////////////////////////////////*/\r\n\r\n    IUniswapV2Router02 public uniswapV2Router;\r\n\r\n    /*//////////////////////////////////////////////////////////////\r\n                            TAX RECIPIENTS\r\n    //////////////////////////////////////////////////////////////*/\r\n\r\n    // Platform cut will be sent to this address.\r\n    // Defaults to contract creator.\r\n    address public taxAddress;\r\n\r\n    // LP tokens will be sent to this address.\r\n    // Defaults to contract creator.\r\n    address public lpAddress;\r\n\r\n    // Staking cut will be distributed to these contracts.\r\n    // The percentages must always add up to 100.\r\n    StakingContract[] private _stakingContracts;\r\n\r\n    /*//////////////////////////////////////////////////////////////\r\n                            EVENTS\r\n    //////////////////////////////////////////////////////////////*/\r\n\r\n    event TaxDistributed(\r\n        uint256 platformCut,\r\n        uint256 stakersCut,\r\n        uint256 liquidityCut\r\n    );\r\n    event LiquidityAdded(uint256 tokenAmount, uint256 ethAmount);\r\n    event PlatformTaxDistributed(uint256 amount);\r\n\r\n    event UniswapRouterUpdated(address newRouter);\r\n    event ExcludedFromFeesUpdated(address wallet, bool isExcluded);\r\n    event MarketPairUpdated(address pair, bool isMarketPair);\r\n\r\n    event StakingContractsUpdated(\r\n        address[] stakingContracts,\r\n        uint8[] percentages\r\n    );\r\n    event TaxAddressUpdated(address newTaxAddress);\r\n    event LpAddressUpdated(address newLpAddress);\r\n\r\n    event TradingOpen();\r\n    event TaxRenounced();\r\n    event TaxStatusUpdated(bool isTaxEnabled);\r\n    event TaxesUpdated(uint8 buyTax, uint8 sellTax);\r\n\r\n    event DistributionThresholdUpdated(uint256 newThreshold);\r\n    event DistributionPercentagesUpdated(\r\n        uint8 platformPercentage,\r\n        uint8 stakerPercentage,\r\n        uint8 lpPercentage\r\n    );\r\n\r\n    /*//////////////////////////////////////////////////////////////\r\n                            MAIN LOGIC\r\n    //////////////////////////////////////////////////////////////*/\r\n\r\n    constructor() ERC20(\"Yield Magnet\", \"MAGNET\") Ownable(msg.sender) {\r\n        super._update(address(0), msg.sender, (1_000_000_000 * 10 ** 18));\r\n\r\n        address uniswapV2Router02Address = 0x7a250d5630B4cF539739dF2C5dAcb4c659F2488D;\r\n        IUniswapV2Router02 _uniswapV2Router = IUniswapV2Router02(\r\n            uniswapV2Router02Address\r\n        );\r\n\r\n        // Create the pair and mark it as a market pair to enable taxes.\r\n        address uniswapV2Pair = IUniswapV2Factory(_uniswapV2Router.factory())\r\n            .createPair(address(this), _uniswapV2Router.WETH());\r\n        uniswapV2Router = _uniswapV2Router;\r\n        _approve(address(this), uniswapV2Router02Address, type(uint256).max);\r\n        setMarketPair(uniswapV2Pair, true);\r\n\r\n        taxAddress = msg.sender;\r\n        lpAddress = msg.sender;\r\n\r\n        // Exclude owner, this contract and Uniswap router from fees.\r\n        walletStates[msg.sender] = WalletState({\r\n            isMarketPair: false,\r\n            isExemptFromTax: true\r\n        });\r\n        emit ExcludedFromFeesUpdated(msg.sender, true);\r\n        walletStates[address(this)] = WalletState({\r\n            isMarketPair: false,\r\n            isExemptFromTax: true\r\n        });\r\n        emit ExcludedFromFeesUpdated(address(this), true);\r\n        walletStates[uniswapV2Router02Address] = WalletState({\r\n            isMarketPair: false,\r\n            isExemptFromTax: true\r\n        });\r\n        emit ExcludedFromFeesUpdated(uniswapV2Router02Address, true);\r\n    }\r\n\r\n    receive() external payable {}\r\n\r\n    /// @notice Returns if an address is excluded from tax.\r\n    function isTaxExempt(address account_) external view returns (bool) {\r\n        return walletStates[account_].isExemptFromTax;\r\n    }\r\n\r\n    /// @notice Returns if the tax is enabled or not. Tax only exists on market pairs.\r\n    function isTaxEnabled() external view returns (bool) {\r\n        return _isTaxEnabled;\r\n    }\r\n\r\n    /// @notice Returns if tax is renounced, meaning that the taxes cannot be changed.\r\n    function isTaxRenounced() external view returns (bool) {\r\n        return _isTaxRenounced;\r\n    }\r\n\r\n    /// @notice _update function overrides the _update function from the perent contract and contains logic for tax and tax distribution\r\n    /// @dev this override function will be called from the top level transfer and transferFrom function whenever user initates transfer or buy and sell happens\r\n    /// @dev this function breaks _mint. Use super._update instead.\r\n    /// @param from address from the amount will be transfered\r\n    /// @param to address to where the amount will be transfered\r\n    /// @param amount number of tokens to transfer\r\n    function _update(\r\n        address from,\r\n        address to,\r\n        uint256 amount\r\n    ) internal override {\r\n        // Parent ERC20 already checks that from/to are not zero address.\r\n\r\n        uint256 fromBalance = balanceOf(from);\r\n        require(\r\n            fromBalance >= amount,\r\n            \"ERC20: transfer amount exceeds balance\"\r\n        );\r\n\r\n        WalletState memory fromState = walletStates[from];\r\n        WalletState memory toState = walletStates[to];\r\n\r\n        bool isTaxExempt_ = (fromState.isExemptFromTax ||\r\n            toState.isExemptFromTax);\r\n\r\n        uint256 taxAmount;\r\n\r\n        if (fromState.isMarketPair || toState.isMarketPair) {\r\n            require(\r\n                isTradingOpen || msg.sender == owner() || tx.origin == owner(),\r\n                \"Trading not open yet\"\r\n            );\r\n        }\r\n\r\n        if (fromState.isMarketPair && isTaxExempt_ == false && _isTaxEnabled) {\r\n            taxAmount = (amount * buyTax) / 100;\r\n        } else if (\r\n            toState.isMarketPair && isTaxExempt_ == false && _isTaxEnabled\r\n        ) {\r\n            taxAmount = (amount * sellTax) / 100;\r\n        } else {\r\n            taxAmount = 0;\r\n        }\r\n\r\n        if (\r\n            balanceOf(address(this)) > taxDistributionThreshold &&\r\n            _inSwap == false &&\r\n            fromState.isMarketPair == false && // Don't swap on buys.\r\n            toState.isMarketPair == true // Only swap on sells.\r\n        ) {\r\n            try this.distributeTax() {} catch (bytes memory) {}\r\n        }\r\n\r\n        if (taxAmount != 0 && _inSwap == false) {\r\n            super._update(from, to, amount - taxAmount);\r\n            super._update(from, address(this), taxAmount);\r\n        } else {\r\n            super._update(from, to, amount);\r\n        }\r\n    }\r\n\r\n    modifier lockTheSwap() {\r\n        _inSwap = true;\r\n        _;\r\n        _inSwap = false;\r\n    }\r\n\r\n    /// @notice Distributes the collected tax to the platform, stakers and liquidity.\r\n    function distributeTax() external lockTheSwap {\r\n        require(\r\n            msg.sender == address(this) || msg.sender == owner(),\r\n            \"owner/contract only\"\r\n        );\r\n\r\n        uint256 contractBalance = balanceOf(address(this));\r\n        uint256 platformCut = (contractBalance * platformPercentage) / 100;\r\n        uint256 stakerCut = (contractBalance * stakerPercentage) / 100;\r\n        uint256 lpCut = (contractBalance * lpPercentage) / 100;\r\n\r\n        require(\r\n            (platformCut + stakerCut + lpCut) <= balanceOf(address(this)),\r\n            \"YieldMagnet: Can't distribute the funds\"\r\n        );\r\n        _distributeStakersCut(stakerCut);\r\n        _handleLiquidityAndPlatformCut(platformCut, lpCut);\r\n        emit TaxDistributed(platformCut, stakerCut, lpCut);\r\n    }\r\n\r\n    /// @notice Distributes the stakers cut to the staking contracts.\r\n    /// @dev All staking contract's percentages must add up to exactly 100.\r\n    function _distributeStakersCut(uint256 stakersCut_) private {\r\n        for (uint256 i = 0; i < _stakingContracts.length; i++) {\r\n            StakingContract memory sc = _stakingContracts[i];\r\n\r\n            uint256 stakerContractCut = (sc.percentage * stakersCut_) / 100;\r\n\r\n            super._update(address(this), sc.contractAddress, stakerContractCut);\r\n        }\r\n    }\r\n\r\n    /// @notice Distributes liquidity and platform cut. Swaps both to ETH, adds liquidity, and sends the remaining ETH to the tax address.\r\n    /// @param platformCut amount of tokens to swap and send as ETH to taxAddress.\r\n    /// @param lpCut half tokens are swapped, half added to liquidity.\r\n    function _handleLiquidityAndPlatformCut(\r\n        uint256 platformCut,\r\n        uint256 lpCut\r\n    ) private {\r\n        uint256 initBal = address(this).balance;\r\n        _swapTokensForEth(lpCut / 2 - 1 + platformCut);\r\n        if (lpCut > 0) {\r\n            uint256 receiveBalance = address(this).balance - initBal;\r\n            uint256 ethForLiq = (receiveBalance * lpCut) /\r\n                (lpCut + platformCut);\r\n            _addLiquidity(lpCut / 2, ethForLiq);\r\n            emit LiquidityAdded(lpCut / 2, ethForLiq);\r\n        }\r\n\r\n        // Send any remaining ETH to the tax address. This will equal to the platform cut.\r\n        uint256 amount = address(this).balance;\r\n        (bool success, ) = taxAddress.call{value: amount}(\"\");\r\n        require(success, \"YieldMagnet: Failed to send ETH to tax address\");\r\n        emit PlatformTaxDistributed(amount);\r\n    }\r\n\r\n    /// @notice Swaps the token amount to ETH using the Uniswap V2 router.\r\n    function _swapTokensForEth(uint256 tokenAmount_) private {\r\n        address[] memory path = new address[](2);\r\n        path[0] = address(this);\r\n        path[1] = uniswapV2Router.WETH();\r\n\r\n        require(\r\n            tokenAmount_ > 0,\r\n            \"YieldMagnet: Token amount less then 0 for token swap\"\r\n        );\r\n        uniswapV2Router.swapExactTokensForETHSupportingFeeOnTransferTokens(\r\n            tokenAmount_,\r\n            0,\r\n            path,\r\n            address(this),\r\n            block.timestamp\r\n        );\r\n    }\r\n\r\n    /// @notice Adds liquidity to the Uniswap V2 pair. LP tokens are sent to the lpAddress.\r\n    /// @dev Approvals happen when setting the router address.\r\n    function _addLiquidity(uint256 tokenAmount_, uint256 ethAmount_) private {\r\n        uniswapV2Router.addLiquidityETH{value: ethAmount_}(\r\n            address(this),\r\n            tokenAmount_,\r\n            0,\r\n            0,\r\n            lpAddress,\r\n            block.timestamp\r\n        );\r\n    }\r\n\r\n    /*//////////////////////////////////////////////////////////////\r\n                            STAKING CONTRACTS\r\n    //////////////////////////////////////////////////////////////*/\r\n\r\n    /// @notice Retrieves the Staking contract address and their percentages.\r\n    function getStakingContracts()\r\n        public\r\n        view\r\n        returns (StakingContract[] memory)\r\n    {\r\n        return _stakingContracts;\r\n    }\r\n\r\n    /// @notice Sets the staking contracts and their respective percentages. Percentages must add up to 100.\r\n    /// @dev Deletes any previous _stakingContracts.\r\n    /// @param stakingContracts_ The array of Staking contract addresses\r\n    /// @param percentages_ The array of Staking contract distribution perccentages\r\n    function updateStakingContracts(\r\n        address[] memory stakingContracts_,\r\n        uint8[] memory percentages_\r\n    ) external onlyOwner {\r\n        require(\r\n            stakingContracts_.length == percentages_.length,\r\n            \"YieldMagnet: No of address and No of Percentages doesn't match!\"\r\n        );\r\n        require(\r\n            stakingContracts_.length <= 10,\r\n            \"YieldMagnet: Max 10 staking contracts allowed!\"\r\n        );\r\n\r\n        // Clear the existing staking contracts.\r\n        delete _stakingContracts;\r\n\r\n        uint8 totalPercent = 0;\r\n        for (uint256 i = 0; i < stakingContracts_.length; i++) {\r\n            require(\r\n                percentages_[i] >= 0 && percentages_[i] <= 100,\r\n                \"YieldMagnet: percentage should be between  0 to 100!\"\r\n            );\r\n            require(\r\n                stakingContracts_[i] != address(0),\r\n                \"YieldMagnet: Staking contract may not be 0x0\"\r\n            );\r\n\r\n            _stakingContracts.push(\r\n                StakingContract(stakingContracts_[i], percentages_[i])\r\n            );\r\n            totalPercent += percentages_[i];\r\n        }\r\n        require(\r\n            totalPercent == 100,\r\n            \"YieldMagnet: Total Percentage should be 100.\"\r\n        );\r\n\r\n        emit StakingContractsUpdated(stakingContracts_, percentages_);\r\n    }\r\n\r\n    /*//////////////////////////////////////////////////////////////\r\n                            OWNER FUNCTIONS\r\n    //////////////////////////////////////////////////////////////*/\r\n\r\n    /// @notice Opens the trading, enabling taxes. Can only be called once.\r\n    function openTrading() external onlyOwner {\r\n        require(isTradingOpen == false, \"Trading already open\");\r\n\r\n        isTradingOpen = true;\r\n        buyTax = 10;\r\n        sellTax = 10;\r\n\r\n        emit TradingOpen();\r\n    }\r\n\r\n    /// @notice Renounces the tax, meaning that it can never be changed again.\r\n    function renounceTax() public onlyOwner {\r\n        _isTaxRenounced = true;\r\n        emit TaxRenounced();\r\n    }\r\n\r\n    /// @notice Sets the Uniswap router address to use for swapping taxes and adding liquidity.\r\n    function updateUniswapRouter(address newRouter) external onlyOwner {\r\n        address oldAddress = address(uniswapV2Router);\r\n        require(oldAddress != newRouter, \"Address already set\");\r\n\r\n        _approve(address(this), oldAddress, 0);\r\n        _approve(address(this), newRouter, type(uint256).max);\r\n\r\n        uniswapV2Router = IUniswapV2Router02(newRouter);\r\n\r\n        emit UniswapRouterUpdated(newRouter);\r\n    }\r\n\r\n    /// @notice Sets an address's tax exempt status.\r\n    function setTaxExempt(address account, bool isExempt) external onlyOwner {\r\n        require(account != address(this), \"Can't change contract\");\r\n        WalletState memory state = walletStates[account];\r\n        state.isExemptFromTax = isExempt;\r\n        walletStates[account] = state;\r\n        emit ExcludedFromFeesUpdated(account, isExempt);\r\n    }\r\n\r\n    /// @notice Toggles if tax is enabled or not.\r\n    function setTaxEnabled(bool taxStatus_) external onlyOwner {\r\n        _isTaxEnabled = taxStatus_;\r\n\r\n        emit TaxStatusUpdated(taxStatus_);\r\n    }\r\n\r\n    /// @notice Set the receiver of platform taxes.\r\n    function setTaxAddress(address newTaxAddress_) external onlyOwner {\r\n        taxAddress = newTaxAddress_;\r\n        emit TaxAddressUpdated(newTaxAddress_);\r\n    }\r\n\r\n    /// @notice Sets the address that will receive LP tokens from liquidity adds.\r\n    function setLpAddress(address newLpAddress_) external onlyOwner {\r\n        lpAddress = newLpAddress_;\r\n        emit LpAddressUpdated(newLpAddress_);\r\n    }\r\n\r\n    /// @notice Sets the tax percentages for buy and sell. Can only be called before tax is renounced.\r\n    /// @dev it sets buyTax to the newBuyTax_ and sellTax to the newSellTax_\r\n    /// @param newBuyTax_ new buy tax. Cannot exceed 10.\r\n    /// @param newSellTax_ new sell tax. Cannot exceed 10.\r\n    function setTaxAmount(\r\n        uint8 newBuyTax_,\r\n        uint8 newSellTax_\r\n    ) external onlyOwner {\r\n        require(_isTaxRenounced == false, \"YieldMagnet: Tax is renounced!\");\r\n        require(\r\n            newBuyTax_ <= 10 && newSellTax_ <= 10,\r\n            \"YieldMagnet: Tax Should be less then 10!\"\r\n        );\r\n        buyTax = newBuyTax_;\r\n        sellTax = newSellTax_;\r\n        emit TaxesUpdated(newBuyTax_, newSellTax_);\r\n    }\r\n\r\n    /// @notice setMarketPair updates the market pair status. Taxes apply from/to market pairs.\r\n    function setMarketPair(address account, bool value) public onlyOwner {\r\n        require(account != address(this), \"cant change contract\");\r\n        WalletState memory state = walletStates[account];\r\n        state.isMarketPair = value;\r\n        walletStates[account] = state;\r\n        emit MarketPairUpdated(account, value);\r\n    }\r\n\r\n    /// @notice Updates the tax distribution percentage between platform, stakers and liquidity.\r\n    /// @dev sum of all three percentage must be == 100 for proper distribution.\r\n    /// @param platformPercentage_ percentage for the platform\r\n    /// @param stakerPercentage_ percentage for the stakers\r\n    /// @param lpPercentage_ percentage for the liquidity\r\n    function setDistributionPercentage(\r\n        uint8 platformPercentage_,\r\n        uint8 stakerPercentage_,\r\n        uint8 lpPercentage_\r\n    ) external onlyOwner {\r\n        require(\r\n            (platformPercentage_ + stakerPercentage_ + lpPercentage_) == 100,\r\n            \"YieldMagnet: Percentage should sum to 100!\"\r\n        );\r\n        platformPercentage = platformPercentage_;\r\n        stakerPercentage = stakerPercentage_;\r\n        lpPercentage = lpPercentage_;\r\n        emit DistributionPercentagesUpdated(\r\n            platformPercentage_,\r\n            stakerPercentage_,\r\n            lpPercentage_\r\n        );\r\n    }\r\n\r\n    /// @notice Changes the balance threshold for when tax is distributed.\r\n    /// @dev it sets taxDistributionThreshold to newTaxDistributionThreshold_ also multiply it with the decimals\r\n    /// @param newTaxDistributionThreshold_ number of whole tokens for the threshold. Decimals are added automatically.\r\n    function changeTaxDistributionThreshold(\r\n        uint256 newTaxDistributionThreshold_\r\n    ) external onlyOwner {\r\n        require(\r\n            newTaxDistributionThreshold_ > 0,\r\n            \"YieldMagnet: Threshold can't be 0\"\r\n        );\r\n        taxDistributionThreshold = newTaxDistributionThreshold_ * 10 ** 18;\r\n        emit DistributionThresholdUpdated(newTaxDistributionThreshold_);\r\n    }\r\n\r\n    /// @notice Rescue any tokens that are stuck in the contract.\r\n    function rescueStuckTokens(\r\n        address tokenAddress_,\r\n        uint256 amount_\r\n    ) external onlyOwner {\r\n        require(amount_ > 0, \"YieldMagnet: amount can't be 0\");\r\n        IERC20 token = IERC20(tokenAddress_);\r\n        token.safeTransfer(msg.sender, amount_);\r\n    }\r\n\r\n    /// @notice Rescues any ETH that are stuck in the contract.\r\n    function rescueStuckETH(uint256 amount_) external onlyOwner {\r\n        require(amount_ > 0, \"YieldMagnet: amount can't be 0\");\r\n        (bool success, ) = msg.sender.call{value: amount_}(\"\");\r\n        require(success, \"failed to send eth\");\r\n    }\r\n}\r\n",
  "sourcePath": "C:\\Users\\Baby\\staking-contract\\contracts\\Token.sol",
  "compiler": {
    "name": "solc",
    "version": "0.8.21+commit.d9974bed.Emscripten.clang"
  },
  "schemaVersion": "3.4.16",
  "updatedAt": "2024-05-29T07:06:27.796Z",
  "devdoc": {
    "errors": {
      "AddressEmptyCode(address)": [
        {
          "details": "There's no code at `target` (it is not a contract)."
        }
      ],
      "AddressInsufficientBalance(address)": [
        {
          "details": "The ETH balance of the account is not enough to perform the operation."
        }
      ],
      "ERC20InsufficientAllowance(address,uint256,uint256)": [
        {
          "details": "Indicates a failure with the `spender`s `allowance`. Used in transfers.",
          "params": {
            "allowance": "Amount of tokens a `spender` is allowed to operate with.",
            "needed": "Minimum amount required to perform a transfer.",
            "spender": "Address that may be allowed to operate on tokens without being their owner."
          }
        }
      ],
      "ERC20InsufficientBalance(address,uint256,uint256)": [
        {
          "details": "Indicates an error related to the current `balance` of a `sender`. Used in transfers.",
          "params": {
            "balance": "Current balance for the interacting account.",
            "needed": "Minimum amount required to perform a transfer.",
            "sender": "Address whose tokens are being transferred."
          }
        }
      ],
      "ERC20InvalidApprover(address)": [
        {
          "details": "Indicates a failure with the `approver` of a token to be approved. Used in approvals.",
          "params": {
            "approver": "Address initiating an approval operation."
          }
        }
      ],
      "ERC20InvalidReceiver(address)": [
        {
          "details": "Indicates a failure with the token `receiver`. Used in transfers.",
          "params": {
            "receiver": "Address to which tokens are being transferred."
          }
        }
      ],
      "ERC20InvalidSender(address)": [
        {
          "details": "Indicates a failure with the token `sender`. Used in transfers.",
          "params": {
            "sender": "Address whose tokens are being transferred."
          }
        }
      ],
      "ERC20InvalidSpender(address)": [
        {
          "details": "Indicates a failure with the `spender` to be approved. Used in approvals.",
          "params": {
            "spender": "Address that may be allowed to operate on tokens without being their owner."
          }
        }
      ],
      "FailedInnerCall()": [
        {
          "details": "A call to an address target failed. The target may have reverted."
        }
      ],
      "OwnableInvalidOwner(address)": [
        {
          "details": "The owner is not a valid owner account. (eg. `address(0)`)"
        }
      ],
      "OwnableUnauthorizedAccount(address)": [
        {
          "details": "The caller account is not authorized to perform an operation."
        }
      ],
      "SafeERC20FailedOperation(address)": [
        {
          "details": "An operation with an ERC20 token failed."
        }
      ]
    },
    "events": {
      "Approval(address,address,uint256)": {
        "details": "Emitted when the allowance of a `spender` for an `owner` is set by a call to {approve}. `value` is the new allowance."
      },
      "Transfer(address,address,uint256)": {
        "details": "Emitted when `value` tokens are moved from one account (`from`) to another (`to`). Note that `value` may be zero."
      }
    },
    "kind": "dev",
    "methods": {
      "allowance(address,address)": {
        "details": "See {IERC20-allowance}."
      },
      "approve(address,uint256)": {
        "details": "See {IERC20-approve}. NOTE: If `value` is the maximum `uint256`, the allowance is not updated on `transferFrom`. This is semantically equivalent to an infinite approval. Requirements: - `spender` cannot be the zero address."
      },
      "balanceOf(address)": {
        "details": "See {IERC20-balanceOf}."
      },
      "changeTaxDistributionThreshold(uint256)": {
        "details": "it sets taxDistributionThreshold to newTaxDistributionThreshold_ also multiply it with the decimals",
        "params": {
          "newTaxDistributionThreshold_": "number of whole tokens for the threshold. Decimals are added automatically."
        }
      },
      "decimals()": {
        "details": "Returns the number of decimals used to get its user representation. For example, if `decimals` equals `2`, a balance of `505` tokens should be displayed to a user as `5.05` (`505 / 10 ** 2`). Tokens usually opt for a value of 18, imitating the relationship between Ether and Wei. This is the default value returned by this function, unless it's overridden. NOTE: This information is only used for _display_ purposes: it in no way affects any of the arithmetic of the contract, including {IERC20-balanceOf} and {IERC20-transfer}."
      },
      "name()": {
        "details": "Returns the name of the token."
      },
      "owner()": {
        "details": "Returns the address of the current owner."
      },
      "renounceOwnership()": {
        "details": "Leaves the contract without owner. It will not be possible to call `onlyOwner` functions. Can only be called by the current owner. NOTE: Renouncing ownership will leave the contract without an owner, thereby disabling any functionality that is only available to the owner."
      },
      "setDistributionPercentage(uint8,uint8,uint8)": {
        "details": "sum of all three percentage must be == 100 for proper distribution.",
        "params": {
          "lpPercentage_": "percentage for the liquidity",
          "platformPercentage_": "percentage for the platform",
          "stakerPercentage_": "percentage for the stakers"
        }
      },
      "setTaxAmount(uint8,uint8)": {
        "details": "it sets buyTax to the newBuyTax_ and sellTax to the newSellTax_",
        "params": {
          "newBuyTax_": "new buy tax. Cannot exceed 10.",
          "newSellTax_": "new sell tax. Cannot exceed 10."
        }
      },
      "symbol()": {
        "details": "Returns the symbol of the token, usually a shorter version of the name."
      },
      "totalSupply()": {
        "details": "See {IERC20-totalSupply}."
      },
      "transfer(address,uint256)": {
        "details": "See {IERC20-transfer}. Requirements: - `to` cannot be the zero address. - the caller must have a balance of at least `value`."
      },
      "transferFrom(address,address,uint256)": {
        "details": "See {IERC20-transferFrom}. Emits an {Approval} event indicating the updated allowance. This is not required by the EIP. See the note at the beginning of {ERC20}. NOTE: Does not update the allowance if the current allowance is the maximum `uint256`. Requirements: - `from` and `to` cannot be the zero address. - `from` must have a balance of at least `value`. - the caller must have allowance for ``from``'s tokens of at least `value`."
      },
      "transferOwnership(address)": {
        "details": "Transfers ownership of the contract to a new account (`newOwner`). Can only be called by the current owner."
      },
      "updateStakingContracts(address[],uint8[])": {
        "details": "Deletes any previous _stakingContracts.",
        "params": {
          "percentages_": "The array of Staking contract distribution perccentages",
          "stakingContracts_": "The array of Staking contract addresses"
        }
      }
    },
    "version": 1
  },
  "userdoc": {
    "kind": "user",
    "methods": {
      "changeTaxDistributionThreshold(uint256)": {
        "notice": "Changes the balance threshold for when tax is distributed."
      },
      "distributeTax()": {
        "notice": "Distributes the collected tax to the platform, stakers and liquidity."
      },
      "getStakingContracts()": {
        "notice": "Retrieves the Staking contract address and their percentages."
      },
      "isTaxEnabled()": {
        "notice": "Returns if the tax is enabled or not. Tax only exists on market pairs."
      },
      "isTaxExempt(address)": {
        "notice": "Returns if an address is excluded from tax."
      },
      "isTaxRenounced()": {
        "notice": "Returns if tax is renounced, meaning that the taxes cannot be changed."
      },
      "openTrading()": {
        "notice": "Opens the trading, enabling taxes. Can only be called once."
      },
      "renounceTax()": {
        "notice": "Renounces the tax, meaning that it can never be changed again."
      },
      "rescueStuckETH(uint256)": {
        "notice": "Rescues any ETH that are stuck in the contract."
      },
      "rescueStuckTokens(address,uint256)": {
        "notice": "Rescue any tokens that are stuck in the contract."
      },
      "setDistributionPercentage(uint8,uint8,uint8)": {
        "notice": "Updates the tax distribution percentage between platform, stakers and liquidity."
      },
      "setLpAddress(address)": {
        "notice": "Sets the address that will receive LP tokens from liquidity adds."
      },
      "setMarketPair(address,bool)": {
        "notice": "setMarketPair updates the market pair status. Taxes apply from/to market pairs."
      },
      "setTaxAddress(address)": {
        "notice": "Set the receiver of platform taxes."
      },
      "setTaxAmount(uint8,uint8)": {
        "notice": "Sets the tax percentages for buy and sell. Can only be called before tax is renounced."
      },
      "setTaxEnabled(bool)": {
        "notice": "Toggles if tax is enabled or not."
      },
      "setTaxExempt(address,bool)": {
        "notice": "Sets an address's tax exempt status."
      },
      "updateStakingContracts(address[],uint8[])": {
        "notice": "Sets the staking contracts and their respective percentages. Percentages must add up to 100."
      },
      "updateUniswapRouter(address)": {
        "notice": "Sets the Uniswap router address to use for swapping taxes and adding liquidity."
      }
    },
    "version": 1
  }
}